{
  "_format": "hh-sol-artifact-1",
  "contractName": "EasySwapVault",
  "sourceName": "contracts/EasySwapVault.sol",
  "abi": [
    {
      "inputs": [],
      "name": "InvalidInitialization",
      "type": "error"
    },
    {
      "inputs": [],
      "name": "NotInitializing",
      "type": "error"
    },
    {
      "inputs": [
        {
          "internalType": "address",
          "name": "owner",
          "type": "address"
        }
      ],
      "name": "OwnableInvalidOwner",
      "type": "error"
    },
    {
      "inputs": [
        {
          "internalType": "address",
          "name": "account",
          "type": "address"
        }
      ],
      "name": "OwnableUnauthorizedAccount",
      "type": "error"
    },
    {
      "anonymous": false,
      "inputs": [
        {
          "indexed": false,
          "internalType": "uint64",
          "name": "version",
          "type": "uint64"
        }
      ],
      "name": "Initialized",
      "type": "event"
    },
    {
      "anonymous": false,
      "inputs": [
        {
          "indexed": true,
          "internalType": "address",
          "name": "previousOwner",
          "type": "address"
        },
        {
          "indexed": true,
          "internalType": "address",
          "name": "newOwner",
          "type": "address"
        }
      ],
      "name": "OwnershipTransferred",
      "type": "event"
    },
    {
      "inputs": [
        {
          "internalType": "OrderKey",
          "name": "",
          "type": "bytes32"
        }
      ],
      "name": "ETHBalance",
      "outputs": [
        {
          "internalType": "uint256",
          "name": "",
          "type": "uint256"
        }
      ],
      "stateMutability": "view",
      "type": "function"
    },
    {
      "inputs": [
        {
          "internalType": "OrderKey",
          "name": "",
          "type": "bytes32"
        }
      ],
      "name": "NFTBalance",
      "outputs": [
        {
          "internalType": "uint256",
          "name": "",
          "type": "uint256"
        }
      ],
      "stateMutability": "view",
      "type": "function"
    },
    {
      "inputs": [
        {
          "internalType": "OrderKey",
          "name": "orderKey",
          "type": "bytes32"
        }
      ],
      "name": "balanceOf",
      "outputs": [
        {
          "internalType": "uint256",
          "name": "ETHAmount",
          "type": "uint256"
        },
        {
          "internalType": "uint256",
          "name": "tokenId",
          "type": "uint256"
        }
      ],
      "stateMutability": "view",
      "type": "function"
    },
    {
      "inputs": [
        {
          "internalType": "address",
          "name": "to",
          "type": "address"
        },
        {
          "components": [
            {
              "internalType": "address",
              "name": "collection",
              "type": "address"
            },
            {
              "internalType": "uint256",
              "name": "tokenId",
              "type": "uint256"
            }
          ],
          "internalType": "struct LibOrder.NFTInfo[]",
          "name": "assets",
          "type": "tuple[]"
        }
      ],
      "name": "batchTransferERC721",
      "outputs": [],
      "stateMutability": "nonpayable",
      "type": "function"
    },
    {
      "inputs": [
        {
          "internalType": "OrderKey",
          "name": "orderKey",
          "type": "bytes32"
        },
        {
          "internalType": "uint256",
          "name": "ETHAmount",
          "type": "uint256"
        }
      ],
      "name": "depositETH",
      "outputs": [],
      "stateMutability": "payable",
      "type": "function"
    },
    {
      "inputs": [
        {
          "internalType": "OrderKey",
          "name": "orderKey",
          "type": "bytes32"
        },
        {
          "internalType": "address",
          "name": "from",
          "type": "address"
        },
        {
          "internalType": "address",
          "name": "collection",
          "type": "address"
        },
        {
          "internalType": "uint256",
          "name": "tokenId",
          "type": "uint256"
        }
      ],
      "name": "depositNFT",
      "outputs": [],
      "stateMutability": "nonpayable",
      "type": "function"
    },
    {
      "inputs": [
        {
          "internalType": "OrderKey",
          "name": "oldOrderKey",
          "type": "bytes32"
        },
        {
          "internalType": "OrderKey",
          "name": "newOrderKey",
          "type": "bytes32"
        },
        {
          "internalType": "uint256",
          "name": "oldETHAmount",
          "type": "uint256"
        },
        {
          "internalType": "uint256",
          "name": "newETHAmount",
          "type": "uint256"
        },
        {
          "internalType": "address",
          "name": "to",
          "type": "address"
        }
      ],
      "name": "editETH",
      "outputs": [],
      "stateMutability": "payable",
      "type": "function"
    },
    {
      "inputs": [
        {
          "internalType": "OrderKey",
          "name": "oldOrderKey",
          "type": "bytes32"
        },
        {
          "internalType": "OrderKey",
          "name": "newOrderKey",
          "type": "bytes32"
        }
      ],
      "name": "editNFT",
      "outputs": [],
      "stateMutability": "nonpayable",
      "type": "function"
    },
    {
      "inputs": [],
      "name": "initialize",
      "outputs": [],
      "stateMutability": "nonpayable",
      "type": "function"
    },
    {
      "inputs": [
        {
          "internalType": "address",
          "name": "",
          "type": "address"
        },
        {
          "internalType": "address",
          "name": "",
          "type": "address"
        },
        {
          "internalType": "uint256",
          "name": "",
          "type": "uint256"
        },
        {
          "internalType": "bytes",
          "name": "",
          "type": "bytes"
        }
      ],
      "name": "onERC721Received",
      "outputs": [
        {
          "internalType": "bytes4",
          "name": "",
          "type": "bytes4"
        }
      ],
      "stateMutability": "nonpayable",
      "type": "function"
    },
    {
      "inputs": [],
      "name": "orderBook",
      "outputs": [
        {
          "internalType": "address",
          "name": "",
          "type": "address"
        }
      ],
      "stateMutability": "view",
      "type": "function"
    },
    {
      "inputs": [],
      "name": "owner",
      "outputs": [
        {
          "internalType": "address",
          "name": "",
          "type": "address"
        }
      ],
      "stateMutability": "view",
      "type": "function"
    },
    {
      "inputs": [],
      "name": "renounceOwnership",
      "outputs": [],
      "stateMutability": "nonpayable",
      "type": "function"
    },
    {
      "inputs": [
        {
          "internalType": "address",
          "name": "newOrderBook",
          "type": "address"
        }
      ],
      "name": "setOrderBook",
      "outputs": [],
      "stateMutability": "nonpayable",
      "type": "function"
    },
    {
      "inputs": [
        {
          "internalType": "address",
          "name": "from",
          "type": "address"
        },
        {
          "internalType": "address",
          "name": "to",
          "type": "address"
        },
        {
          "components": [
            {
              "internalType": "uint256",
              "name": "tokenId",
              "type": "uint256"
            },
            {
              "internalType": "address",
              "name": "collection",
              "type": "address"
            },
            {
              "internalType": "uint96",
              "name": "amount",
              "type": "uint96"
            }
          ],
          "internalType": "struct LibOrder.Asset",
          "name": "assets",
          "type": "tuple"
        }
      ],
      "name": "transferERC721",
      "outputs": [],
      "stateMutability": "nonpayable",
      "type": "function"
    },
    {
      "inputs": [
        {
          "internalType": "address",
          "name": "newOwner",
          "type": "address"
        }
      ],
      "name": "transferOwnership",
      "outputs": [],
      "stateMutability": "nonpayable",
      "type": "function"
    },
    {
      "inputs": [
        {
          "internalType": "OrderKey",
          "name": "orderKey",
          "type": "bytes32"
        },
        {
          "internalType": "uint256",
          "name": "ETHAmount",
          "type": "uint256"
        },
        {
          "internalType": "address",
          "name": "to",
          "type": "address"
        }
      ],
      "name": "withdrawETH",
      "outputs": [],
      "stateMutability": "nonpayable",
      "type": "function"
    },
    {
      "inputs": [
        {
          "internalType": "OrderKey",
          "name": "orderKey",
          "type": "bytes32"
        },
        {
          "internalType": "address",
          "name": "to",
          "type": "address"
        },
        {
          "internalType": "address",
          "name": "collection",
          "type": "address"
        },
        {
          "internalType": "uint256",
          "name": "tokenId",
          "type": "uint256"
        }
      ],
      "name": "withdrawNFT",
      "outputs": [],
      "stateMutability": "nonpayable",
      "type": "function"
    },
    {
      "stateMutability": "payable",
      "type": "receive"
    }
  ],
  "bytecode": "0x6080806040523461001657610c9c908161001c8239f35b600080fdfe6080604052600436101561001b575b361561001957600080fd5b005b60003560e01c80630b0494581461013b5780630f5daeaf14610136578063150b7a0214610131578063524397531461012c5780635eb0c73a146101275780635f91a0f0146101225780636c7f15421461011d578063715018a614610118578063776af5ba146101135780638129fc1c1461010e5780638a03f995146101095780638da5cb5b146101045780639a1598c8146100ff578063bf0a59e0146100fa578063ca1e298a146100f5578063e7a394fa146100f0578063eb214e09146100eb5763f2fde38b0361000e576108f4565b6108c8565b61083f565b6107f2565b610729565b6106a7565b610671565b610645565b610521565b6104f8565b61048a565b610451565b61040a565b6103a2565b61030c565b610232565b6101b7565b610156565b6001600160a01b0381160361015157565b600080fd5b346101515760603660031901126101515760443560243561017682610140565b61018b60018060a01b03600054163314610a18565b600435600052600160205260406000209182548281039081116101b2576100199355610b5b565b610a62565b34610151576040366003190112610151576004356101d481610140565b6024359067ffffffffffffffff908183116101515736602384011215610151578260040135918211610151573660248360061b85010111610151576024610019930190610b01565b634e487b7160e01b600052604160045260246000fd5b346101515760803660031901126101515761024e600435610140565b610259602435610140565b67ffffffffffffffff60643581811161015157366023820112156101515780600401358281116102d75760405192601f8201601f19908116603f01168401908111848210176102d7576040528083523660248284010111610151576000928160246020940184830137010152604051630a85bd0160e11b8152602090f35b61021c565b608090600319011261015157600435906024356102f881610140565b9060443561030581610140565b9060643590565b346101515761031a366102dc565b90929160018060a01b0393600094610336818754163314610a18565b848652600260205283604087205403610365576103629486526002602052856040812055309116610ba6565b80f35b60405162461bcd60e51b815260206004820152601560248201527412158e881b9bdd081b585d18da081d1bdad95b9259605a1b6044820152606490fd5b346101515760a0366003190112610151576004356103bf81610140565b602435906103cc82610140565b6060366043190112610151576100199160018060a01b03916103f383600054163314610a18565b6064359261040084610140565b6044359316610ba6565b346101515761043e61041b366102dc565b939190849160018060a01b0361043681600054163314610a18565b309216610ba6565b6000526002602052604060002055600080f35b34610151576020366003190112610151576004356000526001602052604080600020546002602052816000205482519182526020820152f35b34610151576000806003193601126104f5576104a4610921565b600080516020610c2783398151915280546001600160a01b0319811690915581906001600160a01b03167f8be0079c531659141344cd1fd0a4f28419497f9722a3daafe3b4186f6b6457e08280a380f35b80fd5b34610151576000366003190112610151576000546040516001600160a01b039091168152602090f35b3461015157600036600319011261015157600080516020610c478339815191525467ffffffffffffffff60ff8260401c161591168015908161063d575b6001149081610633575b15908161062a575b5061061857600080516020610c47833981519152805467ffffffffffffffff19166001179055806105f3575b6105a46109ce565b6105aa57005b600080516020610c47833981519152805460ff60401b19169055604051600181527fc7f505b2f371ae2175ee4913f4499e1f2633a7b5936321eed1cdaeb6115181d290602090a1005b600080516020610c47833981519152805460ff60401b1916600160401b17905561059c565b60405163f92ee8a960e01b8152600490fd5b90501538610570565b303b159150610568565b82915061055e565b346101515760203660031901126101515760043560005260016020526020604060002054604051908152f35b3461015157600036600319011261015157600080516020610c27833981519152546040516001600160a01b039091168152602090f35b34610151576020366003190112610151576004356106c481610140565b6106cc610921565b6001600160a01b031680156106f157600080546001600160a01b031916919091179055005b60405162461bcd60e51b815260206004820152601060248201526f48563a207a65726f206164647265737360801b6044820152606490fd5b60a03660031901126101515760443560243560843560643561074a82610140565b60009361076160018060a01b038654163314610a18565b600435855260016020528460408120558181116000146107a4579061079e9181610798610362966000526001602052604060002090565b55610a85565b90610b5b565b9150808210156107e6578181039081116101b2576107e2916107cb6107d192341015610a92565b34610a78565b916000526001602052604060002090565b5580f35b50908252604082205580f35b346101515760403660031901126101515760043560009061081d60018060a01b038354163314610a18565b8082526002602052604082205460243583526040832055815280604081205580f35b60403660031901126101515761086060018060a01b03600054163314610a18565b602435341061088957600435600052600160205260406000208054903482018092116101b25755005b60405162461bcd60e51b815260206004820152601760248201527612158e881b9bdd081b585d18da08115512105b5bdd5b9d604a1b6044820152606490fd5b346101515760203660031901126101515760043560005260026020526020604060002054604051908152f35b346101515760203660031901126101515761001960043561091481610140565b61091c610921565b61095a565b600080516020610c27833981519152546001600160a01b0316330361094257565b60405163118cdaa760e01b8152336004820152602490fd5b6001600160a01b039081169081156109b557600080516020610c2783398151915280546001600160a01b031981168417909155167f8be0079c531659141344cd1fd0a4f28419497f9722a3daafe3b4186f6b6457e0600080a3565b604051631e4fbdf760e01b815260006004820152602490fd5b6109d66109e9565b6109de6109e9565b6109e73361095a565b565b60ff600080516020610c478339815191525460401c1615610a0657565b604051631afcd79f60e31b8152600490fd5b15610a1f57565b60405162461bcd60e51b815260206004820152601b60248201527a48563a206f6e6c79204561737953776170204f72646572426f6f6b60281b6044820152606490fd5b634e487b7160e01b600052601160045260246000fd5b919082018092116101b257565b919082039182116101b257565b15610a9957565b60405162461bcd60e51b815260206004820152601a60248201527912158e881b9bdd081b585d18da081b995dd15512105b5bdd5b9d60321b6044820152606490fd5b9190811015610aeb5760061b0190565b634e487b7160e01b600052603260045260246000fd5b60005b838110610b115750505050565b610b4a610b1f828686610adb565b35610b2981610140565b836020610b37858989610adb565b01359133906001600160a01b0316610ba6565b60001981146101b257600101610b04565b600080809381935af115610b6b57565b60405162461bcd60e51b815260206004820152601360248201527211551217d514905394d1915497d19052531151606a1b6044820152606490fd5b906000606492602095829560405194632142170760e11b86526004860152602485015260448401525af13d15601f3d1160016000511416171615610be657565b60405162461bcd60e51b815260206004820152601860248201527713919517d514905394d1915497d19493d357d1905253115160421b6044820152606490fdfe9016d09d72d40fdae2fd8ceac6b6234c7706214fd39c1cd1e609a0528c199300f0c57e16840df040f15088dc2f81fe391c3923bec73e23a9662efc9c229c6a00a2646970667358221220b2d4c562642f48e5105b1055e5c758528740136be19099acfbe10ef36f4bc4e364736f6c63430008140033",
  "linkReferences": {},
  "deployedLinkReferences": {}
}