{
  "_format": "hh-sol-artifact-1",
  "contractName": "TestERC721",
  "sourceName": "contracts/test/TestERC721.sol",
  "abi": [
    {
      "inputs": [],
      "stateMutability": "nonpayable",
      "type": "constructor"
    },
    {
      "inputs": [],
      "name": "ERC721EnumerableForbiddenBatchMint",
      "type": "error"
    },
    {
      "inputs": [
        {
          "internalType": "address",
          "name": "sender",
          "type": "address"
        },
        {
          "internalType": "uint256",
          "name": "tokenId",
          "type": "uint256"
        },
        {
          "internalType": "address",
          "name": "owner",
          "type": "address"
        }
      ],
      "name": "ERC721IncorrectOwner",
      "type": "error"
    },
    {
      "inputs": [
        {
          "internalType": "address",
          "name": "operator",
          "type": "address"
        },
        {
          "internalType": "uint256",
          "name": "tokenId",
          "type": "uint256"
        }
      ],
      "name": "ERC721InsufficientApproval",
      "type": "error"
    },
    {
      "inputs": [
        {
          "internalType": "address",
          "name": "approver",
          "type": "address"
        }
      ],
      "name": "ERC721InvalidApprover",
      "type": "error"
    },
    {
      "inputs": [
        {
          "internalType": "address",
          "name": "operator",
          "type": "address"
        }
      ],
      "name": "ERC721InvalidOperator",
      "type": "error"
    },
    {
      "inputs": [
        {
          "internalType": "address",
          "name": "owner",
          "type": "address"
        }
      ],
      "name": "ERC721InvalidOwner",
      "type": "error"
    },
    {
      "inputs": [
        {
          "internalType": "address",
          "name": "receiver",
          "type": "address"
        }
      ],
      "name": "ERC721InvalidReceiver",
      "type": "error"
    },
    {
      "inputs": [
        {
          "internalType": "address",
          "name": "sender",
          "type": "address"
        }
      ],
      "name": "ERC721InvalidSender",
      "type": "error"
    },
    {
      "inputs": [
        {
          "internalType": "uint256",
          "name": "tokenId",
          "type": "uint256"
        }
      ],
      "name": "ERC721NonexistentToken",
      "type": "error"
    },
    {
      "inputs": [
        {
          "internalType": "address",
          "name": "owner",
          "type": "address"
        },
        {
          "internalType": "uint256",
          "name": "index",
          "type": "uint256"
        }
      ],
      "name": "ERC721OutOfBoundsIndex",
      "type": "error"
    },
    {
      "inputs": [
        {
          "internalType": "address",
          "name": "owner",
          "type": "address"
        }
      ],
      "name": "OwnableInvalidOwner",
      "type": "error"
    },
    {
      "inputs": [
        {
          "internalType": "address",
          "name": "account",
          "type": "address"
        }
      ],
      "name": "OwnableUnauthorizedAccount",
      "type": "error"
    },
    {
      "anonymous": false,
      "inputs": [
        {
          "indexed": true,
          "internalType": "address",
          "name": "owner",
          "type": "address"
        },
        {
          "indexed": true,
          "internalType": "address",
          "name": "approved",
          "type": "address"
        },
        {
          "indexed": true,
          "internalType": "uint256",
          "name": "tokenId",
          "type": "uint256"
        }
      ],
      "name": "Approval",
      "type": "event"
    },
    {
      "anonymous": false,
      "inputs": [
        {
          "indexed": true,
          "internalType": "address",
          "name": "owner",
          "type": "address"
        },
        {
          "indexed": true,
          "internalType": "address",
          "name": "operator",
          "type": "address"
        },
        {
          "indexed": false,
          "internalType": "bool",
          "name": "approved",
          "type": "bool"
        }
      ],
      "name": "ApprovalForAll",
      "type": "event"
    },
    {
      "anonymous": false,
      "inputs": [
        {
          "indexed": true,
          "internalType": "address",
          "name": "previousOwner",
          "type": "address"
        },
        {
          "indexed": true,
          "internalType": "address",
          "name": "newOwner",
          "type": "address"
        }
      ],
      "name": "OwnershipTransferred",
      "type": "event"
    },
    {
      "anonymous": false,
      "inputs": [
        {
          "indexed": true,
          "internalType": "address",
          "name": "from",
          "type": "address"
        },
        {
          "indexed": true,
          "internalType": "address",
          "name": "to",
          "type": "address"
        },
        {
          "indexed": true,
          "internalType": "uint256",
          "name": "tokenId",
          "type": "uint256"
        }
      ],
      "name": "Transfer",
      "type": "event"
    },
    {
      "inputs": [
        {
          "internalType": "address",
          "name": "to",
          "type": "address"
        },
        {
          "internalType": "uint256",
          "name": "tokenId",
          "type": "uint256"
        }
      ],
      "name": "approve",
      "outputs": [],
      "stateMutability": "nonpayable",
      "type": "function"
    },
    {
      "inputs": [
        {
          "internalType": "address",
          "name": "owner",
          "type": "address"
        }
      ],
      "name": "balanceOf",
      "outputs": [
        {
          "internalType": "uint256",
          "name": "",
          "type": "uint256"
        }
      ],
      "stateMutability": "view",
      "type": "function"
    },
    {
      "inputs": [
        {
          "internalType": "uint256",
          "name": "tokenId",
          "type": "uint256"
        }
      ],
      "name": "getApproved",
      "outputs": [
        {
          "internalType": "address",
          "name": "",
          "type": "address"
        }
      ],
      "stateMutability": "view",
      "type": "function"
    },
    {
      "inputs": [
        {
          "internalType": "address",
          "name": "owner",
          "type": "address"
        },
        {
          "internalType": "address",
          "name": "operator",
          "type": "address"
        }
      ],
      "name": "isApprovedForAll",
      "outputs": [
        {
          "internalType": "bool",
          "name": "",
          "type": "bool"
        }
      ],
      "stateMutability": "view",
      "type": "function"
    },
    {
      "inputs": [
        {
          "internalType": "address",
          "name": "to",
          "type": "address"
        },
        {
          "internalType": "uint256",
          "name": "tokenId",
          "type": "uint256"
        }
      ],
      "name": "mint",
      "outputs": [],
      "stateMutability": "nonpayable",
      "type": "function"
    },
    {
      "inputs": [],
      "name": "name",
      "outputs": [
        {
          "internalType": "string",
          "name": "",
          "type": "string"
        }
      ],
      "stateMutability": "view",
      "type": "function"
    },
    {
      "inputs": [],
      "name": "owner",
      "outputs": [
        {
          "internalType": "address",
          "name": "",
          "type": "address"
        }
      ],
      "stateMutability": "view",
      "type": "function"
    },
    {
      "inputs": [
        {
          "internalType": "uint256",
          "name": "tokenId",
          "type": "uint256"
        }
      ],
      "name": "ownerOf",
      "outputs": [
        {
          "internalType": "address",
          "name": "",
          "type": "address"
        }
      ],
      "stateMutability": "view",
      "type": "function"
    },
    {
      "inputs": [],
      "name": "renounceOwnership",
      "outputs": [],
      "stateMutability": "nonpayable",
      "type": "function"
    },
    {
      "inputs": [
        {
          "internalType": "address",
          "name": "from",
          "type": "address"
        },
        {
          "internalType": "address",
          "name": "to",
          "type": "address"
        },
        {
          "internalType": "uint256",
          "name": "tokenId",
          "type": "uint256"
        }
      ],
      "name": "safeTransferFrom",
      "outputs": [],
      "stateMutability": "nonpayable",
      "type": "function"
    },
    {
      "inputs": [
        {
          "internalType": "address",
          "name": "from",
          "type": "address"
        },
        {
          "internalType": "address",
          "name": "to",
          "type": "address"
        },
        {
          "internalType": "uint256",
          "name": "tokenId",
          "type": "uint256"
        },
        {
          "internalType": "bytes",
          "name": "data",
          "type": "bytes"
        }
      ],
      "name": "safeTransferFrom",
      "outputs": [],
      "stateMutability": "nonpayable",
      "type": "function"
    },
    {
      "inputs": [
        {
          "internalType": "address",
          "name": "operator",
          "type": "address"
        },
        {
          "internalType": "bool",
          "name": "approved",
          "type": "bool"
        }
      ],
      "name": "setApprovalForAll",
      "outputs": [],
      "stateMutability": "nonpayable",
      "type": "function"
    },
    {
      "inputs": [
        {
          "internalType": "string",
          "name": "newTokenURI",
          "type": "string"
        }
      ],
      "name": "setTokenURI",
      "outputs": [],
      "stateMutability": "nonpayable",
      "type": "function"
    },
    {
      "inputs": [
        {
          "internalType": "bytes4",
          "name": "interfaceId",
          "type": "bytes4"
        }
      ],
      "name": "supportsInterface",
      "outputs": [
        {
          "internalType": "bool",
          "name": "",
          "type": "bool"
        }
      ],
      "stateMutability": "view",
      "type": "function"
    },
    {
      "inputs": [],
      "name": "symbol",
      "outputs": [
        {
          "internalType": "string",
          "name": "",
          "type": "string"
        }
      ],
      "stateMutability": "view",
      "type": "function"
    },
    {
      "inputs": [
        {
          "internalType": "uint256",
          "name": "index",
          "type": "uint256"
        }
      ],
      "name": "tokenByIndex",
      "outputs": [
        {
          "internalType": "uint256",
          "name": "",
          "type": "uint256"
        }
      ],
      "stateMutability": "view",
      "type": "function"
    },
    {
      "inputs": [
        {
          "internalType": "address",
          "name": "owner",
          "type": "address"
        },
        {
          "internalType": "uint256",
          "name": "index",
          "type": "uint256"
        }
      ],
      "name": "tokenOfOwnerByIndex",
      "outputs": [
        {
          "internalType": "uint256",
          "name": "",
          "type": "uint256"
        }
      ],
      "stateMutability": "view",
      "type": "function"
    },
    {
      "inputs": [
        {
          "internalType": "uint256",
          "name": "tokenId",
          "type": "uint256"
        }
      ],
      "name": "tokenURI",
      "outputs": [
        {
          "internalType": "string",
          "name": "",
          "type": "string"
        }
      ],
      "stateMutability": "view",
      "type": "function"
    },
    {
      "inputs": [],
      "name": "totalSupply",
      "outputs": [
        {
          "internalType": "uint256",
          "name": "",
          "type": "uint256"
        }
      ],
      "stateMutability": "view",
      "type": "function"
    },
    {
      "inputs": [
        {
          "internalType": "address",
          "name": "from",
          "type": "address"
        },
        {
          "internalType": "address",
          "name": "to",
          "type": "address"
        },
        {
          "internalType": "uint256",
          "name": "tokenId",
          "type": "uint256"
        }
      ],
      "name": "transferFrom",
      "outputs": [],
      "stateMutability": "nonpayable",
      "type": "function"
    },
    {
      "inputs": [
        {
          "internalType": "address",
          "name": "newOwner",
          "type": "address"
        }
      ],
      "name": "transferOwnership",
      "outputs": [],
      "stateMutability": "nonpayable",
      "type": "function"
    }
  ],
  "bytecode": "0x60806040523462000343576200001462000348565b6200001e62000348565b81519091906001600160401b038082116200032d576000928354906001938483811c931691821562000322575b602092838510146200030e578190601f94858111620002bb575b508390858311600114620002575788926200024b575b5050600019600383901b1c191690851b1785555b8551928311620002375783548481811c911680156200022c575b828210146200021857828111620001d0575b50809183116001146200016a57508394829394926200015e575b5050600019600383901b1c191690821b1790555b33156200014657600a8054336001600160a01b031982168117909255604051926001600160a01b03909116907f8be0079c531659141344cd1fd0a4f28419497f9722a3daafe3b4186f6b6457e09080a36112f390816200037b8239f35b60249060405190631e4fbdf760e01b82526004820152fd5b015190503880620000d5565b90601f198316958486528286209286905b888210620001b857505083859697106200019e575b505050811b019055620000e9565b015160001960f88460031b161c1916905538808062000190565b8087859682949686015181550195019301906200017b565b8486528186208380860160051c8201928487106200020e575b0160051c019085905b82811062000202575050620000bb565b878155018590620001f2565b92508192620001e9565b634e487b7160e01b86526022600452602486fd5b90607f1690620000a9565b634e487b7160e01b85526041600452602485fd5b0151905038806200007b565b8880528489208894509190601f1984168a5b87828210620002a457505084116200028a575b505050811b0185556200008f565b015160001960f88460031b161c191690553880806200027c565b8385015186558b9790950194938401930162000269565b9091508780528388208580850160051c82019286861062000304575b918991869594930160051c01915b828110620002f557505062000065565b8a8155859450899101620002e5565b92508192620002d7565b634e487b7160e01b87526022600452602487fd5b92607f16926200004b565b634e487b7160e01b600052604160045260246000fd5b600080fd5b60408051919082016001600160401b038111838210176200032d576040526005825264151c9bdb1b60da1b602083015256fe6080604081815260048036101561001557600080fd5b600092833560e01c90816301ffc9a714610c025750806306fdde0314610b7b578063081812fc14610b40578063095ea7b314610a6457806318160ddd14610a4557806323b872dd14610a2d5780632f745c59146109a957806340c10f191461076b57806342842e0e1461071d5780634f6ccce7146106c95780636352211e1461069857806370a082311461066b578063715018a61461060e5780638da5cb5b146105e557806395d89b4114610523578063a22cb46514610486578063b88d4fde1461041f578063c87b56dd1461034f578063e0df5b6f146101e8578063e985e9c5146101965763f2fde38b1461010a57600080fd5b3461019257602036600319011261019257610123610cc8565b9061012c610db7565b6001600160a01b0391821692831561017c575050600a80546001600160a01b031981168417909155167f8be0079c531659141344cd1fd0a4f28419497f9722a3daafe3b4186f6b6457e08380a380f35b51631e4fbdf760e01b8152908101849052602490fd5b8280fd5b5050346101e457806003193601126101e45760ff816020936101b6610cc8565b6101be610ce3565b6001600160a01b0391821683526005875283832091168252855220549151911615158152f35b5080fd5b50823461034c576020806003193601126101e4576001600160401b0390833582811161034857366023820112156103485761022c9036906024818801359101610d80565b93610235610db7565b8451928311610335575061024a600b54610e1c565b601f81116102f1575b5080601f831160011461028e57508293829392610283575b50508160011b916000199060031b1c191617600b5580f35b01519050838061026b565b90601f19831694600b85528285209285905b8782106102d95750508360019596106102c0575b505050811b01600b5580f35b015160001960f88460031b161c191690558380806102b4565b806001859682949686015181550195019301906102a0565b600b8452818420601f840160051c81019183851061032b575b601f0160051c01905b8181106103205750610253565b848155600101610313565b909150819061030a565b634e487b7160e01b845260419052602483fd5b8380fd5b80fd5b5050346101e4576020908160031936011261019257805183819490600b5461037681610e1c565b918285526001918783821691826000146103f85750506001146103ba575b5050506103b692916103a7910385610d2e565b51928284938452830190610c88565b0390f35b9190869350600b83528383205b8284106103e057505050820101816103a76103b6610394565b8054848a0186015288955087949093019281016103c7565b60ff19168782015293151560051b860190930193508492506103a791506103b69050610394565b8382346101e45760803660031901126101e45761043a610cc8565b610442610ce3565b906064356001600160401b03811161048257366023820112156104825761047f9381602461047593369301359101610d80565b9160443591611102565b80f35b8480fd5b5090346101925780600319360112610192576104a0610cc8565b9060243591821515809303610482576001600160a01b031692831561050e5750338452600560205280842083855260205280842060ff1981541660ff8416179055519081527f17307eab39ab6107e8899845ad3d59bd9653f200f220920489ca2b5937696c3160203392a380f35b836024925191630b61174360e31b8352820152fd5b5050346101e457816003193601126101e45780519082600180549061054782610e1c565b808652918181169081156105bd5750600114610582575b505050610570826103b6940383610d2e565b51918291602083526020830190610c88565b80955082526020948583205b8284106105aa57505050826103b694610570928201019461055e565b805486850188015292860192810161058e565b6103b697506105709450602092508693915060ff191682840152151560051b8201019461055e565b5050346101e457816003193601126101e457600a5490516001600160a01b039091168152602090f35b833461034c578060031936011261034c57610627610db7565b600a80546001600160a01b0319811690915581906001600160a01b03167f8be0079c531659141344cd1fd0a4f28419497f9722a3daafe3b4186f6b6457e08280a380f35b5050346101e45760203660031901126101e45760209061069161068c610cc8565b610de3565b9051908152f35b50913461034c57602036600319011261034c57506106b860209235611251565b90516001600160a01b039091168152f35b503461019257602036600319011261019257803592600854841015610702576020836106f48661128c565b91905490519160031b1c8152f35b6044939192519263295f44f760e21b84528301526024820152fd5b509190346101e45761072e36610cf9565b9183519360208501908582106001600160401b038311176107585761047f96975052858452611102565b634e487b7160e01b875260418852602487fd5b509034610192578060031936011261019257610785610cc8565b602435610790610db7565b6001600160a01b038281169290919083156109925790869392918185526020926002845286862054168481158482847fddf252ad1be2c89b69c2b068fc378daa952ba7f163c4a11628f55a4df523b3ef84159b8c61095f575b83815260038b528d81208054600101905584815260028b528d812080546001600160a01b0319168517905580a4156108f15750600854838a5260098552878a20819055600160401b8110156108de57906108678461084e8460018a960160085561128c565b90919082549060031b91821b91600019901b1916179055565b0361088e575b50505050610879578280f35b9160249251916339e3563760e11b8352820152fd5b61089790610de3565b6000198101939084116108cb578752600682528487208388528252848720819055865260079052828520553880808061086d565b634e487b7160e01b885260118752602488fd5b634e487b7160e01b8a526041895260248afd5b908082146108675761090281610de3565b848b5260078652888b205490828c5260068752898c209181810361093c575b50858c52600787528b8a8120558b5285528988812055610867565b818d528288528a8d2054818e528b8e208190558d52600788528a8d205538610921565b600085815260046020526040902080546001600160a01b031916905582815260038b528d812080546000190190556107e9565b8451633250574960e11b8152808701889052602490fd5b50913461034c578160031936011261034c576109c3610cc8565b92602435906109d185610de3565b821015610a0157506001600160a01b03909316815260066020908152828220938252928352819020549051908152f35b925163295f44f760e21b81526001600160a01b0390941692840192835260208301525081906040010390fd5b833461034c5761047f610a3f36610cf9565b91610e56565b5050346101e457816003193601126101e4576020906008549051908152f35b509034610192578060031936011261019257610a7e610cc8565b91602435610a8b81611251565b33151580610b2d575b80610b04575b610aee576001600160a01b039485169482918691167f8c5be1e5ebec7d5bd14f71427d1e84f3dd0314c0f7b2291e5b200ac8c7c3b9258880a48452602052822080546001600160a01b031916909117905580f35b835163a9fbf51f60e01b81523381850152602490fd5b506001600160a01b03811686526005602090815284872033885290528386205460ff1615610a9a565b506001600160a01b038116331415610a94565b503461019257602036600319011261019257918260209335610b6181611251565b50825283528190205490516001600160a01b039091168152f35b5050346101e457816003193601126101e457805190828054610b9c81610e1c565b808552906001908181169081156105bd5750600114610bc757505050610570826103b6940383610d2e565b94508180526020948583205b828410610bef57505050826103b694610570928201019461055e565b8054868501880152928601928101610bd3565b92505034610192576020366003190112610192573563ffffffff60e01b8116809103610192576020925063780e9d6360e01b8114908115610c45575b5015158152f35b6380ac58cd60e01b811491508115610c77575b8115610c66575b5038610c3e565b6301ffc9a760e01b14905038610c5f565b635b5e139f60e01b81149150610c58565b919082519283825260005b848110610cb4575050826000602080949584010152601f8019910116010190565b602081830181015184830182015201610c93565b600435906001600160a01b0382168203610cde57565b600080fd5b602435906001600160a01b0382168203610cde57565b6060906003190112610cde576001600160a01b03906004358281168103610cde57916024359081168103610cde579060443590565b90601f801991011681019081106001600160401b03821117610d4f57604052565b634e487b7160e01b600052604160045260246000fd5b6001600160401b038111610d4f57601f01601f191660200190565b929192610d8c82610d65565b91610d9a6040519384610d2e565b829481845281830111610cde578281602093846000960137010152565b600a546001600160a01b03163303610dcb57565b60405163118cdaa760e01b8152336004820152602490fd5b6001600160a01b03168015610e0357600052600360205260406000205490565b6040516322718ad960e21b815260006004820152602490fd5b90600182811c92168015610e4c575b6020831014610e3657565b634e487b7160e01b600052602260045260246000fd5b91607f1691610e2b565b6001600160a01b03828116939184156110e95760009483865260209560028752604096848883205416963315158061105b575b5087158015611028575b84845260038352898420805460010190558784526002835289842080546001600160a01b0319168617905587858a7fddf252ad1be2c89b69c2b068fc378daa952ba7f163c4a11628f55a4df523b3ef8780a415610fbc5760085487845260098352898420819055600160401b811015610fa8578761084e826001610f1a940160085561128c565b838803610f56575b505050501692838303610f355750505050565b6064945051926364283d7b60e01b8452600484015260248301526044820152fd5b610f5f90610de3565b600019810193908411610f945782916007918a9452600681528383208584528152878484205587835252205538808080610f22565b634e487b7160e01b83526011600452602483fd5b634e487b7160e01b84526041600452602484fd5b878414610f1a57610fcc88610de3565b878452600783528984205490898552600684528a852091818103611006575b5088855260078452848b812055845282528289812055610f1a565b8186528285528b862054818752808d8820558652600785528b86205538610feb565b600088815260046020526040902080546001600160a01b0319169055888452600383528984208054600019019055610e93565b806110a8575b1561106c5738610e89565b888789611089576024915190637e27328960e01b82526004820152fd5b905163177e802f60e01b81523360048201526024810191909152604490fd5b5033881480156110cd575b8061106157508683526004825233868a8520541614611061565b5087835260058252888320338452825260ff89842054166110b3565b604051633250574960e11b815260006004820152602490fd5b61110d838383610e56565b813b61111a575b50505050565b604051630a85bd0160e11b8082523360048301526001600160a01b03928316602483015260448201949094526080606482015260209592909116939092908390611168906084830190610c88565b039285816000958187895af1849181611211575b506111dc575050503d6000146111d4573d61119681610d65565b906111a46040519283610d2e565b81528091843d92013e5b805192836111cf57604051633250574960e11b815260048101849052602490fd5b019050fd5b5060606111ae565b919450915063ffffffff60e01b16036111f9575038808080611114565b60249060405190633250574960e11b82526004820152fd5b9091508681813d831161124a575b6112298183610d2e565b8101031261048257516001600160e01b03198116810361048257903861117c565b503d61121f565b6000818152600260205260409020546001600160a01b0316908115611274575090565b60249060405190637e27328960e01b82526004820152fd5b6008548110156112a757600860005260206000200190600090565b634e487b7160e01b600052603260045260246000fdfea2646970667358221220dd21fedfd5030ca675facaa5cbb978cf1d9a54ff570f77acb5d76e6c3e935dae64736f6c63430008140033",
  "linkReferences": {},
  "deployedLinkReferences": {}
}