{
  "_format": "hh-sol-artifact-1",
  "contractName": "ProtocolManagerTest",
  "sourceName": "contracts/test/ProtocolManagerTest.sol",
  "abi": [
    {
      "inputs": [],
      "name": "InvalidInitialization",
      "type": "error"
    },
    {
      "inputs": [],
      "name": "NotInitializing",
      "type": "error"
    },
    {
      "inputs": [
        {
          "internalType": "address",
          "name": "owner",
          "type": "address"
        }
      ],
      "name": "OwnableInvalidOwner",
      "type": "error"
    },
    {
      "inputs": [
        {
          "internalType": "address",
          "name": "account",
          "type": "address"
        }
      ],
      "name": "OwnableUnauthorizedAccount",
      "type": "error"
    },
    {
      "anonymous": false,
      "inputs": [
        {
          "indexed": false,
          "internalType": "uint64",
          "name": "version",
          "type": "uint64"
        }
      ],
      "name": "Initialized",
      "type": "event"
    },
    {
      "anonymous": false,
      "inputs": [
        {
          "indexed": true,
          "internalType": "uint128",
          "name": "newProtocolShare",
          "type": "uint128"
        }
      ],
      "name": "LogUpdatedProtocolShare",
      "type": "event"
    },
    {
      "anonymous": false,
      "inputs": [
        {
          "indexed": true,
          "internalType": "address",
          "name": "previousOwner",
          "type": "address"
        },
        {
          "indexed": true,
          "internalType": "address",
          "name": "newOwner",
          "type": "address"
        }
      ],
      "name": "OwnershipTransferred",
      "type": "event"
    },
    {
      "inputs": [
        {
          "internalType": "uint128",
          "name": "newProtocolFee",
          "type": "uint128"
        }
      ],
      "name": "initialize",
      "outputs": [],
      "stateMutability": "nonpayable",
      "type": "function"
    },
    {
      "inputs": [],
      "name": "owner",
      "outputs": [
        {
          "internalType": "address",
          "name": "",
          "type": "address"
        }
      ],
      "stateMutability": "view",
      "type": "function"
    },
    {
      "inputs": [],
      "name": "protocolShare",
      "outputs": [
        {
          "internalType": "uint128",
          "name": "",
          "type": "uint128"
        }
      ],
      "stateMutability": "view",
      "type": "function"
    },
    {
      "inputs": [],
      "name": "renounceOwnership",
      "outputs": [],
      "stateMutability": "nonpayable",
      "type": "function"
    },
    {
      "inputs": [
        {
          "internalType": "uint128",
          "name": "newProtocolShare",
          "type": "uint128"
        }
      ],
      "name": "setProtocolShare",
      "outputs": [],
      "stateMutability": "nonpayable",
      "type": "function"
    },
    {
      "inputs": [
        {
          "internalType": "address",
          "name": "newOwner",
          "type": "address"
        }
      ],
      "name": "transferOwnership",
      "outputs": [],
      "stateMutability": "nonpayable",
      "type": "function"
    }
  ],
  "bytecode": "0x608080604052346100165761053a908161001c8239f35b600080fdfe60806040908082526004908136101561001757600080fd5b600092833560e01c9182631103f315146103d25750816356db9ef114610203578163715018a614610196578163813e7c2a146100d85781638da5cb5b146100a2575063f2fde38b1461006857600080fd5b3461009e57602036600319011261009e57356001600160a01b038116810361009e5761009b906100966103f6565b61042f565b80f35b5080fd5b83903461009e578160031936011261009e576000805160206104e58339815191525490516001600160a01b039091168152602090f35b919050346101925760203660031901126101925780356001600160801b038116929083900361018e576101096103f6565b6103e8831161014b57505081546001600160801b031916811782557f0b52884d4590055c8791518c34458834f75feed662340ef0b5af2898e7a9be9f8280a280f35b906020606492519162461bcd60e51b8352820152601d60248201527f504d3a20657863656564206d61782070726f746f636f6c2073686172650000006044820152fd5b8380fd5b8280fd5b83346102005780600319360112610200576101af6103f6565b6000805160206104e583398151915280546001600160a01b0319811690915581906001600160a01b03167f8be0079c531659141344cd1fd0a4f28419497f9722a3daafe3b4186f6b6457e08280a380f35b80fd5b9050346101925760203660031901126101925781356001600160801b038116929083900361018e577ff0c57e16840df040f15088dc2f81fe391c3923bec73e23a9662efc9c229c6a009182549160ff83831c16159267ffffffffffffffff8116801590816103ca575b60011490816103c0575b1590816103b7575b506103a85767ffffffffffffffff198116600117855583610389575b506102a36104a3565b6102ab6104a3565b6102b36104a3565b6102bc3361042f565b6102c46104a3565b6103e88511610347575084546001600160801b0319168417855551927f0b52884d4590055c8791518c34458834f75feed662340ef0b5af2898e7a9be9f8580a261030c578280f35b805460ff60401b19169055600181527fc7f505b2f371ae2175ee4913f4499e1f2633a7b5936321eed1cdaeb6115181d290602090a138808280f35b6020606492519162461bcd60e51b8352820152601d60248201527f504d3a20657863656564206d61782070726f746f636f6c2073686172650000006044820152fd5b68ffffffffffffffffff1916680100000000000000011784553861029a565b50905163f92ee8a960e01b8152fd5b9050153861027e565b303b159150610276565b85915061026c565b84903461009e578160031936011261009e5790546001600160801b03168152602090f35b6000805160206104e5833981519152546001600160a01b0316330361041757565b60405163118cdaa760e01b8152336004820152602490fd5b6001600160a01b0390811690811561048a576000805160206104e583398151915280546001600160a01b031981168417909155167f8be0079c531659141344cd1fd0a4f28419497f9722a3daafe3b4186f6b6457e0600080a3565b604051631e4fbdf760e01b815260006004820152602490fd5b60ff7ff0c57e16840df040f15088dc2f81fe391c3923bec73e23a9662efc9c229c6a005460401c16156104d257565b604051631afcd79f60e31b8152600490fdfe9016d09d72d40fdae2fd8ceac6b6234c7706214fd39c1cd1e609a0528c199300a2646970667358221220911d7a43b41a8b057004070c660f52d8ccccf71867c60a57bd16a0f9014bf80364736f6c63430008140033",
  "linkReferences": {},
  "deployedLinkReferences": {}
}