{
  "_format": "hh-sol-artifact-1",
  "contractName": "Troll",
  "sourceName": "contracts/test/TestERC721A.sol",
  "abi": [
    {
      "inputs": [],
      "stateMutability": "nonpayable",
      "type": "constructor"
    },
    {
      "inputs": [],
      "name": "ApprovalCallerNotOwnerNorApproved",
      "type": "error"
    },
    {
      "inputs": [],
      "name": "ApprovalQueryForNonexistentToken",
      "type": "error"
    },
    {
      "inputs": [],
      "name": "BalanceQueryForZeroAddress",
      "type": "error"
    },
    {
      "inputs": [],
      "name": "MintERC2309QuantityExceedsLimit",
      "type": "error"
    },
    {
      "inputs": [],
      "name": "MintToZeroAddress",
      "type": "error"
    },
    {
      "inputs": [],
      "name": "MintZeroQuantity",
      "type": "error"
    },
    {
      "inputs": [],
      "name": "NotCompatibleWithSpotMints",
      "type": "error"
    },
    {
      "inputs": [
        {
          "internalType": "address",
          "name": "owner",
          "type": "address"
        }
      ],
      "name": "OwnableInvalidOwner",
      "type": "error"
    },
    {
      "inputs": [
        {
          "internalType": "address",
          "name": "account",
          "type": "address"
        }
      ],
      "name": "OwnableUnauthorizedAccount",
      "type": "error"
    },
    {
      "inputs": [],
      "name": "OwnerQueryForNonexistentToken",
      "type": "error"
    },
    {
      "inputs": [],
      "name": "OwnershipNotInitializedForExtraData",
      "type": "error"
    },
    {
      "inputs": [],
      "name": "ReentrancyGuardReentrantCall",
      "type": "error"
    },
    {
      "inputs": [],
      "name": "SequentialMintExceedsLimit",
      "type": "error"
    },
    {
      "inputs": [],
      "name": "SequentialUpToTooSmall",
      "type": "error"
    },
    {
      "inputs": [],
      "name": "SpotMintTokenIdTooSmall",
      "type": "error"
    },
    {
      "inputs": [],
      "name": "TokenAlreadyExists",
      "type": "error"
    },
    {
      "inputs": [],
      "name": "TransferCallerNotOwnerNorApproved",
      "type": "error"
    },
    {
      "inputs": [],
      "name": "TransferFromIncorrectOwner",
      "type": "error"
    },
    {
      "inputs": [],
      "name": "TransferToNonERC721ReceiverImplementer",
      "type": "error"
    },
    {
      "inputs": [],
      "name": "TransferToZeroAddress",
      "type": "error"
    },
    {
      "inputs": [],
      "name": "URIQueryForNonexistentToken",
      "type": "error"
    },
    {
      "anonymous": false,
      "inputs": [
        {
          "indexed": true,
          "internalType": "address",
          "name": "owner",
          "type": "address"
        },
        {
          "indexed": true,
          "internalType": "address",
          "name": "approved",
          "type": "address"
        },
        {
          "indexed": true,
          "internalType": "uint256",
          "name": "tokenId",
          "type": "uint256"
        }
      ],
      "name": "Approval",
      "type": "event"
    },
    {
      "anonymous": false,
      "inputs": [
        {
          "indexed": true,
          "internalType": "address",
          "name": "owner",
          "type": "address"
        },
        {
          "indexed": true,
          "internalType": "address",
          "name": "operator",
          "type": "address"
        },
        {
          "indexed": false,
          "internalType": "bool",
          "name": "approved",
          "type": "bool"
        }
      ],
      "name": "ApprovalForAll",
      "type": "event"
    },
    {
      "anonymous": false,
      "inputs": [
        {
          "indexed": true,
          "internalType": "uint256",
          "name": "fromTokenId",
          "type": "uint256"
        },
        {
          "indexed": false,
          "internalType": "uint256",
          "name": "toTokenId",
          "type": "uint256"
        },
        {
          "indexed": true,
          "internalType": "address",
          "name": "from",
          "type": "address"
        },
        {
          "indexed": true,
          "internalType": "address",
          "name": "to",
          "type": "address"
        }
      ],
      "name": "ConsecutiveTransfer",
      "type": "event"
    },
    {
      "anonymous": false,
      "inputs": [
        {
          "indexed": true,
          "internalType": "address",
          "name": "previousOwner",
          "type": "address"
        },
        {
          "indexed": true,
          "internalType": "address",
          "name": "newOwner",
          "type": "address"
        }
      ],
      "name": "OwnershipTransferred",
      "type": "event"
    },
    {
      "anonymous": false,
      "inputs": [
        {
          "indexed": true,
          "internalType": "address",
          "name": "from",
          "type": "address"
        },
        {
          "indexed": true,
          "internalType": "address",
          "name": "to",
          "type": "address"
        },
        {
          "indexed": true,
          "internalType": "uint256",
          "name": "tokenId",
          "type": "uint256"
        }
      ],
      "name": "Transfer",
      "type": "event"
    },
    {
      "inputs": [],
      "name": "MAX_SUPPLY",
      "outputs": [
        {
          "internalType": "uint256",
          "name": "",
          "type": "uint256"
        }
      ],
      "stateMutability": "view",
      "type": "function"
    },
    {
      "inputs": [],
      "name": "PER_MINT",
      "outputs": [
        {
          "internalType": "uint256",
          "name": "",
          "type": "uint256"
        }
      ],
      "stateMutability": "view",
      "type": "function"
    },
    {
      "inputs": [
        {
          "internalType": "address",
          "name": "to",
          "type": "address"
        },
        {
          "internalType": "uint256",
          "name": "tokenId",
          "type": "uint256"
        }
      ],
      "name": "approve",
      "outputs": [],
      "stateMutability": "payable",
      "type": "function"
    },
    {
      "inputs": [
        {
          "internalType": "address",
          "name": "owner",
          "type": "address"
        }
      ],
      "name": "balanceOf",
      "outputs": [
        {
          "internalType": "uint256",
          "name": "",
          "type": "uint256"
        }
      ],
      "stateMutability": "view",
      "type": "function"
    },
    {
      "inputs": [
        {
          "internalType": "uint256",
          "name": "tokenId",
          "type": "uint256"
        }
      ],
      "name": "getApproved",
      "outputs": [
        {
          "internalType": "address",
          "name": "",
          "type": "address"
        }
      ],
      "stateMutability": "view",
      "type": "function"
    },
    {
      "inputs": [
        {
          "internalType": "address",
          "name": "owner",
          "type": "address"
        },
        {
          "internalType": "address",
          "name": "operator",
          "type": "address"
        }
      ],
      "name": "isApprovedForAll",
      "outputs": [
        {
          "internalType": "bool",
          "name": "",
          "type": "bool"
        }
      ],
      "stateMutability": "view",
      "type": "function"
    },
    {
      "inputs": [
        {
          "internalType": "address",
          "name": "to",
          "type": "address"
        },
        {
          "internalType": "uint256",
          "name": "quantity",
          "type": "uint256"
        }
      ],
      "name": "mint",
      "outputs": [],
      "stateMutability": "nonpayable",
      "type": "function"
    },
    {
      "inputs": [],
      "name": "mintStatus",
      "outputs": [
        {
          "internalType": "bool",
          "name": "",
          "type": "bool"
        }
      ],
      "stateMutability": "view",
      "type": "function"
    },
    {
      "inputs": [],
      "name": "name",
      "outputs": [
        {
          "internalType": "string",
          "name": "",
          "type": "string"
        }
      ],
      "stateMutability": "view",
      "type": "function"
    },
    {
      "inputs": [],
      "name": "owner",
      "outputs": [
        {
          "internalType": "address",
          "name": "",
          "type": "address"
        }
      ],
      "stateMutability": "view",
      "type": "function"
    },
    {
      "inputs": [
        {
          "internalType": "uint256",
          "name": "tokenId",
          "type": "uint256"
        }
      ],
      "name": "ownerOf",
      "outputs": [
        {
          "internalType": "address",
          "name": "",
          "type": "address"
        }
      ],
      "stateMutability": "view",
      "type": "function"
    },
    {
      "inputs": [],
      "name": "renounceOwnership",
      "outputs": [],
      "stateMutability": "nonpayable",
      "type": "function"
    },
    {
      "inputs": [
        {
          "internalType": "address",
          "name": "from",
          "type": "address"
        },
        {
          "internalType": "address",
          "name": "to",
          "type": "address"
        },
        {
          "internalType": "uint256",
          "name": "tokenId",
          "type": "uint256"
        }
      ],
      "name": "safeTransferFrom",
      "outputs": [],
      "stateMutability": "payable",
      "type": "function"
    },
    {
      "inputs": [
        {
          "internalType": "address",
          "name": "from",
          "type": "address"
        },
        {
          "internalType": "address",
          "name": "to",
          "type": "address"
        },
        {
          "internalType": "uint256",
          "name": "tokenId",
          "type": "uint256"
        },
        {
          "internalType": "bytes",
          "name": "_data",
          "type": "bytes"
        }
      ],
      "name": "safeTransferFrom",
      "outputs": [],
      "stateMutability": "payable",
      "type": "function"
    },
    {
      "inputs": [
        {
          "internalType": "address",
          "name": "operator",
          "type": "address"
        },
        {
          "internalType": "bool",
          "name": "approved",
          "type": "bool"
        }
      ],
      "name": "setApprovalForAll",
      "outputs": [],
      "stateMutability": "nonpayable",
      "type": "function"
    },
    {
      "inputs": [
        {
          "internalType": "bool",
          "name": "status",
          "type": "bool"
        }
      ],
      "name": "setMintStatus",
      "outputs": [],
      "stateMutability": "nonpayable",
      "type": "function"
    },
    {
      "inputs": [
        {
          "internalType": "string",
          "name": "tokenURI_",
          "type": "string"
        }
      ],
      "name": "setTokenURI",
      "outputs": [],
      "stateMutability": "nonpayable",
      "type": "function"
    },
    {
      "inputs": [
        {
          "internalType": "bytes4",
          "name": "interfaceId",
          "type": "bytes4"
        }
      ],
      "name": "supportsInterface",
      "outputs": [
        {
          "internalType": "bool",
          "name": "",
          "type": "bool"
        }
      ],
      "stateMutability": "view",
      "type": "function"
    },
    {
      "inputs": [],
      "name": "symbol",
      "outputs": [
        {
          "internalType": "string",
          "name": "",
          "type": "string"
        }
      ],
      "stateMutability": "view",
      "type": "function"
    },
    {
      "inputs": [
        {
          "internalType": "uint256",
          "name": "tokenId",
          "type": "uint256"
        }
      ],
      "name": "tokenURI",
      "outputs": [
        {
          "internalType": "string",
          "name": "",
          "type": "string"
        }
      ],
      "stateMutability": "view",
      "type": "function"
    },
    {
      "inputs": [],
      "name": "totalSupply",
      "outputs": [
        {
          "internalType": "uint256",
          "name": "result",
          "type": "uint256"
        }
      ],
      "stateMutability": "view",
      "type": "function"
    },
    {
      "inputs": [
        {
          "internalType": "address",
          "name": "from",
          "type": "address"
        },
        {
          "internalType": "address",
          "name": "to",
          "type": "address"
        },
        {
          "internalType": "uint256",
          "name": "tokenId",
          "type": "uint256"
        }
      ],
      "name": "transferFrom",
      "outputs": [],
      "stateMutability": "payable",
      "type": "function"
    },
    {
      "inputs": [
        {
          "internalType": "address",
          "name": "newOwner",
          "type": "address"
        }
      ],
      "name": "transferOwnership",
      "outputs": [],
      "stateMutability": "nonpayable",
      "type": "function"
    },
    {
      "inputs": [],
      "name": "withdrawETH",
      "outputs": [],
      "stateMutability": "nonpayable",
      "type": "function"
    },
    {
      "stateMutability": "payable",
      "type": "receive"
    }
  ],
  "bytecode": "0x6080604052346200016f57620000146200018a565b6200001e6200018a565b81516001600160401b0381116200016957620000478162000041600254620001bc565b620001f9565b602080601f8311600114620000d8575081906200008294600092620000cc575b50508160011b916000199060031b1c191617600255620002ab565b600080553315620000b35762000098336200039e565b620000a36001600a55565b60405161145d9081620003e88239f35b604051631e4fbdf760e01b815260006004820152602490fd5b01519050388062000067565b60026000529193601f1985167f405787fa12a823e0f2b7631cc41b3ba8828b3321ca811111fa75cd3aa3bb5ace936000905b828210620001505750509160019391866200008297941062000136575b505050811b01600255620002ab565b015160001960f88460031b161c1916905538808062000127565b806001869782949787015181550196019401906200010a565b62000174565b600080fd5b634e487b7160e01b600052604160045260246000fd5b60408051919082016001600160401b0381118382101762000169576040526005825264151c9bdb1b60da1b6020830152565b90600182811c92168015620001ee575b6020831014620001d857565b634e487b7160e01b600052602260045260246000fd5b91607f1691620001cc565b601f811162000206575050565b6000906002825260208220906020601f850160051c8301941062000247575b601f0160051c01915b8281106200023b57505050565b8181556001016200022e565b909250829062000225565b601f81116200025f575050565b6000906003825260208220906020601f850160051c83019410620002a0575b601f0160051c01915b8281106200029457505050565b81815560010162000287565b90925082906200027e565b80519091906001600160401b0381116200016957620002d781620002d1600354620001bc565b62000252565b602080601f83116001146200031657508192936000926200030a575b50508160011b916000199060031b1c191617600355565b015190503880620002f3565b6003600052601f198316949091907fc2575a0e9e593c00f959f8c92f12db2869c3395a3b0502d05e2516446f71f85b926000905b878210620003855750508360019596106200036b575b505050811b01600355565b015160001960f88460031b161c1916905538808062000360565b806001859682949686015181550195019301906200034a565b600980546001600160a01b039283166001600160a01b0319821681179092559091167f8be0079c531659141344cd1fd0a4f28419497f9722a3daafe3b4186f6b6457e0600080a356fe6080604052600436101561001b575b361561001957600080fd5b005b60003560e01c806301ffc9a71461019b57806306fdde0314610196578063081812fc14610191578063095ea7b31461018c57806318160ddd146101875780631f85e3ca1461018257806323b872dd1461017d57806332cb6b0c1461017857806340c10f191461017357806342842e0e1461016e5780636352211e1461016957806370a0823114610164578063715018a61461015f5780638da5cb5b1461015a57806395d89b41146101555780639da3f8fd14610150578063a22cb4651461014b578063b88d4fde14610146578063c637b6e514610141578063c87b56dd1461013c578063e086e5ec14610137578063e0df5b6f14610132578063e985e9c51461012d5763f2fde38b0361000e57610c82565b610c31565b610b05565b610a9b565b61098c565b610970565b6108ed565b6107f9565b6107d6565b610732565b610709565b6106ab565b610651565b610622565b6105ff565b610547565b61052a565b610518565b6104aa565b610487565b6103d8565b610359565b610279565b6101b7565b6001600160e01b03198116036101b257565b600080fd5b346101b25760203660031901126101b25760206004356101d6816101a0565b63ffffffff60e01b166301ffc9a760e01b8114908115610214575b8115610203575b506040519015158152f35b635b5e139f60e01b149050386101f8565b6380ac58cd60e01b811491506101f1565b919082519283825260005b848110610251575050826000602080949584010152601f8019910116010190565b602081830181015184830182015201610230565b906020610276928181520190610225565b90565b346101b257600080600319360112610356576040518160025461029b81610de4565b8084529060019081811690811561032e57506001146102d5575b6102d1846102c5818803826108b1565b60405191829182610265565b0390f35b60028352602094507f405787fa12a823e0f2b7631cc41b3ba8828b3321ca811111fa75cd3aa3bb5ace5b82841061031b57505050816102d1936102c592820101936102b5565b80548585018701529285019281016102ff565b6102d196506102c59450602092508593915060ff191682840152151560051b820101936102b5565b80fd5b346101b25760203660031901126101b25760043561037681610f5e565b1561039b576000526006602052602060018060a01b0360406000205416604051908152f35b6333d1c03960e21b60005260046000fd5b600435906001600160a01b03821682036101b257565b602435906001600160a01b03821682036101b257565b60403660031901126101b2576103ec6103ac565b6001600160a01b0390602435908261040383610ed3565b16803303610457575b600083815260066020526040812080546001600160a01b031916939095169283179094557f8c5be1e5ebec7d5bd14f71427d1e84f3dd0314c0f7b2291e5b200ac8c7c3b9258480a480f35b80600052600760205260ff610470336040600020610ebc565b541661040c576367d9dca160e11b60005260046000fd5b346101b25760003660031901126101b25760206000546001549003604051908152f35b346101b25760203660031901126101b2576004358015158091036101b2576104d0610d0a565b60ff8019600c5416911617600c55600080f35b60609060031901126101b2576001600160a01b039060043582811681036101b2579160243590811681036101b2579060443590565b610019610524366104e3565b91610fa1565b346101b25760003660031901126101b25760206040516107e88152f35b346101b25760403660031901126101b2576105606103ac565b6024356002600a54146105ed576002600a5560ff600c5416156105b6576105ac9161059a6107e861059384600054610d4c565b1115610d5e565b6105a76004831115610da6565b61128a565b6100196001600a55565b60405162461bcd60e51b815260206004820152600f60248201526e139bdd081e595d081cdd185c9d1959608a1b6044820152606490fd5b604051633ee5aeb560e01b8152600490fd5b61001961060b366104e3565b906040519261061984610891565b60008452611114565b346101b25760203660031901126101b25760206001600160a01b03610648600435610ed3565b16604051908152f35b346101b25760203660031901126101b2576001600160a01b036106726103ac565b16801561069a57600052600560205260206001600160401b0360406000205416604051908152f35b6323d3ad8160e21b60005260046000fd5b346101b257600080600319360112610356576106c5610d0a565b600980546001600160a01b0319811690915581906001600160a01b03167f8be0079c531659141344cd1fd0a4f28419497f9722a3daafe3b4186f6b6457e08280a380f35b346101b25760003660031901126101b2576009546040516001600160a01b039091168152602090f35b346101b257600080600319360112610356576040518160035461075481610de4565b8084529060019081811690811561032e575060011461077d576102d1846102c5818803826108b1565b60038352602094507fc2575a0e9e593c00f959f8c92f12db2869c3395a3b0502d05e2516446f71f85b5b8284106107c357505050816102d1936102c592820101936102b5565b80548585018701529285019281016107a7565b346101b25760003660031901126101b257602060ff600c54166040519015158152f35b346101b25760403660031901126101b2576108126103ac565b602435908115158092036101b257336000526007602052610837816040600020610ebc565b60ff1981541660ff841617905560405191825260018060a01b0316907f17307eab39ab6107e8899845ad3d59bd9653f200f220920489ca2b5937696c3160203392a3005b634e487b7160e01b600052604160045260246000fd5b602081019081106001600160401b038211176108ac57604052565b61087b565b90601f801991011681019081106001600160401b038211176108ac57604052565b6001600160401b0381116108ac57601f01601f191660200190565b60803660031901126101b2576109016103ac565b6109096103c2565b606435916001600160401b0383116101b257366023840112156101b257826004013591610935836108d2565b9261094360405194856108b1565b80845236602482870101116101b25760208160009260246100199801838801378501015260443591611114565b346101b25760003660031901126101b257602060405160048152f35b346101b2576020806003193601126101b2576109a9600435610f5e565b15610a4957604051600091600b546109c081610de4565b80845290600190818116908115610a2957506001146109e9576102d1846102c5818803826108b1565b919350600b60005283600020916000925b828410610a1657505050816102d1936102c592820101936102b5565b80548585018701529285019281016109fa565b60ff1916858501525050151560051b82010191506102c5816102d16102b5565b6084906040519062461bcd60e51b82526004820152602560248201527f54686520656e6572677920686173206e6f7420796574206265656e20636f6c6c6044820152641958dd195960da1b6064820152fd5b346101b25760008060031936011261035657610ab5610d0a565b8080808047335af1610ac5610e72565b5015610ace5780f35b60405162461bcd60e51b815260206004820152600f60248201526e1dda5d1a191c985dc819985a5b1959608a1b6044820152606490fd5b346101b2576020806003193601126101b2576001600160401b036004358181116101b257366023820112156101b25780600401359182116101b257602490368284830101116101b257610b56610d0a565b610b6a83610b65600b54610de4565b610e1e565b600093601f8411600114610bab5750928293600093610b9e575b505050600019600383901b1c191660019190911b17600b55005b0101359050388080610b84565b600b600052601f198416947f0175b7a638427703f0dbe7bb9bbf987a2551717b34e79f33b5b1008d1fa01db9939181905b878210610c175750508460019610610bfb575b50505050811b01600b55005b60001960f88660031b161c199201013516905538808080610bef565b806001849786839596890101358155019601920190610bdc565b346101b25760403660031901126101b257602060ff610c76610c516103ac565b610c596103c2565b6001600160a01b0390911660009081526007855260409020610ebc565b54166040519015158152f35b346101b25760203660031901126101b257610c9b6103ac565b610ca3610d0a565b6001600160a01b03908116908115610cf157600980546001600160a01b031981168417909155167f8be0079c531659141344cd1fd0a4f28419497f9722a3daafe3b4186f6b6457e0600080a3005b604051631e4fbdf760e01b815260006004820152602490fd5b6009546001600160a01b03163303610d1e57565b60405163118cdaa760e01b8152336004820152602490fd5b634e487b7160e01b600052601160045260246000fd5b91908201809211610d5957565b610d36565b15610d6557565b60405162461bcd60e51b8152602060048201526019602482015278115e18d95959081d1a19481b585e1a5b5d5b48185b5bdd5b9d603a1b6044820152606490fd5b15610dad57565b60405162461bcd60e51b815260206004820152600f60248201526e115e18d95959081c195c881b5a5b9d608a1b6044820152606490fd5b90600182811c92168015610e14575b6020831014610dfe57565b634e487b7160e01b600052602260045260246000fd5b91607f1691610df3565b601f8111610e2a575050565b600090600b825260208220906020601f850160051c83019410610e68575b601f0160051c01915b828110610e5d57505050565b818155600101610e51565b9092508290610e48565b3d15610e9d573d90610e83826108d2565b91610e9160405193846108b1565b82523d6000602084013e565b606090565b6001600160a01b0316600090815260056020526040902090565b9060018060a01b0316600052602052604060002090565b610ee7816000526004602052604060002090565b54908115610efe5750600160e01b81166113c35790565b90506000908154811015610f4f575b60001901600081815260046020526040902054908115610f485750600160e01b811615610f4357636f96cda160e11b8252600482fd5b905090565b9050610f0d565b636f96cda160e11b8252600482fd5b90600091600080548210610f70575050565b92505b8083526004602052604083205480610f9557508015610d595760001901610f73565b600160e01b1615925050565b919091610fad82610ed3565b6001600160a01b039182169390919081831685900361110f5760008481526006602052604090208054610ff36001600160a01b03881633908114908314171590565b1590565b6110d3575b6110c9575b5061100785610ea2565b805460001901905561101881610ea2565b8054600101905516928391600160e11b804260a01b851717611044866000526004602052604060002090565b5581161561107f575b507fddf252ad1be2c89b69c2b068fc378daa952ba7f163c4a11628f55a4df523b3ef600080a41561107a57565b6113f5565b60018401611097816000526004602052604060002090565b54156110a4575b5061104d565b600054811461109e576110c1906000526004602052604060002090565b55388061109e565b6000905538610ffd565b611105610fef6110fe336110f98b60018060a01b03166000526007602052604060002090565b610ebc565b5460ff1690565b15610ff8576113e4565b6113d4565b929190611122828286610fa1565b803b61112f575b50505050565b61113893611261565b156111465738808080611129565b6368d2bf6b60e11b60005260046000fd5b908160209103126101b25751610276816101a0565b610276939260809260018060a01b031682526000602083015260408201528160608201520190610225565b6001600160a01b03918216815291166020820152604081019190915260806060820181905261027692910190610225565b6111f160209160009394604051948580948193630a85bd0160e11b998a8452336004850161116c565b03926001600160a01b03165af160009181611231575b5061122357611214610e72565b80511561114657805190602001fd5b6001600160e01b0319161490565b61125391925060203d811161125a575b61124b81836108b1565b810190611157565b9038611207565b503d611241565b926020916111f1936000604051809681958294630a85bd0160e11b9a8b85523360048601611197565b60405161129681610891565b60009283825283549281156113be576000848152600460205260409020600192906001600160a01b038316904260a01b83861460e11b17821790556112da83610ea2565b680100000000000000018302815401905580156113b95781860195908480805b61136a575b50505050848655813b611315575b505050505050565b84039180805b611336575b505050505081540361035657808080808061130d565b1561135d575b8561134e610fef8684870196866111c8565b611358578161131b565b611146565b84831061133c5780611320565b156113a1575b50878583838b7fddf252ad1be2c89b69c2b068fc378daa952ba7f163c4a11628f55a4df523b3ef8180a490816112fa565b909101908682146113b25784611370565b84816112ff565b611417565b611406565b636f96cda160e11b60005260046000fd5b62a1148160e81b60005260046000fd5b632ce44b5f60e11b60005260046000fd5b633a954ecd60e21b60005260046000fd5b63b562e8dd60e01b60005260046000fd5b622e076360e81b60005260046000fdfea2646970667358221220e3c6b1a862d0710afdf5bb01a67b12a589c39802871d55ffcf6e25de71e68f3864736f6c63430008140033",
  "linkReferences": {},
  "deployedLinkReferences": {}
}