{
  "_format": "hh-sol-artifact-1",
  "contractName": "BscPledgeOracle",
  "sourceName": "contracts/pledge/BscPledgeOracle.sol",
  "abi": [
    {
      "inputs": [
        {
          "internalType": "address",
          "name": "multiSignature",
          "type": "address"
        }
      ],
      "stateMutability": "nonpayable",
      "type": "constructor"
    },
    {
      "inputs": [
        {
          "internalType": "address",
          "name": "asset",
          "type": "address"
        }
      ],
      "name": "getAssetsAggregator",
      "outputs": [
        {
          "internalType": "address",
          "name": "",
          "type": "address"
        },
        {
          "internalType": "uint256",
          "name": "",
          "type": "uint256"
        }
      ],
      "stateMutability": "view",
      "type": "function"
    },
    {
      "inputs": [],
      "name": "getMultiSignatureAddress",
      "outputs": [
        {
          "internalType": "address",
          "name": "",
          "type": "address"
        }
      ],
      "stateMutability": "view",
      "type": "function"
    },
    {
      "inputs": [
        {
          "internalType": "address",
          "name": "asset",
          "type": "address"
        }
      ],
      "name": "getPrice",
      "outputs": [
        {
          "internalType": "uint256",
          "name": "",
          "type": "uint256"
        }
      ],
      "stateMutability": "view",
      "type": "function"
    },
    {
      "inputs": [
        {
          "internalType": "uint256[]",
          "name": "assets",
          "type": "uint256[]"
        }
      ],
      "name": "getPrices",
      "outputs": [
        {
          "internalType": "uint256[]",
          "name": "",
          "type": "uint256[]"
        }
      ],
      "stateMutability": "view",
      "type": "function"
    },
    {
      "inputs": [
        {
          "internalType": "uint256",
          "name": "underlying",
          "type": "uint256"
        }
      ],
      "name": "getUnderlyingAggregator",
      "outputs": [
        {
          "internalType": "address",
          "name": "",
          "type": "address"
        },
        {
          "internalType": "uint256",
          "name": "",
          "type": "uint256"
        }
      ],
      "stateMutability": "view",
      "type": "function"
    },
    {
      "inputs": [
        {
          "internalType": "uint256",
          "name": "underlying",
          "type": "uint256"
        }
      ],
      "name": "getUnderlyingPrice",
      "outputs": [
        {
          "internalType": "uint256",
          "name": "",
          "type": "uint256"
        }
      ],
      "stateMutability": "view",
      "type": "function"
    },
    {
      "inputs": [
        {
          "internalType": "address",
          "name": "asset",
          "type": "address"
        },
        {
          "internalType": "address",
          "name": "aggergator",
          "type": "address"
        },
        {
          "internalType": "uint256",
          "name": "_decimals",
          "type": "uint256"
        }
      ],
      "name": "setAssetsAggregator",
      "outputs": [],
      "stateMutability": "nonpayable",
      "type": "function"
    },
    {
      "inputs": [
        {
          "internalType": "uint256",
          "name": "newDecimals",
          "type": "uint256"
        }
      ],
      "name": "setDecimals",
      "outputs": [],
      "stateMutability": "nonpayable",
      "type": "function"
    },
    {
      "inputs": [
        {
          "internalType": "address",
          "name": "asset",
          "type": "address"
        },
        {
          "internalType": "uint256",
          "name": "price",
          "type": "uint256"
        }
      ],
      "name": "setPrice",
      "outputs": [],
      "stateMutability": "nonpayable",
      "type": "function"
    },
    {
      "inputs": [
        {
          "internalType": "uint256[]",
          "name": "assets",
          "type": "uint256[]"
        },
        {
          "internalType": "uint256[]",
          "name": "prices",
          "type": "uint256[]"
        }
      ],
      "name": "setPrices",
      "outputs": [],
      "stateMutability": "nonpayable",
      "type": "function"
    },
    {
      "inputs": [
        {
          "internalType": "uint256",
          "name": "underlying",
          "type": "uint256"
        },
        {
          "internalType": "address",
          "name": "aggergator",
          "type": "address"
        },
        {
          "internalType": "uint256",
          "name": "_decimals",
          "type": "uint256"
        }
      ],
      "name": "setUnderlyingAggregator",
      "outputs": [],
      "stateMutability": "nonpayable",
      "type": "function"
    },
    {
      "inputs": [
        {
          "internalType": "uint256",
          "name": "underlying",
          "type": "uint256"
        },
        {
          "internalType": "uint256",
          "name": "price",
          "type": "uint256"
        }
      ],
      "name": "setUnderlyingPrice",
      "outputs": [],
      "stateMutability": "nonpayable",
      "type": "function"
    }
  ],
  "bytecode": "0x6080604052600160035534801561001557600080fd5b50604051610b45380380610b458339818101604052602081101561003857600080fd5b5051806001600160a01b0381166100805760405162461bcd60e51b8152600401808060200182810382526043815260200180610b026043913960600191505060405180910390fd5b6100b37f8dddb57468cf5338ee155397ad1400a7a564308824f517d20a8a7c516523bb476001600160a01b0383166100ba565b50506100be565b9055565b610a35806100cd6000396000f3fe608060405234801561001057600080fd5b50600436106100a35760003560e01c8062e4768b146100a857806309cb3a4e146100d657806341976e09146101c7578063434b33ac146101ff578063638c7e171461023157806375e443aa1461025557806383532667146102955780638c8885c8146102b8578063b889a989146102d5578063cd9ffa0b146102fb578063d05eaae014610331578063da66325714610454575b600080fd5b6100d4600480360360408110156100be57600080fd5b506001600160a01b038135169060200135610471565b005b610177600480360360208110156100ec57600080fd5b810190602081018135600160201b81111561010657600080fd5b82018360208201111561011857600080fd5b803590602001918460208302840111600160201b8311171561013957600080fd5b919080806020026020016040519081016040528093929190818152602001838360200280828437600092019190915250929550610495945050505050565b60408051602080825283518183015283519192839290830191858101910280838360005b838110156101b357818101518382015260200161019b565b505050509050019250505060405180910390f35b6101ed600480360360208110156101dd57600080fd5b50356001600160a01b031661052e565b60408051918252519081900360200190f35b6100d46004803603606081101561021557600080fd5b508035906001600160a01b036020820135169060400135610548565b6102396105d8565b604080516001600160a01b039092168252519081900360200190f35b6102726004803603602081101561026b57600080fd5b5035610608565b604080516001600160a01b03909316835260208301919091528051918290030190f35b6100d4600480360360408110156102ab57600080fd5b508035906020013561062f565b6100d4600480360360208110156102ce57600080fd5b503561069a565b610272600480360360208110156102eb57600080fd5b50356001600160a01b03166106a7565b6100d46004803603606081101561031157600080fd5b506001600160a01b038135811691602081013590911690604001356106d0565b6100d46004803603604081101561034757600080fd5b810190602081018135600160201b81111561036157600080fd5b82018360208201111561037357600080fd5b803590602001918460208302840111600160201b8311171561039457600080fd5b9190808060200260200160405190810160405280939291908181526020018383602002808284376000920191909152509295949360208101935035915050600160201b8111156103e357600080fd5b8201836020820111156103f557600080fd5b803590602001918460208302840111600160201b8311171561041657600080fd5b919080806020026020016040519081016040528093929190818152602001838360200280828437600092019190915250929550610713945050505050565b6101ed6004803603602081101561046a57600080fd5b503561079e565b6104796108b1565b6001600160a01b03909116600090815260026020526040902055565b805160609081816001600160401b03811180156104b157600080fd5b506040519080825280602002602001820160405280156104db578160200160208202803683370190505b50905060005b82811015610524576105058582815181106104f857fe5b602002602001015161079e565b82828151811061051157fe5b60209081029190910101526001016104e1565b509150505b919050565b6000610542826001600160a01b031661079e565b92915050565b6105506108b1565b600083116105a1576040805162461bcd60e51b8152602060048201526019602482015278756e6465726c79696e672063616e6e6f74206265207a65726f60381b604482015290519081900360640190fd5b60009283526020838152604080852080546001600160a01b0319166001600160a01b03959095169490941790935560019052912055565b60006106037f8dddb57468cf5338ee155397ad1400a7a564308824f517d20a8a7c516523bb476109ab565b905090565b600090815260208181526040808320546001909252909120546001600160a01b0390911691565b6106376108b1565b60008211610688576040805162461bcd60e51b8152602060048201526019602482015278756e6465726c79696e672063616e6e6f74206265207a65726f60381b604482015290519081900360640190fd5b60009182526002602052604090912055565b6106a26108b1565b600355565b6001600160a01b0390811660009081526020818152604080832054600190925290912054911691565b6106d86108b1565b6001600160a01b0392831660009081526020818152604080832080546001600160a01b03191695909616949094179094556001909352912055565b61071b6108b1565b805182511461075b5760405162461bcd60e51b81526004018080602001828103825260228152602001806109de6022913960400191505060405180910390fd5b815160005b818110156107985782818151811061077457fe5b60209081029190910181015160008381526002909252604090912055600101610760565b50505050565b6000818152602081905260408120546001600160a01b0316801561089b576000816001600160a01b031663feaf968c6040518163ffffffff1660e01b815260040160a06040518083038186803b1580156107f757600080fd5b505afa15801561080b573d6000803e3d6000fd5b505050506040513d60a081101561082157600080fd5b506020908101516000868152600190925260409091205490915060128110156108625780601203600a0a600354838161085657fe5b04029350505050610529565b60128111156108905780601203600a0a600354838161087d57fe5b048161088557fe5b049350505050610529565b600354828161088557fe5b5050600081815260026020526040902054610529565b6040805133606090811b6020808401919091523090911b60348301528251602881840301815260489092019092528051910120349060006108f06105d8565b90506000816001600160a01b0316631ebaa1668460006040518363ffffffff1660e01b8152600401808381526020018281526020019250505060206040518083038186803b15801561094157600080fd5b505afa158015610955573d6000803e3d6000fd5b505050506040513d602081101561096b57600080fd5b50519050806107985760405162461bcd60e51b815260040180806020018281038252602e8152602001806109b0602e913960400191505060405180910390fd5b549056fe6d756c74695369676e6174757265436c69656e74203a2054686973207478206973206e6f7420617072726f766564696e7075742061727261797327206c656e67746820617265206e6f7420657175616ca2646970667358221220c42cfafabf9f37cf94194ad38d0e28c32afea5421bb2aa8c8f627804912a7aa864736f6c634300060c00336d756c74695369676e6174757265436c69656e74203a204d756c7469706c65207369676e617475726520636f6e74726163742061646472657373206973207a65726f21",
  "linkReferences": {},
  "deployedLinkReferences": {}
}