{
  "_format": "hh-sol-artifact-1",
  "contractName": "multiSignature",
  "sourceName": "contracts/multiSignature/multiSignature.sol",
  "abi": [
    {
      "inputs": [
        {
          "internalType": "address[]",
          "name": "owners",
          "type": "address[]"
        },
        {
          "internalType": "uint256",
          "name": "limitedSignNum",
          "type": "uint256"
        }
      ],
      "stateMutability": "nonpayable",
      "type": "constructor"
    },
    {
      "anonymous": false,
      "inputs": [
        {
          "indexed": true,
          "internalType": "address",
          "name": "from",
          "type": "address"
        },
        {
          "indexed": true,
          "internalType": "address",
          "name": "to",
          "type": "address"
        },
        {
          "indexed": true,
          "internalType": "bytes32",
          "name": "msgHash",
          "type": "bytes32"
        }
      ],
      "name": "CreateApplication",
      "type": "event"
    },
    {
      "anonymous": false,
      "inputs": [
        {
          "indexed": true,
          "internalType": "address",
          "name": "from",
          "type": "address"
        },
        {
          "indexed": true,
          "internalType": "bytes32",
          "name": "msgHash",
          "type": "bytes32"
        },
        {
          "indexed": false,
          "internalType": "uint256",
          "name": "index",
          "type": "uint256"
        }
      ],
      "name": "RevokeApplication",
      "type": "event"
    },
    {
      "anonymous": false,
      "inputs": [
        {
          "indexed": true,
          "internalType": "address",
          "name": "from",
          "type": "address"
        },
        {
          "indexed": true,
          "internalType": "bytes32",
          "name": "msgHash",
          "type": "bytes32"
        },
        {
          "indexed": false,
          "internalType": "uint256",
          "name": "index",
          "type": "uint256"
        }
      ],
      "name": "SignApplication",
      "type": "event"
    },
    {
      "anonymous": false,
      "inputs": [
        {
          "indexed": true,
          "internalType": "address",
          "name": "sender",
          "type": "address"
        },
        {
          "indexed": true,
          "internalType": "address",
          "name": "oldOwner",
          "type": "address"
        },
        {
          "indexed": true,
          "internalType": "address",
          "name": "newOwner",
          "type": "address"
        }
      ],
      "name": "TransferOwner",
      "type": "event"
    },
    {
      "inputs": [
        {
          "internalType": "address",
          "name": "to",
          "type": "address"
        }
      ],
      "name": "createApplication",
      "outputs": [
        {
          "internalType": "uint256",
          "name": "",
          "type": "uint256"
        }
      ],
      "stateMutability": "nonpayable",
      "type": "function"
    },
    {
      "inputs": [
        {
          "internalType": "bytes32",
          "name": "msghash",
          "type": "bytes32"
        }
      ],
      "name": "getApplicationCount",
      "outputs": [
        {
          "internalType": "uint256",
          "name": "",
          "type": "uint256"
        }
      ],
      "stateMutability": "view",
      "type": "function"
    },
    {
      "inputs": [
        {
          "internalType": "address",
          "name": "from",
          "type": "address"
        },
        {
          "internalType": "address",
          "name": "to",
          "type": "address"
        }
      ],
      "name": "getApplicationHash",
      "outputs": [
        {
          "internalType": "bytes32",
          "name": "",
          "type": "bytes32"
        }
      ],
      "stateMutability": "pure",
      "type": "function"
    },
    {
      "inputs": [
        {
          "internalType": "bytes32",
          "name": "msghash",
          "type": "bytes32"
        },
        {
          "internalType": "uint256",
          "name": "index",
          "type": "uint256"
        }
      ],
      "name": "getApplicationInfo",
      "outputs": [
        {
          "internalType": "address",
          "name": "",
          "type": "address"
        },
        {
          "internalType": "address[]",
          "name": "",
          "type": "address[]"
        }
      ],
      "stateMutability": "view",
      "type": "function"
    },
    {
      "inputs": [],
      "name": "getMultiSignatureAddress",
      "outputs": [
        {
          "internalType": "address",
          "name": "",
          "type": "address"
        }
      ],
      "stateMutability": "view",
      "type": "function"
    },
    {
      "inputs": [
        {
          "internalType": "bytes32",
          "name": "msghash",
          "type": "bytes32"
        },
        {
          "internalType": "uint256",
          "name": "lastIndex",
          "type": "uint256"
        }
      ],
      "name": "getValidSignature",
      "outputs": [
        {
          "internalType": "uint256",
          "name": "",
          "type": "uint256"
        }
      ],
      "stateMutability": "view",
      "type": "function"
    },
    {
      "inputs": [
        {
          "internalType": "bytes32",
          "name": "msghash",
          "type": "bytes32"
        }
      ],
      "name": "revokeSignApplication",
      "outputs": [],
      "stateMutability": "nonpayable",
      "type": "function"
    },
    {
      "inputs": [
        {
          "internalType": "bytes32",
          "name": "msghash",
          "type": "bytes32"
        }
      ],
      "name": "signApplication",
      "outputs": [],
      "stateMutability": "nonpayable",
      "type": "function"
    },
    {
      "inputs": [
        {
          "internalType": "bytes32",
          "name": "",
          "type": "bytes32"
        },
        {
          "internalType": "uint256",
          "name": "",
          "type": "uint256"
        }
      ],
      "name": "signatureMap",
      "outputs": [
        {
          "internalType": "address",
          "name": "applicant",
          "type": "address"
        }
      ],
      "stateMutability": "view",
      "type": "function"
    },
    {
      "inputs": [
        {
          "internalType": "uint256",
          "name": "",
          "type": "uint256"
        }
      ],
      "name": "signatureOwners",
      "outputs": [
        {
          "internalType": "address",
          "name": "",
          "type": "address"
        }
      ],
      "stateMutability": "view",
      "type": "function"
    },
    {
      "inputs": [],
      "name": "threshold",
      "outputs": [
        {
          "internalType": "uint256",
          "name": "",
          "type": "uint256"
        }
      ],
      "stateMutability": "view",
      "type": "function"
    },
    {
      "inputs": [
        {
          "internalType": "uint256",
          "name": "index",
          "type": "uint256"
        },
        {
          "internalType": "address",
          "name": "newOwner",
          "type": "address"
        }
      ],
      "name": "transferOwner",
      "outputs": [],
      "stateMutability": "nonpayable",
      "type": "function"
    }
  ],
  "bytecode": "0x60806040523480156200001157600080fd5b506040516200118438038062001184833981810160405260408110156200003757600080fd5b81019080805160405193929190846401000000008211156200005857600080fd5b9083019060208201858111156200006e57600080fd5b82518660208202830111640100000000821117156200008c57600080fd5b82525081516020918201928201910280838360005b83811015620000bb578181015183820152602001620000a1565b505050509190910160405250602001519150309050806200010e5760405162461bcd60e51b8152600401808060200182810382526043815260200180620011416043913960600191505060405180910390fd5b620001437f8dddb57468cf5338ee155397ad1400a7a564308824f517d20a8a7c516523bb476001600160a01b038316620001a6565b508082511015620001865760405162461bcd60e51b8152600401808060200182810382526048815260200180620010f96048913960600191505060405180910390fd5b81516200019b906000906020850190620001aa565b506001555062000235565b9055565b82805482825590600052602060002090810192821562000202579160200282015b828111156200020257825182546001600160a01b0319166001600160a01b03909116178255602090920191600190910190620001cb565b506200021092915062000214565b5090565b5b80821115620002105780546001600160a01b031916815560010162000215565b610eb480620002456000396000f3fe608060405234801561001057600080fd5b50600436106100a45760003560e01c80631ebaa166146100a95780631ebe85ba146100de578063256750591461010c57806335157be114610129578063392701961461014f57806342cde4e81461017d5780635e63ff3f14610185578063638c7e17146101be578063665bbfde146101c65780637000823d146101e3578063cf19516514610200578063df18ec8f14610223575b600080fd5b6100cc600480360360408110156100bf57600080fd5b50803590602001356102aa565b60408051918252519081900360200190f35b61010a600480360360408110156100f457600080fd5b50803590602001356001600160a01b031661030d565b005b61010a6004803603602081101561012257600080fd5b5035610494565b6100cc6004803603602081101561013f57600080fd5b50356001600160a01b0316610601565b6100cc6004803603604081101561016557600080fd5b506001600160a01b03813581169160200135166106c9565b6100cc61070b565b6101a26004803603602081101561019b57600080fd5b5035610711565b604080516001600160a01b039092168252519081900360200190f35b6101a2610738565b61010a600480360360208110156101dc57600080fd5b5035610768565b6100cc600480360360208110156101f957600080fd5b50356108d4565b6101a26004803603604081101561021657600080fd5b50803590602001356108e6565b6102466004803603604081101561023957600080fd5b5080359060200135610920565b60405180836001600160a01b0316815260200180602001828103825283818151815260200191508051906020019060200280838360005b8381101561029557818101518382015260200161027d565b50505050905001935050505060405180910390f35b6000828152600260205260408120825b8154811015610300576001548282815481106102d257fe5b906000526020600020906002020160010180549050106102f85760010191506103079050565b6001016102ba565b5060009150505b92915050565b61037a33600080548060200260200160405190810160405280929190818152602001828054801561036757602002820191906000526020600020905b81546001600160a01b03168152600190910190602001808311610349575b5050505050610a3690919063ffffffff16565b6103b55760405162461bcd60e51b8152600401808060200182810382526034815260200180610dc16034913960400191505060405180910390fd5b6103bd610a85565b60005482106103fd5760405162461bcd60e51b815260040180806020018281038252602d815260200180610e23602d913960400191505060405180910390fd5b806001600160a01b03166000838154811061041457fe5b60009182526020822001546040516001600160a01b039091169133917ff48dd64d794d3623209edddaa975cfeae5b0ef403fbce64d7b377ceb50396c749190a4806000838154811061046257fe5b9060005260206000200160006101000a8154816001600160a01b0302191690836001600160a01b031602179055505050565b6104ff336000805480602002602001604051908101604052809291908181526020018280548015610367576020028201919060005260206000209081546001600160a01b03168152600190910190602001808311610349575050505050610a3690919063ffffffff16565b61053a5760405162461bcd60e51b8152600401808060200182810382526034815260200180610dc16034913960400191505060405180910390fd5b6000818152600260205260408120548291906105875760405162461bcd60e51b815260040180806020018281038252602f815260200180610e50602f913960400191505060405180910390fd5b60408051600081529051849133917ffb7251ba5d43bdf2193d4616dad278fd04102e9fd2291bb9f95510a03f10f8ce9181900360200190a3600083815260026020526040812080546105fb923392916105dc57fe5b9060005260206000209060020201600101610b7f90919063ffffffff16565b50505050565b60008061060e33846106c9565b60008181526002602081815260408084208054825180840184523381528351878152808601909452808501938452600180830184559287529584902086519582020180546001600160a01b0319166001600160a01b03909616959095178555915180519697509195610687939185019290910190610d24565b50506040518391506001600160a01b0386169033907f313df56710bfec73d53fcb8e8d48ff821d5b2e9a113aad1e9bfc7997ef5a0d7f90600090a49392505050565b604080516001600160601b0319606094851b81166020808401919091529390941b90931660348401528051602881850301815260489093019052815191012090565b60015481565b6000818154811061071e57fe5b6000918252602090912001546001600160a01b0316905081565b60006107637f8dddb57468cf5338ee155397ad1400a7a564308824f517d20a8a7c516523bb47610c89565b905090565b6107d3336000805480602002602001604051908101604052809291908181526020018280548015610367576020028201919060005260206000209081546001600160a01b03168152600190910190602001808311610349575050505050610a3690919063ffffffff16565b61080e5760405162461bcd60e51b8152600401808060200182810382526034815260200180610dc16034913960400191505060405180910390fd5b60008181526002602052604081205482919061085b5760405162461bcd60e51b815260040180806020018281038252602f815260200180610e50602f913960400191505060405180910390fd5b60408051600081529051849133917f2d579b8389bf07e7ce434f3bd88b036a33d28787d19af73a5aa2003a5dcb7d369181900360200190a3600083815260026020526040812080546108cf923392916108b057fe5b9060005260206000209060020201600101610c8d90919063ffffffff16565b505050565b60009081526002602052604090205490565b600260205281600052604060002081815481106108ff57fe5b60009182526020909120600290910201546001600160a01b03169150829050565b6000828152600260205260408120546060908490849081106109735760405162461bcd60e51b815260040180806020018281038252602f815260200180610e50602f913960400191505060405180910390fd5b61097b610d89565b600087815260026020526040902080548790811061099557fe5b6000918252602091829020604080518082018252600290930290910180546001600160a01b03168352600181018054835181870281018701909452808452939491938583019392830182828015610a1557602002820191906000526020600020905b81546001600160a01b031681526001909101906020018083116109f7575b50505091909252505081516020909201519199919850909650505050505050565b8151600090815b8181101561030057836001600160a01b0316858281518110610a5b57fe5b60200260200101516001600160a01b03161415610a7d57600192505050610307565b600101610a3d565b6040805133606090811b6020808401919091523090911b6034830152825160288184030181526048909201909252805191012034906000610ac4610738565b90506000816001600160a01b0316631ebaa1668460006040518363ffffffff1660e01b8152600401808381526020018281526020019250505060206040518083038186803b158015610b1557600080fd5b505afa158015610b29573d6000803e3d6000fd5b505050506040513d6020811015610b3f57600080fd5b50519050806105fb5760405162461bcd60e51b815260040180806020018281038252602e815260200180610df5602e913960400191505060405180910390fd5b8154600090815b81811015610bcc57836001600160a01b0316858281548110610ba457fe5b6000918252602090912001546001600160a01b03161415610bc457610bcc565b600101610b86565b81811015610c7e57600182038114610c4657846001830381548110610bed57fe5b9060005260206000200160009054906101000a90046001600160a01b0316858281548110610c1757fe5b9060005260206000200160006101000a8154816001600160a01b0302191690836001600160a01b031602179055505b84805480610c5057fe5b600082815260209020810160001990810180546001600160a01b031916905501905550600191506103079050565b506000949350505050565b5490565b610cf082805480602002602001604051908101604052809291908181526020018280548015610ce557602002820191906000526020600020905b81546001600160a01b03168152600190910190602001808311610cc7575b505050505082610a36565b610d205781546001810183556000838152602090200180546001600160a01b0319166001600160a01b0383161790555b5050565b828054828255906000526020600020908101928215610d79579160200282015b82811115610d7957825182546001600160a01b0319166001600160a01b03909116178255602090920191600190910190610d44565b50610d85929150610da1565b5090565b60408051808201909152600081526060602082015290565b5b80821115610d855780546001600160a01b0319168155600101610da256fe4d756c7469706c65205369676e6174757265203a2063616c6c6572206973206e6f7420696e20746865206f776e65724c697374216d756c74695369676e6174757265436c69656e74203a2054686973207478206973206e6f7420617072726f7665644d756c7469706c65205369676e6174757265203a204f776e657220696e646578206973206f766572666c6f77214d756c7469706c65205369676e6174757265203a204d65737361676520696e646578206973206f766572666c6f7721a264697066735822122069e1fd7977e41f6f82994df957e3c7954505e34acec3f03ffd58057ee96db62664736f6c634300060c00334d756c7469706c65205369676e6174757265203a205369676e6174757265207468726573686f6c642069732067726561746572207468616e206f776e65727327206c656e677468216d756c74695369676e6174757265436c69656e74203a204d756c7469706c65207369676e617475726520636f6e74726163742061646472657373206973207a65726f21",
  "linkReferences": {},
  "deployedLinkReferences": {}
}