{
  "_format": "hh-sol-artifact-1",
  "contractName": "LibOrderTest",
  "sourceName": "contracts/test/LibOrderTest.sol",
  "abi": [
    {
      "inputs": [
        {
          "components": [
            {
              "internalType": "enum LibOrder.Side",
              "name": "side",
              "type": "uint8"
            },
            {
              "internalType": "enum LibOrder.SaleKind",
              "name": "saleKind",
              "type": "uint8"
            },
            {
              "internalType": "address",
              "name": "maker",
              "type": "address"
            },
            {
              "components": [
                {
                  "internalType": "uint256",
                  "name": "tokenId",
                  "type": "uint256"
                },
                {
                  "internalType": "address",
                  "name": "collection",
                  "type": "address"
                },
                {
                  "internalType": "uint96",
                  "name": "amount",
                  "type": "uint96"
                }
              ],
              "internalType": "struct LibOrder.Asset",
              "name": "nft",
              "type": "tuple"
            },
            {
              "internalType": "Price",
              "name": "price",
              "type": "uint128"
            },
            {
              "internalType": "uint64",
              "name": "expiry",
              "type": "uint64"
            },
            {
              "internalType": "uint64",
              "name": "salt",
              "type": "uint64"
            }
          ],
          "internalType": "struct LibOrder.Order",
          "name": "order",
          "type": "tuple"
        }
      ],
      "name": "getOrderHash",
      "outputs": [
        {
          "internalType": "OrderKey",
          "name": "",
          "type": "bytes32"
        }
      ],
      "stateMutability": "pure",
      "type": "function"
    }
  ],
  "bytecode": "0x6080806040523461001657610310908161001c8239f35b600080fdfe6080600436101561000f57600080fd5b6000803560e01c63a46f44391461002557600080fd5b34610251576101203660031901126102515760e082019067ffffffffffffffff9083831082841117610274576040928352600435600281101561027057845260243591600283101561027057602085810193845294604435926001600160a01b0391828516850361027057808701948552606036606319011261027057865192606084018481108682111761025c5788526064358452608435818116810361025857848a01526001600160601b0360a435818116810361025457858a01526060830194855260c435926001600160801b0384168403610254576080810193845260e4359487861686036102515760a08201958652610104359788168803610251575060c081019687525197610139896102ba565b5196610144886102ba565b51945190898251938c84015116920151168951918b8301937f631e462bf410c643f967c13284911d970aa0a06097a11e4a1a7ad9549175d78a85528b840152606083015260808201526080815261019a81610288565b51902090519151935192875195898701977f7e112775c49cc2f5d597cc604eac1616afa66ee95cc7c4d46a97ca90b539ca3389526101d7816102ba565b60f81b898801526101e7816102ba565b60f81b604187015260601b6001600160601b0319166042860152605685015260801b6001600160801b03191660768085019190915260c092831b6001600160c01b031990811660868601529190921b16608e830152815261024781610288565b5190209051908152f35b80fd5b8480fd5b8380fd5b634e487b7160e01b84526041600452602484fd5b5080fd5b634e487b7160e01b81526041600452602490fd5b60a0810190811067ffffffffffffffff8211176102a457604052565b634e487b7160e01b600052604160045260246000fd5b600211156102c457565b634e487b7160e01b600052602160045260246000fdfea2646970667358221220b060875148c5620acc6d723d2b65bbbd072f7752f06ae9511c446367f1df4bd664736f6c63430008140033",
  "linkReferences": {},
  "deployedLinkReferences": {}
}