{"contracts/pledge/AddressPrivileges.sol":{"AddressPrivileges":{"abi":[{"inputs":[{"internalType":"address","name":"multiSignature","type":"address"}],"stateMutability":"nonpayable","type":"constructor"},{"inputs":[{"internalType":"address","name":"_addMinter","type":"address"}],"name":"addMinter","outputs":[{"internalType":"bool","name":"","type":"bool"}],"stateMutability":"nonpayable","type":"function"},{"inputs":[{"internalType":"address","name":"_delMinter","type":"address"}],"name":"delMinter","outputs":[{"internalType":"bool","name":"","type":"bool"}],"stateMutability":"nonpayable","type":"function"},{"inputs":[{"internalType":"uint256","name":"_index","type":"uint256"}],"name":"getMinter","outputs":[{"internalType":"address","name":"","type":"address"}],"stateMutability":"view","type":"function"},{"inputs":[],"name":"getMinterLength","outputs":[{"internalType":"uint256","name":"","type":"uint256"}],"stateMutability":"view","type":"function"},{"inputs":[],"name":"getMultiSignatureAddress","outputs":[{"internalType":"address","name":"","type":"address"}],"stateMutability":"view","type":"function"},{"inputs":[{"internalType":"address","name":"account","type":"address"}],"name":"isMinter","outputs":[{"internalType":"bool","name":"","type":"bool"}],"stateMutability":"view","type":"function"}],"evm":{"bytecode":{"linkReferences":{},"object":"608060405234801561001057600080fd5b5060405161077c38038061077c8339818101604052602081101561003357600080fd5b5051806001600160a01b03811661007b5760405162461bcd60e51b81526004018080602001828103825260438152602001806107396043913960600191505060405180910390fd5b6100ae7f8dddb57468cf5338ee155397ad1400a7a564308824f517d20a8a7c516523bb476001600160a01b0383166100b5565b50506100b9565b9055565b610671806100c86000396000f3fe608060405234801561001057600080fd5b50600436106100625760003560e01c80630323aac71461006757806323338b88146100815780635b7121f8146100bb578063638c7e17146100f4578063983b2d56146100fc578063aa271e1a14610122575b600080fd5b61006f610148565b60408051918252519081900360200190f35b6100a76004803603602081101561009757600080fd5b50356001600160a01b0316610159565b604080519115158252519081900360200190f35b6100d8600480360360208110156100d157600080fd5b50356101b9565b604080516001600160a01b039092168252519081900360200190f35b6100d8610222565b6100a76004803603602081101561011257600080fd5b50356001600160a01b031661024d565b6100a76004803603602081101561013857600080fd5b50356001600160a01b03166102a7565b600061015460006102b4565b905090565b60006101636102bf565b6001600160a01b0382166101a85760405162461bcd60e51b81526004018080602001828103825260258152602001806105c46025913960400191505060405180910390fd5b6101b36000836103bf565b92915050565b600060016101c5610148565b03821115610217576040805162461bcd60e51b815260206004820152601a602482015279546f6b656e3a20696e646578206f7574206f6620626f756e647360301b604482015290519081900360640190fd5b6101b36000836103db565b60006101547f8dddb57468cf5338ee155397ad1400a7a564308824f517d20a8a7c516523bb476103e7565b60006102576102bf565b6001600160a01b03821661029c5760405162461bcd60e51b81526004018080602001828103825260258152602001806106176025913960400191505060405180910390fd5b6101b36000836103eb565b60006101b3600083610400565b60006101b3826103e7565b6040805133606090811b6020808401919091523090911b60348301528251602881840301815260489092019092528051910120349060006102fe610222565b90506000816001600160a01b0316631ebaa1668460006040518363ffffffff1660e01b8152600401808381526020018281526020019250505060206040518083038186803b15801561034f57600080fd5b505afa158015610363573d6000803e3d6000fd5b505050506040513d602081101561037957600080fd5b50519050806103b95760405162461bcd60e51b815260040180806020018281038252602e8152602001806105e9602e913960400191505060405180910390fd5b50505050565b60006103d4836001600160a01b038416610415565b9392505050565b60006103d483836104db565b5490565b60006103d4836001600160a01b03841661053f565b60006103d4836001600160a01b038416610589565b600081815260018301602052604081205480156104d1578354600019808301919081019060009087908390811061044857fe5b906000526020600020015490508087600001848154811061046557fe5b60009182526020808320909101929092558281526001898101909252604090209084019055865487908061049557fe5b600190038181906000526020600020016000905590558660010160008781526020019081526020016000206000905560019450505050506101b3565b60009150506101b3565b8154600090821061051d5760405162461bcd60e51b81526004018080602001828103825260228152602001806105a26022913960400191505060405180910390fd5b82600001828154811061052c57fe5b9060005260206000200154905092915050565b600061054b8383610589565b610581575081546001818101845560008481526020808220909301849055845484825282860190935260409020919091556101b3565b5060006101b3565b6000908152600191909101602052604090205415159056fe456e756d657261626c655365743a20696e646578206f7574206f6620626f756e6473546f6b656e3a205f64656c4d696e74657220697320746865207a65726f20616464726573736d756c74695369676e6174757265436c69656e74203a2054686973207478206973206e6f7420617072726f766564546f6b656e3a205f6164644d696e74657220697320746865207a65726f2061646472657373a26469706673582212209d6e4817bbcfa99454e42ace283e442cae9e0ece1d46bd70f668c93bc9b7a24064736f6c634300060c00336d756c74695369676e6174757265436c69656e74203a204d756c7469706c65207369676e617475726520636f6e74726163742061646472657373206973207a65726f21","opcodes":"PUSH1 0x80 PUSH1 0x40 MSTORE CALLVALUE DUP1 ISZERO PUSH2 0x10 JUMPI PUSH1 0x0 DUP1 REVERT JUMPDEST POP PUSH1 0x40 MLOAD PUSH2 0x77C CODESIZE SUB DUP1 PUSH2 0x77C DUP4 CODECOPY DUP2 DUP2 ADD PUSH1 0x40 MSTORE PUSH1 0x20 DUP2 LT ISZERO PUSH2 0x33 JUMPI PUSH1 0x0 DUP1 REVERT JUMPDEST POP MLOAD DUP1 PUSH1 0x1 PUSH1 0x1 PUSH1 0xA0 SHL SUB DUP2 AND PUSH2 0x7B JUMPI PUSH1 0x40 MLOAD PUSH3 0x461BCD PUSH1 0xE5 SHL DUP2 MSTORE PUSH1 0x4 ADD DUP1 DUP1 PUSH1 0x20 ADD DUP3 DUP2 SUB DUP3 MSTORE PUSH1 0x43 DUP2 MSTORE PUSH1 0x20 ADD DUP1 PUSH2 0x739 PUSH1 0x43 SWAP2 CODECOPY PUSH1 0x60 ADD SWAP2 POP POP PUSH1 0x40 MLOAD DUP1 SWAP2 SUB SWAP1 REVERT JUMPDEST PUSH2 0xAE PUSH32 0x8DDDB57468CF5338EE155397AD1400A7A564308824F517D20A8A7C516523BB47 PUSH1 0x1 PUSH1 0x1 PUSH1 0xA0 SHL SUB DUP4 AND PUSH2 0xB5 JUMP JUMPDEST POP POP PUSH2 0xB9 JUMP JUMPDEST SWAP1 SSTORE JUMP JUMPDEST PUSH2 0x671 DUP1 PUSH2 0xC8 PUSH1 0x0 CODECOPY PUSH1 0x0 RETURN INVALID PUSH1 0x80 PUSH1 0x40 MSTORE CALLVALUE DUP1 ISZERO PUSH2 0x10 JUMPI PUSH1 0x0 DUP1 REVERT JUMPDEST POP PUSH1 0x4 CALLDATASIZE LT PUSH2 0x62 JUMPI PUSH1 0x0 CALLDATALOAD PUSH1 0xE0 SHR DUP1 PUSH4 0x323AAC7 EQ PUSH2 0x67 JUMPI DUP1 PUSH4 0x23338B88 EQ PUSH2 0x81 JUMPI DUP1 PUSH4 0x5B7121F8 EQ PUSH2 0xBB JUMPI DUP1 PUSH4 0x638C7E17 EQ PUSH2 0xF4 JUMPI DUP1 PUSH4 0x983B2D56 EQ PUSH2 0xFC JUMPI DUP1 PUSH4 0xAA271E1A EQ PUSH2 0x122 JUMPI JUMPDEST PUSH1 0x0 DUP1 REVERT JUMPDEST PUSH2 0x6F PUSH2 0x148 JUMP JUMPDEST PUSH1 0x40 DUP1 MLOAD SWAP2 DUP3 MSTORE MLOAD SWAP1 DUP2 SWAP1 SUB PUSH1 0x20 ADD SWAP1 RETURN JUMPDEST PUSH2 0xA7 PUSH1 0x4 DUP1 CALLDATASIZE SUB PUSH1 0x20 DUP2 LT ISZERO PUSH2 0x97 JUMPI PUSH1 0x0 DUP1 REVERT JUMPDEST POP CALLDATALOAD PUSH1 0x1 PUSH1 0x1 PUSH1 0xA0 SHL SUB AND PUSH2 0x159 JUMP JUMPDEST PUSH1 0x40 DUP1 MLOAD SWAP2 ISZERO ISZERO DUP3 MSTORE MLOAD SWAP1 DUP2 SWAP1 SUB PUSH1 0x20 ADD SWAP1 RETURN JUMPDEST PUSH2 0xD8 PUSH1 0x4 DUP1 CALLDATASIZE SUB PUSH1 0x20 DUP2 LT ISZERO PUSH2 0xD1 JUMPI PUSH1 0x0 DUP1 REVERT JUMPDEST POP CALLDATALOAD PUSH2 0x1B9 JUMP JUMPDEST PUSH1 0x40 DUP1 MLOAD PUSH1 0x1 PUSH1 0x1 PUSH1 0xA0 SHL SUB SWAP1 SWAP3 AND DUP3 MSTORE MLOAD SWAP1 DUP2 SWAP1 SUB PUSH1 0x20 ADD SWAP1 RETURN JUMPDEST PUSH2 0xD8 PUSH2 0x222 JUMP JUMPDEST PUSH2 0xA7 PUSH1 0x4 DUP1 CALLDATASIZE SUB PUSH1 0x20 DUP2 LT ISZERO PUSH2 0x112 JUMPI PUSH1 0x0 DUP1 REVERT JUMPDEST POP CALLDATALOAD PUSH1 0x1 PUSH1 0x1 PUSH1 0xA0 SHL SUB AND PUSH2 0x24D JUMP JUMPDEST PUSH2 0xA7 PUSH1 0x4 DUP1 CALLDATASIZE SUB PUSH1 0x20 DUP2 LT ISZERO PUSH2 0x138 JUMPI PUSH1 0x0 DUP1 REVERT JUMPDEST POP CALLDATALOAD PUSH1 0x1 PUSH1 0x1 PUSH1 0xA0 SHL SUB AND PUSH2 0x2A7 JUMP JUMPDEST PUSH1 0x0 PUSH2 0x154 PUSH1 0x0 PUSH2 0x2B4 JUMP JUMPDEST SWAP1 POP SWAP1 JUMP JUMPDEST PUSH1 0x0 PUSH2 0x163 PUSH2 0x2BF JUMP JUMPDEST PUSH1 0x1 PUSH1 0x1 PUSH1 0xA0 SHL SUB DUP3 AND PUSH2 0x1A8 JUMPI PUSH1 0x40 MLOAD PUSH3 0x461BCD PUSH1 0xE5 SHL DUP2 MSTORE PUSH1 0x4 ADD DUP1 DUP1 PUSH1 0x20 ADD DUP3 DUP2 SUB DUP3 MSTORE PUSH1 0x25 DUP2 MSTORE PUSH1 0x20 ADD DUP1 PUSH2 0x5C4 PUSH1 0x25 SWAP2 CODECOPY PUSH1 0x40 ADD SWAP2 POP POP PUSH1 0x40 MLOAD DUP1 SWAP2 SUB SWAP1 REVERT JUMPDEST PUSH2 0x1B3 PUSH1 0x0 DUP4 PUSH2 0x3BF JUMP JUMPDEST SWAP3 SWAP2 POP POP JUMP JUMPDEST PUSH1 0x0 PUSH1 0x1 PUSH2 0x1C5 PUSH2 0x148 JUMP JUMPDEST SUB DUP3 GT ISZERO PUSH2 0x217 JUMPI PUSH1 0x40 DUP1 MLOAD PUSH3 0x461BCD PUSH1 0xE5 SHL DUP2 MSTORE PUSH1 0x20 PUSH1 0x4 DUP3 ADD MSTORE PUSH1 0x1A PUSH1 0x24 DUP3 ADD MSTORE PUSH26 0x546F6B656E3A20696E646578206F7574206F6620626F756E6473 PUSH1 0x30 SHL PUSH1 0x44 DUP3 ADD MSTORE SWAP1 MLOAD SWAP1 DUP2 SWAP1 SUB PUSH1 0x64 ADD SWAP1 REVERT JUMPDEST PUSH2 0x1B3 PUSH1 0x0 DUP4 PUSH2 0x3DB JUMP JUMPDEST PUSH1 0x0 PUSH2 0x154 PUSH32 0x8DDDB57468CF5338EE155397AD1400A7A564308824F517D20A8A7C516523BB47 PUSH2 0x3E7 JUMP JUMPDEST PUSH1 0x0 PUSH2 0x257 PUSH2 0x2BF JUMP JUMPDEST PUSH1 0x1 PUSH1 0x1 PUSH1 0xA0 SHL SUB DUP3 AND PUSH2 0x29C JUMPI PUSH1 0x40 MLOAD PUSH3 0x461BCD PUSH1 0xE5 SHL DUP2 MSTORE PUSH1 0x4 ADD DUP1 DUP1 PUSH1 0x20 ADD DUP3 DUP2 SUB DUP3 MSTORE PUSH1 0x25 DUP2 MSTORE PUSH1 0x20 ADD DUP1 PUSH2 0x617 PUSH1 0x25 SWAP2 CODECOPY PUSH1 0x40 ADD SWAP2 POP POP PUSH1 0x40 MLOAD DUP1 SWAP2 SUB SWAP1 REVERT JUMPDEST PUSH2 0x1B3 PUSH1 0x0 DUP4 PUSH2 0x3EB JUMP JUMPDEST PUSH1 0x0 PUSH2 0x1B3 PUSH1 0x0 DUP4 PUSH2 0x400 JUMP JUMPDEST PUSH1 0x0 PUSH2 0x1B3 DUP3 PUSH2 0x3E7 JUMP JUMPDEST PUSH1 0x40 DUP1 MLOAD CALLER PUSH1 0x60 SWAP1 DUP2 SHL PUSH1 0x20 DUP1 DUP5 ADD SWAP2 SWAP1 SWAP2 MSTORE ADDRESS SWAP1 SWAP2 SHL PUSH1 0x34 DUP4 ADD MSTORE DUP3 MLOAD PUSH1 0x28 DUP2 DUP5 SUB ADD DUP2 MSTORE PUSH1 0x48 SWAP1 SWAP3 ADD SWAP1 SWAP3 MSTORE DUP1 MLOAD SWAP2 ADD KECCAK256 CALLVALUE SWAP1 PUSH1 0x0 PUSH2 0x2FE PUSH2 0x222 JUMP JUMPDEST SWAP1 POP PUSH1 0x0 DUP2 PUSH1 0x1 PUSH1 0x1 PUSH1 0xA0 SHL SUB AND PUSH4 0x1EBAA166 DUP5 PUSH1 0x0 PUSH1 0x40 MLOAD DUP4 PUSH4 0xFFFFFFFF AND PUSH1 0xE0 SHL DUP2 MSTORE PUSH1 0x4 ADD DUP1 DUP4 DUP2 MSTORE PUSH1 0x20 ADD DUP3 DUP2 MSTORE PUSH1 0x20 ADD SWAP3 POP POP POP PUSH1 0x20 PUSH1 0x40 MLOAD DUP1 DUP4 SUB DUP2 DUP7 DUP1 EXTCODESIZE ISZERO DUP1 ISZERO PUSH2 0x34F JUMPI PUSH1 0x0 DUP1 REVERT JUMPDEST POP GAS STATICCALL ISZERO DUP1 ISZERO PUSH2 0x363 JUMPI RETURNDATASIZE PUSH1 0x0 DUP1 RETURNDATACOPY RETURNDATASIZE PUSH1 0x0 REVERT JUMPDEST POP POP POP POP PUSH1 0x40 MLOAD RETURNDATASIZE PUSH1 0x20 DUP2 LT ISZERO PUSH2 0x379 JUMPI PUSH1 0x0 DUP1 REVERT JUMPDEST POP MLOAD SWAP1 POP DUP1 PUSH2 0x3B9 JUMPI PUSH1 0x40 MLOAD PUSH3 0x461BCD PUSH1 0xE5 SHL DUP2 MSTORE PUSH1 0x4 ADD DUP1 DUP1 PUSH1 0x20 ADD DUP3 DUP2 SUB DUP3 MSTORE PUSH1 0x2E DUP2 MSTORE PUSH1 0x20 ADD DUP1 PUSH2 0x5E9 PUSH1 0x2E SWAP2 CODECOPY PUSH1 0x40 ADD SWAP2 POP POP PUSH1 0x40 MLOAD DUP1 SWAP2 SUB SWAP1 REVERT JUMPDEST POP POP POP POP JUMP JUMPDEST PUSH1 0x0 PUSH2 0x3D4 DUP4 PUSH1 0x1 PUSH1 0x1 PUSH1 0xA0 SHL SUB DUP5 AND PUSH2 0x415 JUMP JUMPDEST SWAP4 SWAP3 POP POP POP JUMP JUMPDEST PUSH1 0x0 PUSH2 0x3D4 DUP4 DUP4 PUSH2 0x4DB JUMP JUMPDEST SLOAD SWAP1 JUMP JUMPDEST PUSH1 0x0 PUSH2 0x3D4 DUP4 PUSH1 0x1 PUSH1 0x1 PUSH1 0xA0 SHL SUB DUP5 AND PUSH2 0x53F JUMP JUMPDEST PUSH1 0x0 PUSH2 0x3D4 DUP4 PUSH1 0x1 PUSH1 0x1 PUSH1 0xA0 SHL SUB DUP5 AND PUSH2 0x589 JUMP JUMPDEST PUSH1 0x0 DUP2 DUP2 MSTORE PUSH1 0x1 DUP4 ADD PUSH1 0x20 MSTORE PUSH1 0x40 DUP2 KECCAK256 SLOAD DUP1 ISZERO PUSH2 0x4D1 JUMPI DUP4 SLOAD PUSH1 0x0 NOT DUP1 DUP4 ADD SWAP2 SWAP1 DUP2 ADD SWAP1 PUSH1 0x0 SWAP1 DUP8 SWAP1 DUP4 SWAP1 DUP2 LT PUSH2 0x448 JUMPI INVALID JUMPDEST SWAP1 PUSH1 0x0 MSTORE PUSH1 0x20 PUSH1 0x0 KECCAK256 ADD SLOAD SWAP1 POP DUP1 DUP8 PUSH1 0x0 ADD DUP5 DUP2 SLOAD DUP2 LT PUSH2 0x465 JUMPI INVALID JUMPDEST PUSH1 0x0 SWAP2 DUP3 MSTORE PUSH1 0x20 DUP1 DUP4 KECCAK256 SWAP1 SWAP2 ADD SWAP3 SWAP1 SWAP3 SSTORE DUP3 DUP2 MSTORE PUSH1 0x1 DUP10 DUP2 ADD SWAP1 SWAP3 MSTORE PUSH1 0x40 SWAP1 KECCAK256 SWAP1 DUP5 ADD SWAP1 SSTORE DUP7 SLOAD DUP8 SWAP1 DUP1 PUSH2 0x495 JUMPI INVALID JUMPDEST PUSH1 0x1 SWAP1 SUB DUP2 DUP2 SWAP1 PUSH1 0x0 MSTORE PUSH1 0x20 PUSH1 0x0 KECCAK256 ADD PUSH1 0x0 SWAP1 SSTORE SWAP1 SSTORE DUP7 PUSH1 0x1 ADD PUSH1 0x0 DUP8 DUP2 MSTORE PUSH1 0x20 ADD SWAP1 DUP2 MSTORE PUSH1 0x20 ADD PUSH1 0x0 KECCAK256 PUSH1 0x0 SWAP1 SSTORE PUSH1 0x1 SWAP5 POP POP POP POP POP PUSH2 0x1B3 JUMP JUMPDEST PUSH1 0x0 SWAP2 POP POP PUSH2 0x1B3 JUMP JUMPDEST DUP2 SLOAD PUSH1 0x0 SWAP1 DUP3 LT PUSH2 0x51D JUMPI PUSH1 0x40 MLOAD PUSH3 0x461BCD PUSH1 0xE5 SHL DUP2 MSTORE PUSH1 0x4 ADD DUP1 DUP1 PUSH1 0x20 ADD DUP3 DUP2 SUB DUP3 MSTORE PUSH1 0x22 DUP2 MSTORE PUSH1 0x20 ADD DUP1 PUSH2 0x5A2 PUSH1 0x22 SWAP2 CODECOPY PUSH1 0x40 ADD SWAP2 POP POP PUSH1 0x40 MLOAD DUP1 SWAP2 SUB SWAP1 REVERT JUMPDEST DUP3 PUSH1 0x0 ADD DUP3 DUP2 SLOAD DUP2 LT PUSH2 0x52C JUMPI INVALID JUMPDEST SWAP1 PUSH1 0x0 MSTORE PUSH1 0x20 PUSH1 0x0 KECCAK256 ADD SLOAD SWAP1 POP SWAP3 SWAP2 POP POP JUMP JUMPDEST PUSH1 0x0 PUSH2 0x54B DUP4 DUP4 PUSH2 0x589 JUMP JUMPDEST PUSH2 0x581 JUMPI POP DUP2 SLOAD PUSH1 0x1 DUP2 DUP2 ADD DUP5 SSTORE PUSH1 0x0 DUP5 DUP2 MSTORE PUSH1 0x20 DUP1 DUP3 KECCAK256 SWAP1 SWAP4 ADD DUP5 SWAP1 SSTORE DUP5 SLOAD DUP5 DUP3 MSTORE DUP3 DUP7 ADD SWAP1 SWAP4 MSTORE PUSH1 0x40 SWAP1 KECCAK256 SWAP2 SWAP1 SWAP2 SSTORE PUSH2 0x1B3 JUMP JUMPDEST POP PUSH1 0x0 PUSH2 0x1B3 JUMP JUMPDEST PUSH1 0x0 SWAP1 DUP2 MSTORE PUSH1 0x1 SWAP2 SWAP1 SWAP2 ADD PUSH1 0x20 MSTORE PUSH1 0x40 SWAP1 KECCAK256 SLOAD ISZERO ISZERO SWAP1 JUMP INVALID GASLIMIT PUSH15 0x756D657261626C655365743A20696E PUSH5 0x6578206F75 PUSH21 0x206F6620626F756E6473546F6B656E3A205F64656C 0x4D PUSH10 0x6E746572206973207468 PUSH6 0x207A65726F20 PUSH2 0x6464 PUSH19 0x6573736D756C74695369676E6174757265436C PUSH10 0x656E74203A2054686973 KECCAK256 PUSH21 0x78206973206E6F7420617072726F766564546F6B65 PUSH15 0x3A205F6164644D696E746572206973 KECCAK256 PUSH21 0x6865207A65726F2061646472657373A26469706673 PC 0x22 SLT KECCAK256 SWAP14 PUSH15 0x4817BBCFA99454E42ACE283E442CAE SWAP15 0xE 0xCE SAR CHAINID 0xBD PUSH17 0xF668C93BC9B7A24064736F6C634300060C STOP CALLER PUSH14 0x756C74695369676E617475726543 PUSH13 0x69656E74203A204D756C746970 PUSH13 0x65207369676E61747572652063 PUSH16 0x6E747261637420616464726573732069 PUSH20 0x207A65726F210000000000000000000000000000 "},"methodIdentifiers":{"addMinter(address)":"983b2d56","delMinter(address)":"23338b88","getMinter(uint256)":"5b7121f8","getMinterLength()":"0323aac7","getMultiSignatureAddress()":"638c7e17","isMinter(address)":"aa271e1a"}}}}}