{"contracts/multiSignature/multiSignature.sol":{"multiSignature":{"abi":[{"inputs":[{"internalType":"address[]","name":"owners","type":"address[]"},{"internalType":"uint256","name":"limitedSignNum","type":"uint256"}],"stateMutability":"nonpayable","type":"constructor"},{"anonymous":false,"inputs":[{"indexed":true,"internalType":"address","name":"from","type":"address"},{"indexed":true,"internalType":"address","name":"to","type":"address"},{"indexed":true,"internalType":"bytes32","name":"msgHash","type":"bytes32"}],"name":"CreateApplication","type":"event"},{"anonymous":false,"inputs":[{"indexed":true,"internalType":"address","name":"from","type":"address"},{"indexed":true,"internalType":"bytes32","name":"msgHash","type":"bytes32"},{"indexed":false,"internalType":"uint256","name":"index","type":"uint256"}],"name":"RevokeApplication","type":"event"},{"anonymous":false,"inputs":[{"indexed":true,"internalType":"address","name":"from","type":"address"},{"indexed":true,"internalType":"bytes32","name":"msgHash","type":"bytes32"},{"indexed":false,"internalType":"uint256","name":"index","type":"uint256"}],"name":"SignApplication","type":"event"},{"anonymous":false,"inputs":[{"indexed":true,"internalType":"address","name":"sender","type":"address"},{"indexed":true,"internalType":"address","name":"oldOwner","type":"address"},{"indexed":true,"internalType":"address","name":"newOwner","type":"address"}],"name":"TransferOwner","type":"event"},{"inputs":[{"internalType":"address","name":"to","type":"address"}],"name":"createApplication","outputs":[{"internalType":"uint256","name":"","type":"uint256"}],"stateMutability":"nonpayable","type":"function"},{"inputs":[{"internalType":"bytes32","name":"msghash","type":"bytes32"}],"name":"getApplicationCount","outputs":[{"internalType":"uint256","name":"","type":"uint256"}],"stateMutability":"view","type":"function"},{"inputs":[{"internalType":"address","name":"from","type":"address"},{"internalType":"address","name":"to","type":"address"}],"name":"getApplicationHash","outputs":[{"internalType":"bytes32","name":"","type":"bytes32"}],"stateMutability":"pure","type":"function"},{"inputs":[{"internalType":"bytes32","name":"msghash","type":"bytes32"},{"internalType":"uint256","name":"index","type":"uint256"}],"name":"getApplicationInfo","outputs":[{"internalType":"address","name":"","type":"address"},{"internalType":"address[]","name":"","type":"address[]"}],"stateMutability":"view","type":"function"},{"inputs":[],"name":"getMultiSignatureAddress","outputs":[{"internalType":"address","name":"","type":"address"}],"stateMutability":"view","type":"function"},{"inputs":[{"internalType":"bytes32","name":"msghash","type":"bytes32"},{"internalType":"uint256","name":"lastIndex","type":"uint256"}],"name":"getValidSignature","outputs":[{"internalType":"uint256","name":"","type":"uint256"}],"stateMutability":"view","type":"function"},{"inputs":[{"internalType":"bytes32","name":"msghash","type":"bytes32"}],"name":"revokeSignApplication","outputs":[],"stateMutability":"nonpayable","type":"function"},{"inputs":[{"internalType":"bytes32","name":"msghash","type":"bytes32"}],"name":"signApplication","outputs":[],"stateMutability":"nonpayable","type":"function"},{"inputs":[{"internalType":"bytes32","name":"","type":"bytes32"},{"internalType":"uint256","name":"","type":"uint256"}],"name":"signatureMap","outputs":[{"internalType":"address","name":"applicant","type":"address"}],"stateMutability":"view","type":"function"},{"inputs":[{"internalType":"uint256","name":"","type":"uint256"}],"name":"signatureOwners","outputs":[{"internalType":"address","name":"","type":"address"}],"stateMutability":"view","type":"function"},{"inputs":[],"name":"threshold","outputs":[{"internalType":"uint256","name":"","type":"uint256"}],"stateMutability":"view","type":"function"},{"inputs":[{"internalType":"uint256","name":"index","type":"uint256"},{"internalType":"address","name":"newOwner","type":"address"}],"name":"transferOwner","outputs":[],"stateMutability":"nonpayable","type":"function"}],"evm":{"bytecode":{"linkReferences":{},"object":"60806040523480156200001157600080fd5b506040516200118438038062001184833981810160405260408110156200003757600080fd5b81019080805160405193929190846401000000008211156200005857600080fd5b9083019060208201858111156200006e57600080fd5b82518660208202830111640100000000821117156200008c57600080fd5b82525081516020918201928201910280838360005b83811015620000bb578181015183820152602001620000a1565b505050509190910160405250602001519150309050806200010e5760405162461bcd60e51b8152600401808060200182810382526043815260200180620011416043913960600191505060405180910390fd5b620001437f8dddb57468cf5338ee155397ad1400a7a564308824f517d20a8a7c516523bb476001600160a01b038316620001a6565b508082511015620001865760405162461bcd60e51b8152600401808060200182810382526048815260200180620010f96048913960600191505060405180910390fd5b81516200019b906000906020850190620001aa565b506001555062000235565b9055565b82805482825590600052602060002090810192821562000202579160200282015b828111156200020257825182546001600160a01b0319166001600160a01b03909116178255602090920191600190910190620001cb565b506200021092915062000214565b5090565b5b80821115620002105780546001600160a01b031916815560010162000215565b610eb480620002456000396000f3fe608060405234801561001057600080fd5b50600436106100a45760003560e01c80631ebaa166146100a95780631ebe85ba146100de578063256750591461010c57806335157be114610129578063392701961461014f57806342cde4e81461017d5780635e63ff3f14610185578063638c7e17146101be578063665bbfde146101c65780637000823d146101e3578063cf19516514610200578063df18ec8f14610223575b600080fd5b6100cc600480360360408110156100bf57600080fd5b50803590602001356102aa565b60408051918252519081900360200190f35b61010a600480360360408110156100f457600080fd5b50803590602001356001600160a01b031661030d565b005b61010a6004803603602081101561012257600080fd5b5035610494565b6100cc6004803603602081101561013f57600080fd5b50356001600160a01b0316610601565b6100cc6004803603604081101561016557600080fd5b506001600160a01b03813581169160200135166106c9565b6100cc61070b565b6101a26004803603602081101561019b57600080fd5b5035610711565b604080516001600160a01b039092168252519081900360200190f35b6101a2610738565b61010a600480360360208110156101dc57600080fd5b5035610768565b6100cc600480360360208110156101f957600080fd5b50356108d4565b6101a26004803603604081101561021657600080fd5b50803590602001356108e6565b6102466004803603604081101561023957600080fd5b5080359060200135610920565b60405180836001600160a01b0316815260200180602001828103825283818151815260200191508051906020019060200280838360005b8381101561029557818101518382015260200161027d565b50505050905001935050505060405180910390f35b6000828152600260205260408120825b8154811015610300576001548282815481106102d257fe5b906000526020600020906002020160010180549050106102f85760010191506103079050565b6001016102ba565b5060009150505b92915050565b61037a33600080548060200260200160405190810160405280929190818152602001828054801561036757602002820191906000526020600020905b81546001600160a01b03168152600190910190602001808311610349575b5050505050610a3690919063ffffffff16565b6103b55760405162461bcd60e51b8152600401808060200182810382526034815260200180610dc16034913960400191505060405180910390fd5b6103bd610a85565b60005482106103fd5760405162461bcd60e51b815260040180806020018281038252602d815260200180610e23602d913960400191505060405180910390fd5b806001600160a01b03166000838154811061041457fe5b60009182526020822001546040516001600160a01b039091169133917ff48dd64d794d3623209edddaa975cfeae5b0ef403fbce64d7b377ceb50396c749190a4806000838154811061046257fe5b9060005260206000200160006101000a8154816001600160a01b0302191690836001600160a01b031602179055505050565b6104ff336000805480602002602001604051908101604052809291908181526020018280548015610367576020028201919060005260206000209081546001600160a01b03168152600190910190602001808311610349575050505050610a3690919063ffffffff16565b61053a5760405162461bcd60e51b8152600401808060200182810382526034815260200180610dc16034913960400191505060405180910390fd5b6000818152600260205260408120548291906105875760405162461bcd60e51b815260040180806020018281038252602f815260200180610e50602f913960400191505060405180910390fd5b60408051600081529051849133917ffb7251ba5d43bdf2193d4616dad278fd04102e9fd2291bb9f95510a03f10f8ce9181900360200190a3600083815260026020526040812080546105fb923392916105dc57fe5b9060005260206000209060020201600101610b7f90919063ffffffff16565b50505050565b60008061060e33846106c9565b60008181526002602081815260408084208054825180840184523381528351878152808601909452808501938452600180830184559287529584902086519582020180546001600160a01b0319166001600160a01b03909616959095178555915180519697509195610687939185019290910190610d24565b50506040518391506001600160a01b0386169033907f313df56710bfec73d53fcb8e8d48ff821d5b2e9a113aad1e9bfc7997ef5a0d7f90600090a49392505050565b604080516001600160601b0319606094851b81166020808401919091529390941b90931660348401528051602881850301815260489093019052815191012090565b60015481565b6000818154811061071e57fe5b6000918252602090912001546001600160a01b0316905081565b60006107637f8dddb57468cf5338ee155397ad1400a7a564308824f517d20a8a7c516523bb47610c89565b905090565b6107d3336000805480602002602001604051908101604052809291908181526020018280548015610367576020028201919060005260206000209081546001600160a01b03168152600190910190602001808311610349575050505050610a3690919063ffffffff16565b61080e5760405162461bcd60e51b8152600401808060200182810382526034815260200180610dc16034913960400191505060405180910390fd5b60008181526002602052604081205482919061085b5760405162461bcd60e51b815260040180806020018281038252602f815260200180610e50602f913960400191505060405180910390fd5b60408051600081529051849133917f2d579b8389bf07e7ce434f3bd88b036a33d28787d19af73a5aa2003a5dcb7d369181900360200190a3600083815260026020526040812080546108cf923392916108b057fe5b9060005260206000209060020201600101610c8d90919063ffffffff16565b505050565b60009081526002602052604090205490565b600260205281600052604060002081815481106108ff57fe5b60009182526020909120600290910201546001600160a01b03169150829050565b6000828152600260205260408120546060908490849081106109735760405162461bcd60e51b815260040180806020018281038252602f815260200180610e50602f913960400191505060405180910390fd5b61097b610d89565b600087815260026020526040902080548790811061099557fe5b6000918252602091829020604080518082018252600290930290910180546001600160a01b03168352600181018054835181870281018701909452808452939491938583019392830182828015610a1557602002820191906000526020600020905b81546001600160a01b031681526001909101906020018083116109f7575b50505091909252505081516020909201519199919850909650505050505050565b8151600090815b8181101561030057836001600160a01b0316858281518110610a5b57fe5b60200260200101516001600160a01b03161415610a7d57600192505050610307565b600101610a3d565b6040805133606090811b6020808401919091523090911b6034830152825160288184030181526048909201909252805191012034906000610ac4610738565b90506000816001600160a01b0316631ebaa1668460006040518363ffffffff1660e01b8152600401808381526020018281526020019250505060206040518083038186803b158015610b1557600080fd5b505afa158015610b29573d6000803e3d6000fd5b505050506040513d6020811015610b3f57600080fd5b50519050806105fb5760405162461bcd60e51b815260040180806020018281038252602e815260200180610df5602e913960400191505060405180910390fd5b8154600090815b81811015610bcc57836001600160a01b0316858281548110610ba457fe5b6000918252602090912001546001600160a01b03161415610bc457610bcc565b600101610b86565b81811015610c7e57600182038114610c4657846001830381548110610bed57fe5b9060005260206000200160009054906101000a90046001600160a01b0316858281548110610c1757fe5b9060005260206000200160006101000a8154816001600160a01b0302191690836001600160a01b031602179055505b84805480610c5057fe5b600082815260209020810160001990810180546001600160a01b031916905501905550600191506103079050565b506000949350505050565b5490565b610cf082805480602002602001604051908101604052809291908181526020018280548015610ce557602002820191906000526020600020905b81546001600160a01b03168152600190910190602001808311610cc7575b505050505082610a36565b610d205781546001810183556000838152602090200180546001600160a01b0319166001600160a01b0383161790555b5050565b828054828255906000526020600020908101928215610d79579160200282015b82811115610d7957825182546001600160a01b0319166001600160a01b03909116178255602090920191600190910190610d44565b50610d85929150610da1565b5090565b60408051808201909152600081526060602082015290565b5b80821115610d855780546001600160a01b0319168155600101610da256fe4d756c7469706c65205369676e6174757265203a2063616c6c6572206973206e6f7420696e20746865206f776e65724c697374216d756c74695369676e6174757265436c69656e74203a2054686973207478206973206e6f7420617072726f7665644d756c7469706c65205369676e6174757265203a204f776e657220696e646578206973206f766572666c6f77214d756c7469706c65205369676e6174757265203a204d65737361676520696e646578206973206f766572666c6f7721a264697066735822122069e1fd7977e41f6f82994df957e3c7954505e34acec3f03ffd58057ee96db62664736f6c634300060c00334d756c7469706c65205369676e6174757265203a205369676e6174757265207468726573686f6c642069732067726561746572207468616e206f776e65727327206c656e677468216d756c74695369676e6174757265436c69656e74203a204d756c7469706c65207369676e617475726520636f6e74726163742061646472657373206973207a65726f21","opcodes":"PUSH1 0x80 PUSH1 0x40 MSTORE CALLVALUE DUP1 ISZERO PUSH3 0x11 JUMPI PUSH1 0x0 DUP1 REVERT JUMPDEST POP PUSH1 0x40 MLOAD PUSH3 0x1184 CODESIZE SUB DUP1 PUSH3 0x1184 DUP4 CODECOPY DUP2 DUP2 ADD PUSH1 0x40 MSTORE PUSH1 0x40 DUP2 LT ISZERO PUSH3 0x37 JUMPI PUSH1 0x0 DUP1 REVERT JUMPDEST DUP2 ADD SWAP1 DUP1 DUP1 MLOAD PUSH1 0x40 MLOAD SWAP4 SWAP3 SWAP2 SWAP1 DUP5 PUSH5 0x100000000 DUP3 GT ISZERO PUSH3 0x58 JUMPI PUSH1 0x0 DUP1 REVERT JUMPDEST SWAP1 DUP4 ADD SWAP1 PUSH1 0x20 DUP3 ADD DUP6 DUP2 GT ISZERO PUSH3 0x6E JUMPI PUSH1 0x0 DUP1 REVERT JUMPDEST DUP3 MLOAD DUP7 PUSH1 0x20 DUP3 MUL DUP4 ADD GT PUSH5 0x100000000 DUP3 GT OR ISZERO PUSH3 0x8C JUMPI PUSH1 0x0 DUP1 REVERT JUMPDEST DUP3 MSTORE POP DUP2 MLOAD PUSH1 0x20 SWAP2 DUP3 ADD SWAP3 DUP3 ADD SWAP2 MUL DUP1 DUP4 DUP4 PUSH1 0x0 JUMPDEST DUP4 DUP2 LT ISZERO PUSH3 0xBB JUMPI DUP2 DUP2 ADD MLOAD DUP4 DUP3 ADD MSTORE PUSH1 0x20 ADD PUSH3 0xA1 JUMP JUMPDEST POP POP POP POP SWAP2 SWAP1 SWAP2 ADD PUSH1 0x40 MSTORE POP PUSH1 0x20 ADD MLOAD SWAP2 POP ADDRESS SWAP1 POP DUP1 PUSH3 0x10E JUMPI PUSH1 0x40 MLOAD PUSH3 0x461BCD PUSH1 0xE5 SHL DUP2 MSTORE PUSH1 0x4 ADD DUP1 DUP1 PUSH1 0x20 ADD DUP3 DUP2 SUB DUP3 MSTORE PUSH1 0x43 DUP2 MSTORE PUSH1 0x20 ADD DUP1 PUSH3 0x1141 PUSH1 0x43 SWAP2 CODECOPY PUSH1 0x60 ADD SWAP2 POP POP PUSH1 0x40 MLOAD DUP1 SWAP2 SUB SWAP1 REVERT JUMPDEST PUSH3 0x143 PUSH32 0x8DDDB57468CF5338EE155397AD1400A7A564308824F517D20A8A7C516523BB47 PUSH1 0x1 PUSH1 0x1 PUSH1 0xA0 SHL SUB DUP4 AND PUSH3 0x1A6 JUMP JUMPDEST POP DUP1 DUP3 MLOAD LT ISZERO PUSH3 0x186 JUMPI PUSH1 0x40 MLOAD PUSH3 0x461BCD PUSH1 0xE5 SHL DUP2 MSTORE PUSH1 0x4 ADD DUP1 DUP1 PUSH1 0x20 ADD DUP3 DUP2 SUB DUP3 MSTORE PUSH1 0x48 DUP2 MSTORE PUSH1 0x20 ADD DUP1 PUSH3 0x10F9 PUSH1 0x48 SWAP2 CODECOPY PUSH1 0x60 ADD SWAP2 POP POP PUSH1 0x40 MLOAD DUP1 SWAP2 SUB SWAP1 REVERT JUMPDEST DUP2 MLOAD PUSH3 0x19B SWAP1 PUSH1 0x0 SWAP1 PUSH1 0x20 DUP6 ADD SWAP1 PUSH3 0x1AA JUMP JUMPDEST POP PUSH1 0x1 SSTORE POP PUSH3 0x235 JUMP JUMPDEST SWAP1 SSTORE JUMP JUMPDEST DUP3 DUP1 SLOAD DUP3 DUP3 SSTORE SWAP1 PUSH1 0x0 MSTORE PUSH1 0x20 PUSH1 0x0 KECCAK256 SWAP1 DUP2 ADD SWAP3 DUP3 ISZERO PUSH3 0x202 JUMPI SWAP2 PUSH1 0x20 MUL DUP3 ADD JUMPDEST DUP3 DUP2 GT ISZERO PUSH3 0x202 JUMPI DUP3 MLOAD DUP3 SLOAD PUSH1 0x1 PUSH1 0x1 PUSH1 0xA0 SHL SUB NOT AND PUSH1 0x1 PUSH1 0x1 PUSH1 0xA0 SHL SUB SWAP1 SWAP2 AND OR DUP3 SSTORE PUSH1 0x20 SWAP1 SWAP3 ADD SWAP2 PUSH1 0x1 SWAP1 SWAP2 ADD SWAP1 PUSH3 0x1CB JUMP JUMPDEST POP PUSH3 0x210 SWAP3 SWAP2 POP PUSH3 0x214 JUMP JUMPDEST POP SWAP1 JUMP JUMPDEST JUMPDEST DUP1 DUP3 GT ISZERO PUSH3 0x210 JUMPI DUP1 SLOAD PUSH1 0x1 PUSH1 0x1 PUSH1 0xA0 SHL SUB NOT AND DUP2 SSTORE PUSH1 0x1 ADD PUSH3 0x215 JUMP JUMPDEST PUSH2 0xEB4 DUP1 PUSH3 0x245 PUSH1 0x0 CODECOPY PUSH1 0x0 RETURN INVALID PUSH1 0x80 PUSH1 0x40 MSTORE CALLVALUE DUP1 ISZERO PUSH2 0x10 JUMPI PUSH1 0x0 DUP1 REVERT JUMPDEST POP PUSH1 0x4 CALLDATASIZE LT PUSH2 0xA4 JUMPI PUSH1 0x0 CALLDATALOAD PUSH1 0xE0 SHR DUP1 PUSH4 0x1EBAA166 EQ PUSH2 0xA9 JUMPI DUP1 PUSH4 0x1EBE85BA EQ PUSH2 0xDE JUMPI DUP1 PUSH4 0x25675059 EQ PUSH2 0x10C JUMPI DUP1 PUSH4 0x35157BE1 EQ PUSH2 0x129 JUMPI DUP1 PUSH4 0x39270196 EQ PUSH2 0x14F JUMPI DUP1 PUSH4 0x42CDE4E8 EQ PUSH2 0x17D JUMPI DUP1 PUSH4 0x5E63FF3F EQ PUSH2 0x185 JUMPI DUP1 PUSH4 0x638C7E17 EQ PUSH2 0x1BE JUMPI DUP1 PUSH4 0x665BBFDE EQ PUSH2 0x1C6 JUMPI DUP1 PUSH4 0x7000823D EQ PUSH2 0x1E3 JUMPI DUP1 PUSH4 0xCF195165 EQ PUSH2 0x200 JUMPI DUP1 PUSH4 0xDF18EC8F EQ PUSH2 0x223 JUMPI JUMPDEST PUSH1 0x0 DUP1 REVERT JUMPDEST PUSH2 0xCC PUSH1 0x4 DUP1 CALLDATASIZE SUB PUSH1 0x40 DUP2 LT ISZERO PUSH2 0xBF JUMPI PUSH1 0x0 DUP1 REVERT JUMPDEST POP DUP1 CALLDATALOAD SWAP1 PUSH1 0x20 ADD CALLDATALOAD PUSH2 0x2AA JUMP JUMPDEST PUSH1 0x40 DUP1 MLOAD SWAP2 DUP3 MSTORE MLOAD SWAP1 DUP2 SWAP1 SUB PUSH1 0x20 ADD SWAP1 RETURN JUMPDEST PUSH2 0x10A PUSH1 0x4 DUP1 CALLDATASIZE SUB PUSH1 0x40 DUP2 LT ISZERO PUSH2 0xF4 JUMPI PUSH1 0x0 DUP1 REVERT JUMPDEST POP DUP1 CALLDATALOAD SWAP1 PUSH1 0x20 ADD CALLDATALOAD PUSH1 0x1 PUSH1 0x1 PUSH1 0xA0 SHL SUB AND PUSH2 0x30D JUMP JUMPDEST STOP JUMPDEST PUSH2 0x10A PUSH1 0x4 DUP1 CALLDATASIZE SUB PUSH1 0x20 DUP2 LT ISZERO PUSH2 0x122 JUMPI PUSH1 0x0 DUP1 REVERT JUMPDEST POP CALLDATALOAD PUSH2 0x494 JUMP JUMPDEST PUSH2 0xCC PUSH1 0x4 DUP1 CALLDATASIZE SUB PUSH1 0x20 DUP2 LT ISZERO PUSH2 0x13F JUMPI PUSH1 0x0 DUP1 REVERT JUMPDEST POP CALLDATALOAD PUSH1 0x1 PUSH1 0x1 PUSH1 0xA0 SHL SUB AND PUSH2 0x601 JUMP JUMPDEST PUSH2 0xCC PUSH1 0x4 DUP1 CALLDATASIZE SUB PUSH1 0x40 DUP2 LT ISZERO PUSH2 0x165 JUMPI PUSH1 0x0 DUP1 REVERT JUMPDEST POP PUSH1 0x1 PUSH1 0x1 PUSH1 0xA0 SHL SUB DUP2 CALLDATALOAD DUP2 AND SWAP2 PUSH1 0x20 ADD CALLDATALOAD AND PUSH2 0x6C9 JUMP JUMPDEST PUSH2 0xCC PUSH2 0x70B JUMP JUMPDEST PUSH2 0x1A2 PUSH1 0x4 DUP1 CALLDATASIZE SUB PUSH1 0x20 DUP2 LT ISZERO PUSH2 0x19B JUMPI PUSH1 0x0 DUP1 REVERT JUMPDEST POP CALLDATALOAD PUSH2 0x711 JUMP JUMPDEST PUSH1 0x40 DUP1 MLOAD PUSH1 0x1 PUSH1 0x1 PUSH1 0xA0 SHL SUB SWAP1 SWAP3 AND DUP3 MSTORE MLOAD SWAP1 DUP2 SWAP1 SUB PUSH1 0x20 ADD SWAP1 RETURN JUMPDEST PUSH2 0x1A2 PUSH2 0x738 JUMP JUMPDEST PUSH2 0x10A PUSH1 0x4 DUP1 CALLDATASIZE SUB PUSH1 0x20 DUP2 LT ISZERO PUSH2 0x1DC JUMPI PUSH1 0x0 DUP1 REVERT JUMPDEST POP CALLDATALOAD PUSH2 0x768 JUMP JUMPDEST PUSH2 0xCC PUSH1 0x4 DUP1 CALLDATASIZE SUB PUSH1 0x20 DUP2 LT ISZERO PUSH2 0x1F9 JUMPI PUSH1 0x0 DUP1 REVERT JUMPDEST POP CALLDATALOAD PUSH2 0x8D4 JUMP JUMPDEST PUSH2 0x1A2 PUSH1 0x4 DUP1 CALLDATASIZE SUB PUSH1 0x40 DUP2 LT ISZERO PUSH2 0x216 JUMPI PUSH1 0x0 DUP1 REVERT JUMPDEST POP DUP1 CALLDATALOAD SWAP1 PUSH1 0x20 ADD CALLDATALOAD PUSH2 0x8E6 JUMP JUMPDEST PUSH2 0x246 PUSH1 0x4 DUP1 CALLDATASIZE SUB PUSH1 0x40 DUP2 LT ISZERO PUSH2 0x239 JUMPI PUSH1 0x0 DUP1 REVERT JUMPDEST POP DUP1 CALLDATALOAD SWAP1 PUSH1 0x20 ADD CALLDATALOAD PUSH2 0x920 JUMP JUMPDEST PUSH1 0x40 MLOAD DUP1 DUP4 PUSH1 0x1 PUSH1 0x1 PUSH1 0xA0 SHL SUB AND DUP2 MSTORE PUSH1 0x20 ADD DUP1 PUSH1 0x20 ADD DUP3 DUP2 SUB DUP3 MSTORE DUP4 DUP2 DUP2 MLOAD DUP2 MSTORE PUSH1 0x20 ADD SWAP2 POP DUP1 MLOAD SWAP1 PUSH1 0x20 ADD SWAP1 PUSH1 0x20 MUL DUP1 DUP4 DUP4 PUSH1 0x0 JUMPDEST DUP4 DUP2 LT ISZERO PUSH2 0x295 JUMPI DUP2 DUP2 ADD MLOAD DUP4 DUP3 ADD MSTORE PUSH1 0x20 ADD PUSH2 0x27D JUMP JUMPDEST POP POP POP POP SWAP1 POP ADD SWAP4 POP POP POP POP PUSH1 0x40 MLOAD DUP1 SWAP2 SUB SWAP1 RETURN JUMPDEST PUSH1 0x0 DUP3 DUP2 MSTORE PUSH1 0x2 PUSH1 0x20 MSTORE PUSH1 0x40 DUP2 KECCAK256 DUP3 JUMPDEST DUP2 SLOAD DUP2 LT ISZERO PUSH2 0x300 JUMPI PUSH1 0x1 SLOAD DUP3 DUP3 DUP2 SLOAD DUP2 LT PUSH2 0x2D2 JUMPI INVALID JUMPDEST SWAP1 PUSH1 0x0 MSTORE PUSH1 0x20 PUSH1 0x0 KECCAK256 SWAP1 PUSH1 0x2 MUL ADD PUSH1 0x1 ADD DUP1 SLOAD SWAP1 POP LT PUSH2 0x2F8 JUMPI PUSH1 0x1 ADD SWAP2 POP PUSH2 0x307 SWAP1 POP JUMP JUMPDEST PUSH1 0x1 ADD PUSH2 0x2BA JUMP JUMPDEST POP PUSH1 0x0 SWAP2 POP POP JUMPDEST SWAP3 SWAP2 POP POP JUMP JUMPDEST PUSH2 0x37A CALLER PUSH1 0x0 DUP1 SLOAD DUP1 PUSH1 0x20 MUL PUSH1 0x20 ADD PUSH1 0x40 MLOAD SWAP1 DUP2 ADD PUSH1 0x40 MSTORE DUP1 SWAP3 SWAP2 SWAP1 DUP2 DUP2 MSTORE PUSH1 0x20 ADD DUP3 DUP1 SLOAD DUP1 ISZERO PUSH2 0x367 JUMPI PUSH1 0x20 MUL DUP3 ADD SWAP2 SWAP1 PUSH1 0x0 MSTORE PUSH1 0x20 PUSH1 0x0 KECCAK256 SWAP1 JUMPDEST DUP2 SLOAD PUSH1 0x1 PUSH1 0x1 PUSH1 0xA0 SHL SUB AND DUP2 MSTORE PUSH1 0x1 SWAP1 SWAP2 ADD SWAP1 PUSH1 0x20 ADD DUP1 DUP4 GT PUSH2 0x349 JUMPI JUMPDEST POP POP POP POP POP PUSH2 0xA36 SWAP1 SWAP2 SWAP1 PUSH4 0xFFFFFFFF AND JUMP JUMPDEST PUSH2 0x3B5 JUMPI PUSH1 0x40 MLOAD PUSH3 0x461BCD PUSH1 0xE5 SHL DUP2 MSTORE PUSH1 0x4 ADD DUP1 DUP1 PUSH1 0x20 ADD DUP3 DUP2 SUB DUP3 MSTORE PUSH1 0x34 DUP2 MSTORE PUSH1 0x20 ADD DUP1 PUSH2 0xDC1 PUSH1 0x34 SWAP2 CODECOPY PUSH1 0x40 ADD SWAP2 POP POP PUSH1 0x40 MLOAD DUP1 SWAP2 SUB SWAP1 REVERT JUMPDEST PUSH2 0x3BD PUSH2 0xA85 JUMP JUMPDEST PUSH1 0x0 SLOAD DUP3 LT PUSH2 0x3FD JUMPI PUSH1 0x40 MLOAD PUSH3 0x461BCD PUSH1 0xE5 SHL DUP2 MSTORE PUSH1 0x4 ADD DUP1 DUP1 PUSH1 0x20 ADD DUP3 DUP2 SUB DUP3 MSTORE PUSH1 0x2D DUP2 MSTORE PUSH1 0x20 ADD DUP1 PUSH2 0xE23 PUSH1 0x2D SWAP2 CODECOPY PUSH1 0x40 ADD SWAP2 POP POP PUSH1 0x40 MLOAD DUP1 SWAP2 SUB SWAP1 REVERT JUMPDEST DUP1 PUSH1 0x1 PUSH1 0x1 PUSH1 0xA0 SHL SUB AND PUSH1 0x0 DUP4 DUP2 SLOAD DUP2 LT PUSH2 0x414 JUMPI INVALID JUMPDEST PUSH1 0x0 SWAP2 DUP3 MSTORE PUSH1 0x20 DUP3 KECCAK256 ADD SLOAD PUSH1 0x40 MLOAD PUSH1 0x1 PUSH1 0x1 PUSH1 0xA0 SHL SUB SWAP1 SWAP2 AND SWAP2 CALLER SWAP2 PUSH32 0xF48DD64D794D3623209EDDDAA975CFEAE5B0EF403FBCE64D7B377CEB50396C74 SWAP2 SWAP1 LOG4 DUP1 PUSH1 0x0 DUP4 DUP2 SLOAD DUP2 LT PUSH2 0x462 JUMPI INVALID JUMPDEST SWAP1 PUSH1 0x0 MSTORE PUSH1 0x20 PUSH1 0x0 KECCAK256 ADD PUSH1 0x0 PUSH2 0x100 EXP DUP2 SLOAD DUP2 PUSH1 0x1 PUSH1 0x1 PUSH1 0xA0 SHL SUB MUL NOT AND SWAP1 DUP4 PUSH1 0x1 PUSH1 0x1 PUSH1 0xA0 SHL SUB AND MUL OR SWAP1 SSTORE POP POP POP JUMP JUMPDEST PUSH2 0x4FF CALLER PUSH1 0x0 DUP1 SLOAD DUP1 PUSH1 0x20 MUL PUSH1 0x20 ADD PUSH1 0x40 MLOAD SWAP1 DUP2 ADD PUSH1 0x40 MSTORE DUP1 SWAP3 SWAP2 SWAP1 DUP2 DUP2 MSTORE PUSH1 0x20 ADD DUP3 DUP1 SLOAD DUP1 ISZERO PUSH2 0x367 JUMPI PUSH1 0x20 MUL DUP3 ADD SWAP2 SWAP1 PUSH1 0x0 MSTORE PUSH1 0x20 PUSH1 0x0 KECCAK256 SWAP1 DUP2 SLOAD PUSH1 0x1 PUSH1 0x1 PUSH1 0xA0 SHL SUB AND DUP2 MSTORE PUSH1 0x1 SWAP1 SWAP2 ADD SWAP1 PUSH1 0x20 ADD DUP1 DUP4 GT PUSH2 0x349 JUMPI POP POP POP POP POP PUSH2 0xA36 SWAP1 SWAP2 SWAP1 PUSH4 0xFFFFFFFF AND JUMP JUMPDEST PUSH2 0x53A JUMPI PUSH1 0x40 MLOAD PUSH3 0x461BCD PUSH1 0xE5 SHL DUP2 MSTORE PUSH1 0x4 ADD DUP1 DUP1 PUSH1 0x20 ADD DUP3 DUP2 SUB DUP3 MSTORE PUSH1 0x34 DUP2 MSTORE PUSH1 0x20 ADD DUP1 PUSH2 0xDC1 PUSH1 0x34 SWAP2 CODECOPY PUSH1 0x40 ADD SWAP2 POP POP PUSH1 0x40 MLOAD DUP1 SWAP2 SUB SWAP1 REVERT JUMPDEST PUSH1 0x0 DUP2 DUP2 MSTORE PUSH1 0x2 PUSH1 0x20 MSTORE PUSH1 0x40 DUP2 KECCAK256 SLOAD DUP3 SWAP2 SWAP1 PUSH2 0x587 JUMPI PUSH1 0x40 MLOAD PUSH3 0x461BCD PUSH1 0xE5 SHL DUP2 MSTORE PUSH1 0x4 ADD DUP1 DUP1 PUSH1 0x20 ADD DUP3 DUP2 SUB DUP3 MSTORE PUSH1 0x2F DUP2 MSTORE PUSH1 0x20 ADD DUP1 PUSH2 0xE50 PUSH1 0x2F SWAP2 CODECOPY PUSH1 0x40 ADD SWAP2 POP POP PUSH1 0x40 MLOAD DUP1 SWAP2 SUB SWAP1 REVERT JUMPDEST PUSH1 0x40 DUP1 MLOAD PUSH1 0x0 DUP2 MSTORE SWAP1 MLOAD DUP5 SWAP2 CALLER SWAP2 PUSH32 0xFB7251BA5D43BDF2193D4616DAD278FD04102E9FD2291BB9F95510A03F10F8CE SWAP2 DUP2 SWAP1 SUB PUSH1 0x20 ADD SWAP1 LOG3 PUSH1 0x0 DUP4 DUP2 MSTORE PUSH1 0x2 PUSH1 0x20 MSTORE PUSH1 0x40 DUP2 KECCAK256 DUP1 SLOAD PUSH2 0x5FB SWAP3 CALLER SWAP3 SWAP2 PUSH2 0x5DC JUMPI INVALID JUMPDEST SWAP1 PUSH1 0x0 MSTORE PUSH1 0x20 PUSH1 0x0 KECCAK256 SWAP1 PUSH1 0x2 MUL ADD PUSH1 0x1 ADD PUSH2 0xB7F SWAP1 SWAP2 SWAP1 PUSH4 0xFFFFFFFF AND JUMP JUMPDEST POP POP POP POP JUMP JUMPDEST PUSH1 0x0 DUP1 PUSH2 0x60E CALLER DUP5 PUSH2 0x6C9 JUMP JUMPDEST PUSH1 0x0 DUP2 DUP2 MSTORE PUSH1 0x2 PUSH1 0x20 DUP2 DUP2 MSTORE PUSH1 0x40 DUP1 DUP5 KECCAK256 DUP1 SLOAD DUP3 MLOAD DUP1 DUP5 ADD DUP5 MSTORE CALLER DUP2 MSTORE DUP4 MLOAD DUP8 DUP2 MSTORE DUP1 DUP7 ADD SWAP1 SWAP5 MSTORE DUP1 DUP6 ADD SWAP4 DUP5 MSTORE PUSH1 0x1 DUP1 DUP4 ADD DUP5 SSTORE SWAP3 DUP8 MSTORE SWAP6 DUP5 SWAP1 KECCAK256 DUP7 MLOAD SWAP6 DUP3 MUL ADD DUP1 SLOAD PUSH1 0x1 PUSH1 0x1 PUSH1 0xA0 SHL SUB NOT AND PUSH1 0x1 PUSH1 0x1 PUSH1 0xA0 SHL SUB SWAP1 SWAP7 AND SWAP6 SWAP1 SWAP6 OR DUP6 SSTORE SWAP2 MLOAD DUP1 MLOAD SWAP7 SWAP8 POP SWAP2 SWAP6 PUSH2 0x687 SWAP4 SWAP2 DUP6 ADD SWAP3 SWAP1 SWAP2 ADD SWAP1 PUSH2 0xD24 JUMP JUMPDEST POP POP PUSH1 0x40 MLOAD DUP4 SWAP2 POP PUSH1 0x1 PUSH1 0x1 PUSH1 0xA0 SHL SUB DUP7 AND SWAP1 CALLER SWAP1 PUSH32 0x313DF56710BFEC73D53FCB8E8D48FF821D5B2E9A113AAD1E9BFC7997EF5A0D7F SWAP1 PUSH1 0x0 SWAP1 LOG4 SWAP4 SWAP3 POP POP POP JUMP JUMPDEST PUSH1 0x40 DUP1 MLOAD PUSH1 0x1 PUSH1 0x1 PUSH1 0x60 SHL SUB NOT PUSH1 0x60 SWAP5 DUP6 SHL DUP2 AND PUSH1 0x20 DUP1 DUP5 ADD SWAP2 SWAP1 SWAP2 MSTORE SWAP4 SWAP1 SWAP5 SHL SWAP1 SWAP4 AND PUSH1 0x34 DUP5 ADD MSTORE DUP1 MLOAD PUSH1 0x28 DUP2 DUP6 SUB ADD DUP2 MSTORE PUSH1 0x48 SWAP1 SWAP4 ADD SWAP1 MSTORE DUP2 MLOAD SWAP2 ADD KECCAK256 SWAP1 JUMP JUMPDEST PUSH1 0x1 SLOAD DUP2 JUMP JUMPDEST PUSH1 0x0 DUP2 DUP2 SLOAD DUP2 LT PUSH2 0x71E JUMPI INVALID JUMPDEST PUSH1 0x0 SWAP2 DUP3 MSTORE PUSH1 0x20 SWAP1 SWAP2 KECCAK256 ADD SLOAD PUSH1 0x1 PUSH1 0x1 PUSH1 0xA0 SHL SUB AND SWAP1 POP DUP2 JUMP JUMPDEST PUSH1 0x0 PUSH2 0x763 PUSH32 0x8DDDB57468CF5338EE155397AD1400A7A564308824F517D20A8A7C516523BB47 PUSH2 0xC89 JUMP JUMPDEST SWAP1 POP SWAP1 JUMP JUMPDEST PUSH2 0x7D3 CALLER PUSH1 0x0 DUP1 SLOAD DUP1 PUSH1 0x20 MUL PUSH1 0x20 ADD PUSH1 0x40 MLOAD SWAP1 DUP2 ADD PUSH1 0x40 MSTORE DUP1 SWAP3 SWAP2 SWAP1 DUP2 DUP2 MSTORE PUSH1 0x20 ADD DUP3 DUP1 SLOAD DUP1 ISZERO PUSH2 0x367 JUMPI PUSH1 0x20 MUL DUP3 ADD SWAP2 SWAP1 PUSH1 0x0 MSTORE PUSH1 0x20 PUSH1 0x0 KECCAK256 SWAP1 DUP2 SLOAD PUSH1 0x1 PUSH1 0x1 PUSH1 0xA0 SHL SUB AND DUP2 MSTORE PUSH1 0x1 SWAP1 SWAP2 ADD SWAP1 PUSH1 0x20 ADD DUP1 DUP4 GT PUSH2 0x349 JUMPI POP POP POP POP POP PUSH2 0xA36 SWAP1 SWAP2 SWAP1 PUSH4 0xFFFFFFFF AND JUMP JUMPDEST PUSH2 0x80E JUMPI PUSH1 0x40 MLOAD PUSH3 0x461BCD PUSH1 0xE5 SHL DUP2 MSTORE PUSH1 0x4 ADD DUP1 DUP1 PUSH1 0x20 ADD DUP3 DUP2 SUB DUP3 MSTORE PUSH1 0x34 DUP2 MSTORE PUSH1 0x20 ADD DUP1 PUSH2 0xDC1 PUSH1 0x34 SWAP2 CODECOPY PUSH1 0x40 ADD SWAP2 POP POP PUSH1 0x40 MLOAD DUP1 SWAP2 SUB SWAP1 REVERT JUMPDEST PUSH1 0x0 DUP2 DUP2 MSTORE PUSH1 0x2 PUSH1 0x20 MSTORE PUSH1 0x40 DUP2 KECCAK256 SLOAD DUP3 SWAP2 SWAP1 PUSH2 0x85B JUMPI PUSH1 0x40 MLOAD PUSH3 0x461BCD PUSH1 0xE5 SHL DUP2 MSTORE PUSH1 0x4 ADD DUP1 DUP1 PUSH1 0x20 ADD DUP3 DUP2 SUB DUP3 MSTORE PUSH1 0x2F DUP2 MSTORE PUSH1 0x20 ADD DUP1 PUSH2 0xE50 PUSH1 0x2F SWAP2 CODECOPY PUSH1 0x40 ADD SWAP2 POP POP PUSH1 0x40 MLOAD DUP1 SWAP2 SUB SWAP1 REVERT JUMPDEST PUSH1 0x40 DUP1 MLOAD PUSH1 0x0 DUP2 MSTORE SWAP1 MLOAD DUP5 SWAP2 CALLER SWAP2 PUSH32 0x2D579B8389BF07E7CE434F3BD88B036A33D28787D19AF73A5AA2003A5DCB7D36 SWAP2 DUP2 SWAP1 SUB PUSH1 0x20 ADD SWAP1 LOG3 PUSH1 0x0 DUP4 DUP2 MSTORE PUSH1 0x2 PUSH1 0x20 MSTORE PUSH1 0x40 DUP2 KECCAK256 DUP1 SLOAD PUSH2 0x8CF SWAP3 CALLER SWAP3 SWAP2 PUSH2 0x8B0 JUMPI INVALID JUMPDEST SWAP1 PUSH1 0x0 MSTORE PUSH1 0x20 PUSH1 0x0 KECCAK256 SWAP1 PUSH1 0x2 MUL ADD PUSH1 0x1 ADD PUSH2 0xC8D SWAP1 SWAP2 SWAP1 PUSH4 0xFFFFFFFF AND JUMP JUMPDEST POP POP POP JUMP JUMPDEST PUSH1 0x0 SWAP1 DUP2 MSTORE PUSH1 0x2 PUSH1 0x20 MSTORE PUSH1 0x40 SWAP1 KECCAK256 SLOAD SWAP1 JUMP JUMPDEST PUSH1 0x2 PUSH1 0x20 MSTORE DUP2 PUSH1 0x0 MSTORE PUSH1 0x40 PUSH1 0x0 KECCAK256 DUP2 DUP2 SLOAD DUP2 LT PUSH2 0x8FF JUMPI INVALID JUMPDEST PUSH1 0x0 SWAP2 DUP3 MSTORE PUSH1 0x20 SWAP1 SWAP2 KECCAK256 PUSH1 0x2 SWAP1 SWAP2 MUL ADD SLOAD PUSH1 0x1 PUSH1 0x1 PUSH1 0xA0 SHL SUB AND SWAP2 POP DUP3 SWAP1 POP JUMP JUMPDEST PUSH1 0x0 DUP3 DUP2 MSTORE PUSH1 0x2 PUSH1 0x20 MSTORE PUSH1 0x40 DUP2 KECCAK256 SLOAD PUSH1 0x60 SWAP1 DUP5 SWAP1 DUP5 SWAP1 DUP2 LT PUSH2 0x973 JUMPI PUSH1 0x40 MLOAD PUSH3 0x461BCD PUSH1 0xE5 SHL DUP2 MSTORE PUSH1 0x4 ADD DUP1 DUP1 PUSH1 0x20 ADD DUP3 DUP2 SUB DUP3 MSTORE PUSH1 0x2F DUP2 MSTORE PUSH1 0x20 ADD DUP1 PUSH2 0xE50 PUSH1 0x2F SWAP2 CODECOPY PUSH1 0x40 ADD SWAP2 POP POP PUSH1 0x40 MLOAD DUP1 SWAP2 SUB SWAP1 REVERT JUMPDEST PUSH2 0x97B PUSH2 0xD89 JUMP JUMPDEST PUSH1 0x0 DUP8 DUP2 MSTORE PUSH1 0x2 PUSH1 0x20 MSTORE PUSH1 0x40 SWAP1 KECCAK256 DUP1 SLOAD DUP8 SWAP1 DUP2 LT PUSH2 0x995 JUMPI INVALID JUMPDEST PUSH1 0x0 SWAP2 DUP3 MSTORE PUSH1 0x20 SWAP2 DUP3 SWAP1 KECCAK256 PUSH1 0x40 DUP1 MLOAD DUP1 DUP3 ADD DUP3 MSTORE PUSH1 0x2 SWAP1 SWAP4 MUL SWAP1 SWAP2 ADD DUP1 SLOAD PUSH1 0x1 PUSH1 0x1 PUSH1 0xA0 SHL SUB AND DUP4 MSTORE PUSH1 0x1 DUP2 ADD DUP1 SLOAD DUP4 MLOAD DUP2 DUP8 MUL DUP2 ADD DUP8 ADD SWAP1 SWAP5 MSTORE DUP1 DUP5 MSTORE SWAP4 SWAP5 SWAP2 SWAP4 DUP6 DUP4 ADD SWAP4 SWAP3 DUP4 ADD DUP3 DUP3 DUP1 ISZERO PUSH2 0xA15 JUMPI PUSH1 0x20 MUL DUP3 ADD SWAP2 SWAP1 PUSH1 0x0 MSTORE PUSH1 0x20 PUSH1 0x0 KECCAK256 SWAP1 JUMPDEST DUP2 SLOAD PUSH1 0x1 PUSH1 0x1 PUSH1 0xA0 SHL SUB AND DUP2 MSTORE PUSH1 0x1 SWAP1 SWAP2 ADD SWAP1 PUSH1 0x20 ADD DUP1 DUP4 GT PUSH2 0x9F7 JUMPI JUMPDEST POP POP POP SWAP2 SWAP1 SWAP3 MSTORE POP POP DUP2 MLOAD PUSH1 0x20 SWAP1 SWAP3 ADD MLOAD SWAP2 SWAP10 SWAP2 SWAP9 POP SWAP1 SWAP7 POP POP POP POP POP POP POP JUMP JUMPDEST DUP2 MLOAD PUSH1 0x0 SWAP1 DUP2 JUMPDEST DUP2 DUP2 LT ISZERO PUSH2 0x300 JUMPI DUP4 PUSH1 0x1 PUSH1 0x1 PUSH1 0xA0 SHL SUB AND DUP6 DUP3 DUP2 MLOAD DUP2 LT PUSH2 0xA5B JUMPI INVALID JUMPDEST PUSH1 0x20 MUL PUSH1 0x20 ADD ADD MLOAD PUSH1 0x1 PUSH1 0x1 PUSH1 0xA0 SHL SUB AND EQ ISZERO PUSH2 0xA7D JUMPI PUSH1 0x1 SWAP3 POP POP POP PUSH2 0x307 JUMP JUMPDEST PUSH1 0x1 ADD PUSH2 0xA3D JUMP JUMPDEST PUSH1 0x40 DUP1 MLOAD CALLER PUSH1 0x60 SWAP1 DUP2 SHL PUSH1 0x20 DUP1 DUP5 ADD SWAP2 SWAP1 SWAP2 MSTORE ADDRESS SWAP1 SWAP2 SHL PUSH1 0x34 DUP4 ADD MSTORE DUP3 MLOAD PUSH1 0x28 DUP2 DUP5 SUB ADD DUP2 MSTORE PUSH1 0x48 SWAP1 SWAP3 ADD SWAP1 SWAP3 MSTORE DUP1 MLOAD SWAP2 ADD KECCAK256 CALLVALUE SWAP1 PUSH1 0x0 PUSH2 0xAC4 PUSH2 0x738 JUMP JUMPDEST SWAP1 POP PUSH1 0x0 DUP2 PUSH1 0x1 PUSH1 0x1 PUSH1 0xA0 SHL SUB AND PUSH4 0x1EBAA166 DUP5 PUSH1 0x0 PUSH1 0x40 MLOAD DUP4 PUSH4 0xFFFFFFFF AND PUSH1 0xE0 SHL DUP2 MSTORE PUSH1 0x4 ADD DUP1 DUP4 DUP2 MSTORE PUSH1 0x20 ADD DUP3 DUP2 MSTORE PUSH1 0x20 ADD SWAP3 POP POP POP PUSH1 0x20 PUSH1 0x40 MLOAD DUP1 DUP4 SUB DUP2 DUP7 DUP1 EXTCODESIZE ISZERO DUP1 ISZERO PUSH2 0xB15 JUMPI PUSH1 0x0 DUP1 REVERT JUMPDEST POP GAS STATICCALL ISZERO DUP1 ISZERO PUSH2 0xB29 JUMPI RETURNDATASIZE PUSH1 0x0 DUP1 RETURNDATACOPY RETURNDATASIZE PUSH1 0x0 REVERT JUMPDEST POP POP POP POP PUSH1 0x40 MLOAD RETURNDATASIZE PUSH1 0x20 DUP2 LT ISZERO PUSH2 0xB3F JUMPI PUSH1 0x0 DUP1 REVERT JUMPDEST POP MLOAD SWAP1 POP DUP1 PUSH2 0x5FB JUMPI PUSH1 0x40 MLOAD PUSH3 0x461BCD PUSH1 0xE5 SHL DUP2 MSTORE PUSH1 0x4 ADD DUP1 DUP1 PUSH1 0x20 ADD DUP3 DUP2 SUB DUP3 MSTORE PUSH1 0x2E DUP2 MSTORE PUSH1 0x20 ADD DUP1 PUSH2 0xDF5 PUSH1 0x2E SWAP2 CODECOPY PUSH1 0x40 ADD SWAP2 POP POP PUSH1 0x40 MLOAD DUP1 SWAP2 SUB SWAP1 REVERT JUMPDEST DUP2 SLOAD PUSH1 0x0 SWAP1 DUP2 JUMPDEST DUP2 DUP2 LT ISZERO PUSH2 0xBCC JUMPI DUP4 PUSH1 0x1 PUSH1 0x1 PUSH1 0xA0 SHL SUB AND DUP6 DUP3 DUP2 SLOAD DUP2 LT PUSH2 0xBA4 JUMPI INVALID JUMPDEST PUSH1 0x0 SWAP2 DUP3 MSTORE PUSH1 0x20 SWAP1 SWAP2 KECCAK256 ADD SLOAD PUSH1 0x1 PUSH1 0x1 PUSH1 0xA0 SHL SUB AND EQ ISZERO PUSH2 0xBC4 JUMPI PUSH2 0xBCC JUMP JUMPDEST PUSH1 0x1 ADD PUSH2 0xB86 JUMP JUMPDEST DUP2 DUP2 LT ISZERO PUSH2 0xC7E JUMPI PUSH1 0x1 DUP3 SUB DUP2 EQ PUSH2 0xC46 JUMPI DUP5 PUSH1 0x1 DUP4 SUB DUP2 SLOAD DUP2 LT PUSH2 0xBED JUMPI INVALID JUMPDEST SWAP1 PUSH1 0x0 MSTORE PUSH1 0x20 PUSH1 0x0 KECCAK256 ADD PUSH1 0x0 SWAP1 SLOAD SWAP1 PUSH2 0x100 EXP SWAP1 DIV PUSH1 0x1 PUSH1 0x1 PUSH1 0xA0 SHL SUB AND DUP6 DUP3 DUP2 SLOAD DUP2 LT PUSH2 0xC17 JUMPI INVALID JUMPDEST SWAP1 PUSH1 0x0 MSTORE PUSH1 0x20 PUSH1 0x0 KECCAK256 ADD PUSH1 0x0 PUSH2 0x100 EXP DUP2 SLOAD DUP2 PUSH1 0x1 PUSH1 0x1 PUSH1 0xA0 SHL SUB MUL NOT AND SWAP1 DUP4 PUSH1 0x1 PUSH1 0x1 PUSH1 0xA0 SHL SUB AND MUL OR SWAP1 SSTORE POP JUMPDEST DUP5 DUP1 SLOAD DUP1 PUSH2 0xC50 JUMPI INVALID JUMPDEST PUSH1 0x0 DUP3 DUP2 MSTORE PUSH1 0x20 SWAP1 KECCAK256 DUP2 ADD PUSH1 0x0 NOT SWAP1 DUP2 ADD DUP1 SLOAD PUSH1 0x1 PUSH1 0x1 PUSH1 0xA0 SHL SUB NOT AND SWAP1 SSTORE ADD SWAP1 SSTORE POP PUSH1 0x1 SWAP2 POP PUSH2 0x307 SWAP1 POP JUMP JUMPDEST POP PUSH1 0x0 SWAP5 SWAP4 POP POP POP POP JUMP JUMPDEST SLOAD SWAP1 JUMP JUMPDEST PUSH2 0xCF0 DUP3 DUP1 SLOAD DUP1 PUSH1 0x20 MUL PUSH1 0x20 ADD PUSH1 0x40 MLOAD SWAP1 DUP2 ADD PUSH1 0x40 MSTORE DUP1 SWAP3 SWAP2 SWAP1 DUP2 DUP2 MSTORE PUSH1 0x20 ADD DUP3 DUP1 SLOAD DUP1 ISZERO PUSH2 0xCE5 JUMPI PUSH1 0x20 MUL DUP3 ADD SWAP2 SWAP1 PUSH1 0x0 MSTORE PUSH1 0x20 PUSH1 0x0 KECCAK256 SWAP1 JUMPDEST DUP2 SLOAD PUSH1 0x1 PUSH1 0x1 PUSH1 0xA0 SHL SUB AND DUP2 MSTORE PUSH1 0x1 SWAP1 SWAP2 ADD SWAP1 PUSH1 0x20 ADD DUP1 DUP4 GT PUSH2 0xCC7 JUMPI JUMPDEST POP POP POP POP POP DUP3 PUSH2 0xA36 JUMP JUMPDEST PUSH2 0xD20 JUMPI DUP2 SLOAD PUSH1 0x1 DUP2 ADD DUP4 SSTORE PUSH1 0x0 DUP4 DUP2 MSTORE PUSH1 0x20 SWAP1 KECCAK256 ADD DUP1 SLOAD PUSH1 0x1 PUSH1 0x1 PUSH1 0xA0 SHL SUB NOT AND PUSH1 0x1 PUSH1 0x1 PUSH1 0xA0 SHL SUB DUP4 AND OR SWAP1 SSTORE JUMPDEST POP POP JUMP JUMPDEST DUP3 DUP1 SLOAD DUP3 DUP3 SSTORE SWAP1 PUSH1 0x0 MSTORE PUSH1 0x20 PUSH1 0x0 KECCAK256 SWAP1 DUP2 ADD SWAP3 DUP3 ISZERO PUSH2 0xD79 JUMPI SWAP2 PUSH1 0x20 MUL DUP3 ADD JUMPDEST DUP3 DUP2 GT ISZERO PUSH2 0xD79 JUMPI DUP3 MLOAD DUP3 SLOAD PUSH1 0x1 PUSH1 0x1 PUSH1 0xA0 SHL SUB NOT AND PUSH1 0x1 PUSH1 0x1 PUSH1 0xA0 SHL SUB SWAP1 SWAP2 AND OR DUP3 SSTORE PUSH1 0x20 SWAP1 SWAP3 ADD SWAP2 PUSH1 0x1 SWAP1 SWAP2 ADD SWAP1 PUSH2 0xD44 JUMP JUMPDEST POP PUSH2 0xD85 SWAP3 SWAP2 POP PUSH2 0xDA1 JUMP JUMPDEST POP SWAP1 JUMP JUMPDEST PUSH1 0x40 DUP1 MLOAD DUP1 DUP3 ADD SWAP1 SWAP2 MSTORE PUSH1 0x0 DUP2 MSTORE PUSH1 0x60 PUSH1 0x20 DUP3 ADD MSTORE SWAP1 JUMP JUMPDEST JUMPDEST DUP1 DUP3 GT ISZERO PUSH2 0xD85 JUMPI DUP1 SLOAD PUSH1 0x1 PUSH1 0x1 PUSH1 0xA0 SHL SUB NOT AND DUP2 SSTORE PUSH1 0x1 ADD PUSH2 0xDA2 JUMP INVALID 0x4D PUSH22 0x6C7469706C65205369676E6174757265203A2063616C PUSH13 0x6572206973206E6F7420696E20 PUSH21 0x6865206F776E65724C697374216D756C7469536967 PUSH15 0x6174757265436C69656E74203A2054 PUSH9 0x697320747820697320 PUSH15 0x6F7420617072726F7665644D756C74 PUSH10 0x706C65205369676E6174 PUSH22 0x7265203A204F776E657220696E646578206973206F76 PUSH6 0x72666C6F7721 0x4D PUSH22 0x6C7469706C65205369676E6174757265203A204D6573 PUSH20 0x61676520696E646578206973206F766572666C6F PUSH24 0x21A264697066735822122069E1FD7977E41F6F82994DF957 0xE3 0xC7 SWAP6 GASLIMIT SDIV 0xE3 0x4A 0xCE 0xC3 CREATE EXTCODEHASH REVERT PC SDIV PUSH31 0xE96DB62664736F6C634300060C00334D756C7469706C65205369676E617475 PUSH19 0x65203A205369676E6174757265207468726573 PUSH9 0x6F6C64206973206772 PUSH6 0x617465722074 PUSH9 0x616E206F776E657273 0x27 KECCAK256 PUSH13 0x656E677468216D756C74695369 PUSH8 0x6E6174757265436C PUSH10 0x656E74203A204D756C74 PUSH10 0x706C65207369676E6174 PUSH22 0x726520636F6E74726163742061646472657373206973 KECCAK256 PUSH27 0x65726F210000000000000000000000000000000000000000000000 "},"methodIdentifiers":{"createApplication(address)":"35157be1","getApplicationCount(bytes32)":"7000823d","getApplicationHash(address,address)":"39270196","getApplicationInfo(bytes32,uint256)":"df18ec8f","getMultiSignatureAddress()":"638c7e17","getValidSignature(bytes32,uint256)":"1ebaa166","revokeSignApplication(bytes32)":"25675059","signApplication(bytes32)":"665bbfde","signatureMap(bytes32,uint256)":"cf195165","signatureOwners(uint256)":"5e63ff3f","threshold()":"42cde4e8","transferOwner(uint256,address)":"1ebe85ba"}}}}}