{"contracts/multiSignature/multiSignatureClient.sol":{"multiSignatureClient":{"abi":[{"inputs":[{"internalType":"address","name":"multiSignature","type":"address"}],"stateMutability":"nonpayable","type":"constructor"},{"inputs":[],"name":"getMultiSignatureAddress","outputs":[{"internalType":"address","name":"","type":"address"}],"stateMutability":"view","type":"function"}],"evm":{"bytecode":{"linkReferences":{},"object":"608060405234801561001057600080fd5b506040516101bf3803806101bf8339818101604052602081101561003357600080fd5b50516001600160a01b03811661007a5760405162461bcd60e51b815260040180806020018281038252604381526020018061017c6043913960600191505060405180910390fd5b6100ad7f8dddb57468cf5338ee155397ad1400a7a564308824f517d20a8a7c516523bb476001600160a01b0383166100b3565b506100b7565b9055565b60b7806100c56000396000f3fe6080604052348015600f57600080fd5b506004361060285760003560e01c8063638c7e1714602d575b600080fd5b6033604f565b604080516001600160a01b039092168252519081900360200190f35b600060787f8dddb57468cf5338ee155397ad1400a7a564308824f517d20a8a7c516523bb47607d565b905090565b549056fea26469706673582212206e1094d4220072953d06fbb0585b872bf41d3575af777d4da177d10dff3e77c664736f6c634300060c00336d756c74695369676e6174757265436c69656e74203a204d756c7469706c65207369676e617475726520636f6e74726163742061646472657373206973207a65726f21","opcodes":"PUSH1 0x80 PUSH1 0x40 MSTORE CALLVALUE DUP1 ISZERO PUSH2 0x10 JUMPI PUSH1 0x0 DUP1 REVERT JUMPDEST POP PUSH1 0x40 MLOAD PUSH2 0x1BF CODESIZE SUB DUP1 PUSH2 0x1BF DUP4 CODECOPY DUP2 DUP2 ADD PUSH1 0x40 MSTORE PUSH1 0x20 DUP2 LT ISZERO PUSH2 0x33 JUMPI PUSH1 0x0 DUP1 REVERT JUMPDEST POP MLOAD PUSH1 0x1 PUSH1 0x1 PUSH1 0xA0 SHL SUB DUP2 AND PUSH2 0x7A JUMPI PUSH1 0x40 MLOAD PUSH3 0x461BCD PUSH1 0xE5 SHL DUP2 MSTORE PUSH1 0x4 ADD DUP1 DUP1 PUSH1 0x20 ADD DUP3 DUP2 SUB DUP3 MSTORE PUSH1 0x43 DUP2 MSTORE PUSH1 0x20 ADD DUP1 PUSH2 0x17C PUSH1 0x43 SWAP2 CODECOPY PUSH1 0x60 ADD SWAP2 POP POP PUSH1 0x40 MLOAD DUP1 SWAP2 SUB SWAP1 REVERT JUMPDEST PUSH2 0xAD PUSH32 0x8DDDB57468CF5338EE155397AD1400A7A564308824F517D20A8A7C516523BB47 PUSH1 0x1 PUSH1 0x1 PUSH1 0xA0 SHL SUB DUP4 AND PUSH2 0xB3 JUMP JUMPDEST POP PUSH2 0xB7 JUMP JUMPDEST SWAP1 SSTORE JUMP JUMPDEST PUSH1 0xB7 DUP1 PUSH2 0xC5 PUSH1 0x0 CODECOPY PUSH1 0x0 RETURN INVALID PUSH1 0x80 PUSH1 0x40 MSTORE CALLVALUE DUP1 ISZERO PUSH1 0xF JUMPI PUSH1 0x0 DUP1 REVERT JUMPDEST POP PUSH1 0x4 CALLDATASIZE LT PUSH1 0x28 JUMPI PUSH1 0x0 CALLDATALOAD PUSH1 0xE0 SHR DUP1 PUSH4 0x638C7E17 EQ PUSH1 0x2D JUMPI JUMPDEST PUSH1 0x0 DUP1 REVERT JUMPDEST PUSH1 0x33 PUSH1 0x4F JUMP JUMPDEST PUSH1 0x40 DUP1 MLOAD PUSH1 0x1 PUSH1 0x1 PUSH1 0xA0 SHL SUB SWAP1 SWAP3 AND DUP3 MSTORE MLOAD SWAP1 DUP2 SWAP1 SUB PUSH1 0x20 ADD SWAP1 RETURN JUMPDEST PUSH1 0x0 PUSH1 0x78 PUSH32 0x8DDDB57468CF5338EE155397AD1400A7A564308824F517D20A8A7C516523BB47 PUSH1 0x7D JUMP JUMPDEST SWAP1 POP SWAP1 JUMP JUMPDEST SLOAD SWAP1 JUMP INVALID LOG2 PUSH5 0x6970667358 0x22 SLT KECCAK256 PUSH15 0x1094D4220072953D06FBB0585B872B DELEGATECALL SAR CALLDATALOAD PUSH22 0xAF777D4DA177D10DFF3E77C664736F6C634300060C00 CALLER PUSH14 0x756C74695369676E617475726543 PUSH13 0x69656E74203A204D756C746970 PUSH13 0x65207369676E61747572652063 PUSH16 0x6E747261637420616464726573732069 PUSH20 0x207A65726F210000000000000000000000000000 "},"methodIdentifiers":{"getMultiSignatureAddress()":"638c7e17"}}}}}