{
  "_format": "hh-sol-artifact-1",
  "contractName": "DebtToken",
  "sourceName": "contracts/pledge/DebtToken.sol",
  "abi": [
    {
      "inputs": [
        {
          "internalType": "string",
          "name": "_name",
          "type": "string"
        },
        {
          "internalType": "string",
          "name": "_symbol",
          "type": "string"
        },
        {
          "internalType": "address",
          "name": "multiSignature",
          "type": "address"
        }
      ],
      "stateMutability": "nonpayable",
      "type": "constructor"
    },
    {
      "anonymous": false,
      "inputs": [
        {
          "indexed": true,
          "internalType": "address",
          "name": "owner",
          "type": "address"
        },
        {
          "indexed": true,
          "internalType": "address",
          "name": "spender",
          "type": "address"
        },
        {
          "indexed": false,
          "internalType": "uint256",
          "name": "value",
          "type": "uint256"
        }
      ],
      "name": "Approval",
      "type": "event"
    },
    {
      "anonymous": false,
      "inputs": [
        {
          "indexed": true,
          "internalType": "address",
          "name": "from",
          "type": "address"
        },
        {
          "indexed": true,
          "internalType": "address",
          "name": "to",
          "type": "address"
        },
        {
          "indexed": false,
          "internalType": "uint256",
          "name": "value",
          "type": "uint256"
        }
      ],
      "name": "Transfer",
      "type": "event"
    },
    {
      "inputs": [
        {
          "internalType": "address",
          "name": "_addMinter",
          "type": "address"
        }
      ],
      "name": "addMinter",
      "outputs": [
        {
          "internalType": "bool",
          "name": "",
          "type": "bool"
        }
      ],
      "stateMutability": "nonpayable",
      "type": "function"
    },
    {
      "inputs": [
        {
          "internalType": "address",
          "name": "owner",
          "type": "address"
        },
        {
          "internalType": "address",
          "name": "spender",
          "type": "address"
        }
      ],
      "name": "allowance",
      "outputs": [
        {
          "internalType": "uint256",
          "name": "",
          "type": "uint256"
        }
      ],
      "stateMutability": "view",
      "type": "function"
    },
    {
      "inputs": [
        {
          "internalType": "address",
          "name": "spender",
          "type": "address"
        },
        {
          "internalType": "uint256",
          "name": "amount",
          "type": "uint256"
        }
      ],
      "name": "approve",
      "outputs": [
        {
          "internalType": "bool",
          "name": "",
          "type": "bool"
        }
      ],
      "stateMutability": "nonpayable",
      "type": "function"
    },
    {
      "inputs": [
        {
          "internalType": "address",
          "name": "account",
          "type": "address"
        }
      ],
      "name": "balanceOf",
      "outputs": [
        {
          "internalType": "uint256",
          "name": "",
          "type": "uint256"
        }
      ],
      "stateMutability": "view",
      "type": "function"
    },
    {
      "inputs": [
        {
          "internalType": "address",
          "name": "_from",
          "type": "address"
        },
        {
          "internalType": "uint256",
          "name": "_amount",
          "type": "uint256"
        }
      ],
      "name": "burn",
      "outputs": [
        {
          "internalType": "bool",
          "name": "",
          "type": "bool"
        }
      ],
      "stateMutability": "nonpayable",
      "type": "function"
    },
    {
      "inputs": [],
      "name": "decimals",
      "outputs": [
        {
          "internalType": "uint8",
          "name": "",
          "type": "uint8"
        }
      ],
      "stateMutability": "view",
      "type": "function"
    },
    {
      "inputs": [
        {
          "internalType": "address",
          "name": "spender",
          "type": "address"
        },
        {
          "internalType": "uint256",
          "name": "subtractedValue",
          "type": "uint256"
        }
      ],
      "name": "decreaseAllowance",
      "outputs": [
        {
          "internalType": "bool",
          "name": "",
          "type": "bool"
        }
      ],
      "stateMutability": "nonpayable",
      "type": "function"
    },
    {
      "inputs": [
        {
          "internalType": "address",
          "name": "_delMinter",
          "type": "address"
        }
      ],
      "name": "delMinter",
      "outputs": [
        {
          "internalType": "bool",
          "name": "",
          "type": "bool"
        }
      ],
      "stateMutability": "nonpayable",
      "type": "function"
    },
    {
      "inputs": [
        {
          "internalType": "uint256",
          "name": "_index",
          "type": "uint256"
        }
      ],
      "name": "getMinter",
      "outputs": [
        {
          "internalType": "address",
          "name": "",
          "type": "address"
        }
      ],
      "stateMutability": "view",
      "type": "function"
    },
    {
      "inputs": [],
      "name": "getMinterLength",
      "outputs": [
        {
          "internalType": "uint256",
          "name": "",
          "type": "uint256"
        }
      ],
      "stateMutability": "view",
      "type": "function"
    },
    {
      "inputs": [],
      "name": "getMultiSignatureAddress",
      "outputs": [
        {
          "internalType": "address",
          "name": "",
          "type": "address"
        }
      ],
      "stateMutability": "view",
      "type": "function"
    },
    {
      "inputs": [
        {
          "internalType": "address",
          "name": "spender",
          "type": "address"
        },
        {
          "internalType": "uint256",
          "name": "addedValue",
          "type": "uint256"
        }
      ],
      "name": "increaseAllowance",
      "outputs": [
        {
          "internalType": "bool",
          "name": "",
          "type": "bool"
        }
      ],
      "stateMutability": "nonpayable",
      "type": "function"
    },
    {
      "inputs": [
        {
          "internalType": "address",
          "name": "account",
          "type": "address"
        }
      ],
      "name": "isMinter",
      "outputs": [
        {
          "internalType": "bool",
          "name": "",
          "type": "bool"
        }
      ],
      "stateMutability": "view",
      "type": "function"
    },
    {
      "inputs": [
        {
          "internalType": "address",
          "name": "_to",
          "type": "address"
        },
        {
          "internalType": "uint256",
          "name": "_amount",
          "type": "uint256"
        }
      ],
      "name": "mint",
      "outputs": [
        {
          "internalType": "bool",
          "name": "",
          "type": "bool"
        }
      ],
      "stateMutability": "nonpayable",
      "type": "function"
    },
    {
      "inputs": [],
      "name": "name",
      "outputs": [
        {
          "internalType": "string",
          "name": "",
          "type": "string"
        }
      ],
      "stateMutability": "view",
      "type": "function"
    },
    {
      "inputs": [],
      "name": "symbol",
      "outputs": [
        {
          "internalType": "string",
          "name": "",
          "type": "string"
        }
      ],
      "stateMutability": "view",
      "type": "function"
    },
    {
      "inputs": [],
      "name": "totalSupply",
      "outputs": [
        {
          "internalType": "uint256",
          "name": "",
          "type": "uint256"
        }
      ],
      "stateMutability": "view",
      "type": "function"
    },
    {
      "inputs": [
        {
          "internalType": "address",
          "name": "recipient",
          "type": "address"
        },
        {
          "internalType": "uint256",
          "name": "amount",
          "type": "uint256"
        }
      ],
      "name": "transfer",
      "outputs": [
        {
          "internalType": "bool",
          "name": "",
          "type": "bool"
        }
      ],
      "stateMutability": "nonpayable",
      "type": "function"
    },
    {
      "inputs": [
        {
          "internalType": "address",
          "name": "sender",
          "type": "address"
        },
        {
          "internalType": "address",
          "name": "recipient",
          "type": "address"
        },
        {
          "internalType": "uint256",
          "name": "amount",
          "type": "uint256"
        }
      ],
      "name": "transferFrom",
      "outputs": [
        {
          "internalType": "bool",
          "name": "",
          "type": "bool"
        }
      ],
      "stateMutability": "nonpayable",
      "type": "function"
    }
  ],
  "bytecode": "0x60806040523480156200001157600080fd5b50604051620016d1380380620016d1833981810160405260608110156200003757600080fd5b81019080805160405193929190846401000000008211156200005857600080fd5b9083019060208201858111156200006e57600080fd5b82516401000000008111828201881017156200008957600080fd5b82525081516020918201929091019080838360005b83811015620000b85781810151838201526020016200009e565b50505050905090810190601f168015620000e65780820380516001836020036101000a031916815260200191505b50604052602001805160405193929190846401000000008211156200010a57600080fd5b9083019060208201858111156200012057600080fd5b82516401000000008111828201881017156200013b57600080fd5b82525081516020918201929091019080838360005b838110156200016a57818101518382015260200162000150565b50505050905090810190601f168015620001985780820380516001836020036101000a031916815260200191505b506040526020908101518551909350839250829186918691620001c19160039185019062000272565b508051620001d790600490602084019062000272565b50506005805460ff19166012179055506001600160a01b0381166200022e5760405162461bcd60e51b81526004018080602001828103825260438152602001806200168e6043913960600191505060405180910390fd5b620002637f8dddb57468cf5338ee155397ad1400a7a564308824f517d20a8a7c516523bb476001600160a01b0383166200026e565b50505050506200030e565b9055565b828054600181600116156101000203166002900490600052602060002090601f016020900481019282601f10620002b557805160ff1916838001178555620002e5565b82800160010185558215620002e5579182015b82811115620002e5578251825591602001919060010190620002c8565b50620002f3929150620002f7565b5090565b5b80821115620002f35760008155600101620002f8565b611370806200031e6000396000f3fe608060405234801561001057600080fd5b50600436106100f15760003560e01c80630323aac7146100f657806306fdde0314610110578063095ea7b31461018d57806318160ddd146101cd57806323338b88146101d557806323b872dd146101fb578063313ce56714610231578063395093511461024f57806340c10f191461027b5780635b7121f8146102a7578063638c7e17146102e057806370a08231146102e857806395d89b411461030e578063983b2d56146103165780639dc29fac1461033c578063a457c2d714610368578063a9059cbb14610394578063aa271e1a146103c0578063dd62ed3e146103e6575b600080fd5b6100fe610414565b60408051918252519081900360200190f35b610118610425565b6040805160208082528351818301528351919283929083019185019080838360005b8381101561015257818101518382015260200161013a565b50505050905090810190601f16801561017f5780820380516001836020036101000a031916815260200191505b509250505060405180910390f35b6101b9600480360360408110156101a357600080fd5b506001600160a01b0381351690602001356104bb565b604080519115158252519081900360200190f35b6100fe6104d9565b6101b9600480360360208110156101eb57600080fd5b50356001600160a01b03166104df565b6101b96004803603606081101561021157600080fd5b506001600160a01b03813581169160208101359091169060400135610539565b6102396105c0565b6040805160ff9092168252519081900360200190f35b6101b96004803603604081101561026557600080fd5b506001600160a01b0381351690602001356105c9565b6101b96004803603604081101561029157600080fd5b506001600160a01b038135169060200135610617565b6102c4600480360360208110156102bd57600080fd5b503561066b565b604080516001600160a01b039092168252519081900360200190f35b6102c46106d4565b6100fe600480360360208110156102fe57600080fd5b50356001600160a01b03166106ff565b61011861071a565b6101b96004803603602081101561032c57600080fd5b50356001600160a01b031661077b565b6101b96004803603604081101561035257600080fd5b506001600160a01b0381351690602001356107d5565b6101b96004803603604081101561037e57600080fd5b506001600160a01b038135169060200135610829565b6101b9600480360360408110156103aa57600080fd5b506001600160a01b038135169060200135610891565b6101b9600480360360208110156103d657600080fd5b50356001600160a01b03166108a5565b6100fe600480360360408110156103fc57600080fd5b506001600160a01b03813581169160200135166108b2565b600061042060066108dd565b905090565b60038054604080516020601f60026000196101006001881615020190951694909404938401819004810282018101909252828152606093909290918301828280156104b15780601f10610486576101008083540402835291602001916104b1565b820191906000526020600020905b81548152906001019060200180831161049457829003601f168201915b5050505050905090565b60006104cf6104c86108e8565b84846108ec565b5060015b92915050565b60025490565b60006104e96109d8565b6001600160a01b03821661052e5760405162461bcd60e51b81526004018080602001828103825260258152602001806111a66025913960400191505060405180910390fd5b6104d3600683610ad8565b6000610546848484610af4565b6105b6846105526108e8565b6105b185604051806060016040528060288152602001611244602891396001600160a01b038a166000908152600160205260408120906105906108e8565b6001600160a01b031681526020810191909152604001600020549190610c3d565b6108ec565b5060019392505050565b60055460ff1690565b60006104cf6105d66108e8565b846105b185600160006105e76108e8565b6001600160a01b03908116825260208083019390935260409182016000908120918c168152925290205490610cd4565b6000610622336108a5565b610661576040805162461bcd60e51b815260206004820152601f60248201526000805160206112f6833981519152604482015290519081900360640190fd5b6104cf8383610d2c565b60006001610677610414565b038211156106c9576040805162461bcd60e51b815260206004820152601a602482015279546f6b656e3a20696e646578206f7574206f6620626f756e647360301b604482015290519081900360640190fd5b6104d3600683610e0a565b60006104207f8dddb57468cf5338ee155397ad1400a7a564308824f517d20a8a7c516523bb47610e16565b6001600160a01b031660009081526020819052604090205490565b60048054604080516020601f60026000196101006001881615020190951694909404938401819004810282018101909252828152606093909290918301828280156104b15780601f10610486576101008083540402835291602001916104b1565b60006107856109d8565b6001600160a01b0382166107ca5760405162461bcd60e51b815260040180806020018281038252602581526020018061121f6025913960400191505060405180910390fd5b6104d3600683610e1a565b60006107e0336108a5565b61081f576040805162461bcd60e51b815260206004820152601f60248201526000805160206112f6833981519152604482015290519081900360640190fd5b6104cf8383610e2f565b60006104cf6108366108e8565b846105b18560405180606001604052806025815260200161131660259139600160006108606108e8565b6001600160a01b03908116825260208083019390935260409182016000908120918d16815292529020549190610c3d565b60006104cf61089e6108e8565b8484610af4565b60006104d3600683610f19565b6001600160a01b03918216600090815260016020908152604080832093909416825291909152205490565b60006104d382610e16565b3390565b6001600160a01b0383166109315760405162461bcd60e51b81526004018080602001828103825260248152602001806112d26024913960400191505060405180910390fd5b6001600160a01b0382166109765760405162461bcd60e51b81526004018080602001828103825260228152602001806111846022913960400191505060405180910390fd5b6001600160a01b03808416600081815260016020908152604080832094871680845294825291829020859055815185815291517f8c5be1e5ebec7d5bd14f71427d1e84f3dd0314c0f7b2291e5b200ac8c7c3b9259281900390910190a3505050565b6040805133606090811b6020808401919091523090911b6034830152825160288184030181526048909201909252805191012034906000610a176106d4565b90506000816001600160a01b0316631ebaa1668460006040518363ffffffff1660e01b8152600401808381526020018281526020019250505060206040518083038186803b158015610a6857600080fd5b505afa158015610a7c573d6000803e3d6000fd5b505050506040513d6020811015610a9257600080fd5b5051905080610ad25760405162461bcd60e51b815260040180806020018281038252602e8152602001806111f1602e913960400191505060405180910390fd5b50505050565b6000610aed836001600160a01b038416610f2e565b9392505050565b6001600160a01b038316610b395760405162461bcd60e51b81526004018080602001828103825260258152602001806112ad6025913960400191505060405180910390fd5b6001600160a01b038216610b7e5760405162461bcd60e51b815260040180806020018281038252602381526020018061113f6023913960400191505060405180910390fd5b610b89838383610ff4565b610bc6816040518060600160405280602681526020016111cb602691396001600160a01b0386166000908152602081905260409020549190610c3d565b6001600160a01b038085166000908152602081905260408082209390935590841681522054610bf59082610cd4565b6001600160a01b0380841660008181526020818152604091829020949094558051858152905191939287169260008051602061126c83398151915292918290030190a3505050565b60008184841115610ccc5760405162461bcd60e51b81526004018080602001828103825283818151815260200191508051906020019080838360005b83811015610c91578181015183820152602001610c79565b50505050905090810190601f168015610cbe5780820380516001836020036101000a031916815260200191505b509250505060405180910390fd5b505050900390565b600082820183811015610aed576040805162461bcd60e51b815260206004820152601b60248201527a536166654d6174683a206164646974696f6e206f766572666c6f7760281b604482015290519081900360640190fd5b6001600160a01b038216610d87576040805162461bcd60e51b815260206004820152601f60248201527f45524332303a206d696e7420746f20746865207a65726f206164647265737300604482015290519081900360640190fd5b610d9360008383610ff4565b600254610da09082610cd4565b6002556001600160a01b038216600090815260208190526040902054610dc69082610cd4565b6001600160a01b03831660008181526020818152604080832094909455835185815293519293919260008051602061126c8339815191529281900390910190a35050565b6000610aed8383610ff9565b5490565b6000610aed836001600160a01b03841661105d565b6001600160a01b038216610e745760405162461bcd60e51b815260040180806020018281038252602181526020018061128c6021913960400191505060405180910390fd5b610e8082600083610ff4565b610ebd81604051806060016040528060228152602001611162602291396001600160a01b0385166000908152602081905260409020549190610c3d565b6001600160a01b038316600090815260208190526040902055600254610ee390826110a7565b6002556040805182815290516000916001600160a01b0385169160008051602061126c8339815191529181900360200190a35050565b6000610aed836001600160a01b038416611104565b60008181526001830160205260408120548015610fea5783546000198083019190810190600090879083908110610f6157fe5b9060005260206000200154905080876000018481548110610f7e57fe5b600091825260208083209091019290925582815260018981019092526040902090840190558654879080610fae57fe5b600190038181906000526020600020016000905590558660010160008781526020019081526020016000206000905560019450505050506104d3565b60009150506104d3565b505050565b8154600090821061103b5760405162461bcd60e51b815260040180806020018281038252602281526020018061111d6022913960400191505060405180910390fd5b82600001828154811061104a57fe5b9060005260206000200154905092915050565b60006110698383611104565b61109f575081546001818101845560008481526020808220909301849055845484825282860190935260409020919091556104d3565b5060006104d3565b6000828211156110fe576040805162461bcd60e51b815260206004820152601e60248201527f536166654d6174683a207375627472616374696f6e206f766572666c6f770000604482015290519081900360640190fd5b50900390565b6000908152600191909101602052604090205415159056fe456e756d657261626c655365743a20696e646578206f7574206f6620626f756e647345524332303a207472616e7366657220746f20746865207a65726f206164647265737345524332303a206275726e20616d6f756e7420657863656564732062616c616e636545524332303a20617070726f766520746f20746865207a65726f2061646472657373546f6b656e3a205f64656c4d696e74657220697320746865207a65726f206164647265737345524332303a207472616e7366657220616d6f756e7420657863656564732062616c616e63656d756c74695369676e6174757265436c69656e74203a2054686973207478206973206e6f7420617072726f766564546f6b656e3a205f6164644d696e74657220697320746865207a65726f206164647265737345524332303a207472616e7366657220616d6f756e74206578636565647320616c6c6f77616e6365ddf252ad1be2c89b69c2b068fc378daa952ba7f163c4a11628f55a4df523b3ef45524332303a206275726e2066726f6d20746865207a65726f206164647265737345524332303a207472616e736665722066726f6d20746865207a65726f206164647265737345524332303a20617070726f76652066726f6d20746865207a65726f2061646472657373546f6b656e3a2063616c6c6572206973206e6f7420746865206d696e7465720045524332303a2064656372656173656420616c6c6f77616e63652062656c6f77207a65726fa26469706673582212200c7b742859d029bc79a771cb32021b627c1f8cf2a8ed0390bfcb2978f7d89d0d64736f6c634300060c00336d756c74695369676e6174757265436c69656e74203a204d756c7469706c65207369676e617475726520636f6e74726163742061646472657373206973207a65726f21",
  "linkReferences": {},
  "deployedLinkReferences": {}
}