{
  "_format": "hh-sol-artifact-1",
  "contractName": "MockPledgePool",
  "sourceName": "contracts/mock/MockPledgePool.sol",
  "abi": [
    {
      "inputs": [
        {
          "internalType": "address",
          "name": "_oracle",
          "type": "address"
        },
        {
          "internalType": "address",
          "name": "_swapRouter",
          "type": "address"
        },
        {
          "internalType": "address payable",
          "name": "_feeAddress",
          "type": "address"
        }
      ],
      "stateMutability": "nonpayable",
      "type": "constructor"
    },
    {
      "anonymous": false,
      "inputs": [
        {
          "indexed": true,
          "internalType": "address",
          "name": "from",
          "type": "address"
        },
        {
          "indexed": true,
          "internalType": "address",
          "name": "token",
          "type": "address"
        },
        {
          "indexed": false,
          "internalType": "uint256",
          "name": "amount",
          "type": "uint256"
        }
      ],
      "name": "ClaimBorrow",
      "type": "event"
    },
    {
      "anonymous": false,
      "inputs": [
        {
          "indexed": true,
          "internalType": "address",
          "name": "from",
          "type": "address"
        },
        {
          "indexed": true,
          "internalType": "address",
          "name": "token",
          "type": "address"
        },
        {
          "indexed": false,
          "internalType": "uint256",
          "name": "amount",
          "type": "uint256"
        }
      ],
      "name": "ClaimLend",
      "type": "event"
    },
    {
      "anonymous": false,
      "inputs": [
        {
          "indexed": true,
          "internalType": "address",
          "name": "from",
          "type": "address"
        },
        {
          "indexed": true,
          "internalType": "address",
          "name": "token",
          "type": "address"
        },
        {
          "indexed": false,
          "internalType": "uint256",
          "name": "amount",
          "type": "uint256"
        },
        {
          "indexed": false,
          "internalType": "uint256",
          "name": "mintAmount",
          "type": "uint256"
        }
      ],
      "name": "DepositBorrow",
      "type": "event"
    },
    {
      "anonymous": false,
      "inputs": [
        {
          "indexed": true,
          "internalType": "address",
          "name": "from",
          "type": "address"
        },
        {
          "indexed": true,
          "internalType": "address",
          "name": "token",
          "type": "address"
        },
        {
          "indexed": false,
          "internalType": "uint256",
          "name": "amount",
          "type": "uint256"
        },
        {
          "indexed": false,
          "internalType": "uint256",
          "name": "mintAmount",
          "type": "uint256"
        }
      ],
      "name": "DepositLend",
      "type": "event"
    },
    {
      "anonymous": false,
      "inputs": [
        {
          "indexed": true,
          "internalType": "address",
          "name": "from",
          "type": "address"
        },
        {
          "indexed": true,
          "internalType": "address",
          "name": "token",
          "type": "address"
        },
        {
          "indexed": false,
          "internalType": "uint256",
          "name": "amount",
          "type": "uint256"
        }
      ],
      "name": "EmergencyBorrowWithdrawal",
      "type": "event"
    },
    {
      "anonymous": false,
      "inputs": [
        {
          "indexed": true,
          "internalType": "address",
          "name": "from",
          "type": "address"
        },
        {
          "indexed": true,
          "internalType": "address",
          "name": "token",
          "type": "address"
        },
        {
          "indexed": false,
          "internalType": "uint256",
          "name": "amount",
          "type": "uint256"
        }
      ],
      "name": "EmergencyLendWithdrawal",
      "type": "event"
    },
    {
      "anonymous": false,
      "inputs": [
        {
          "indexed": true,
          "internalType": "address",
          "name": "previousOwner",
          "type": "address"
        },
        {
          "indexed": true,
          "internalType": "address",
          "name": "newOwner",
          "type": "address"
        }
      ],
      "name": "OwnershipTransferred",
      "type": "event"
    },
    {
      "anonymous": false,
      "inputs": [
        {
          "indexed": true,
          "internalType": "address",
          "name": "recieptor",
          "type": "address"
        },
        {
          "indexed": true,
          "internalType": "address",
          "name": "token",
          "type": "address"
        },
        {
          "indexed": false,
          "internalType": "uint256",
          "name": "amount",
          "type": "uint256"
        }
      ],
      "name": "Redeem",
      "type": "event"
    },
    {
      "anonymous": false,
      "inputs": [
        {
          "indexed": true,
          "internalType": "address",
          "name": "from",
          "type": "address"
        },
        {
          "indexed": true,
          "internalType": "address",
          "name": "token",
          "type": "address"
        },
        {
          "indexed": false,
          "internalType": "uint256",
          "name": "refund",
          "type": "uint256"
        }
      ],
      "name": "RefundBorrow",
      "type": "event"
    },
    {
      "anonymous": false,
      "inputs": [
        {
          "indexed": true,
          "internalType": "address",
          "name": "from",
          "type": "address"
        },
        {
          "indexed": true,
          "internalType": "address",
          "name": "token",
          "type": "address"
        },
        {
          "indexed": false,
          "internalType": "uint256",
          "name": "refund",
          "type": "uint256"
        }
      ],
      "name": "RefundLend",
      "type": "event"
    },
    {
      "anonymous": false,
      "inputs": [
        {
          "indexed": true,
          "internalType": "address",
          "name": "fromCoin",
          "type": "address"
        },
        {
          "indexed": true,
          "internalType": "address",
          "name": "toCoin",
          "type": "address"
        },
        {
          "indexed": false,
          "internalType": "uint256",
          "name": "fromValue",
          "type": "uint256"
        },
        {
          "indexed": false,
          "internalType": "uint256",
          "name": "toValue",
          "type": "uint256"
        }
      ],
      "name": "Swap",
      "type": "event"
    },
    {
      "anonymous": false,
      "inputs": [
        {
          "indexed": true,
          "internalType": "address",
          "name": "from",
          "type": "address"
        },
        {
          "indexed": true,
          "internalType": "address",
          "name": "token",
          "type": "address"
        },
        {
          "indexed": false,
          "internalType": "uint256",
          "name": "amount",
          "type": "uint256"
        },
        {
          "indexed": false,
          "internalType": "uint256",
          "name": "burnAmount",
          "type": "uint256"
        }
      ],
      "name": "WithdrawBorrow",
      "type": "event"
    },
    {
      "anonymous": false,
      "inputs": [
        {
          "indexed": true,
          "internalType": "address",
          "name": "from",
          "type": "address"
        },
        {
          "indexed": true,
          "internalType": "address",
          "name": "token",
          "type": "address"
        },
        {
          "indexed": false,
          "internalType": "uint256",
          "name": "amount",
          "type": "uint256"
        },
        {
          "indexed": false,
          "internalType": "uint256",
          "name": "burnAmount",
          "type": "uint256"
        }
      ],
      "name": "WithdrawLend",
      "type": "event"
    },
    {
      "inputs": [],
      "name": "borrowFee",
      "outputs": [
        {
          "internalType": "uint256",
          "name": "",
          "type": "uint256"
        }
      ],
      "stateMutability": "view",
      "type": "function"
    },
    {
      "inputs": [
        {
          "internalType": "uint256",
          "name": "_pid",
          "type": "uint256"
        }
      ],
      "name": "checkoutFinish",
      "outputs": [
        {
          "internalType": "bool",
          "name": "",
          "type": "bool"
        }
      ],
      "stateMutability": "view",
      "type": "function"
    },
    {
      "inputs": [
        {
          "internalType": "uint256",
          "name": "_pid",
          "type": "uint256"
        }
      ],
      "name": "checkoutLiquidate",
      "outputs": [
        {
          "internalType": "bool",
          "name": "",
          "type": "bool"
        }
      ],
      "stateMutability": "view",
      "type": "function"
    },
    {
      "inputs": [
        {
          "internalType": "uint256",
          "name": "_pid",
          "type": "uint256"
        }
      ],
      "name": "checkoutSettle",
      "outputs": [
        {
          "internalType": "bool",
          "name": "",
          "type": "bool"
        }
      ],
      "stateMutability": "view",
      "type": "function"
    },
    {
      "inputs": [
        {
          "internalType": "uint256",
          "name": "_pid",
          "type": "uint256"
        }
      ],
      "name": "claimBorrow",
      "outputs": [],
      "stateMutability": "nonpayable",
      "type": "function"
    },
    {
      "inputs": [
        {
          "internalType": "uint256",
          "name": "_pid",
          "type": "uint256"
        }
      ],
      "name": "claimLend",
      "outputs": [],
      "stateMutability": "nonpayable",
      "type": "function"
    },
    {
      "inputs": [
        {
          "internalType": "uint256",
          "name": "_settleTime",
          "type": "uint256"
        },
        {
          "internalType": "uint256",
          "name": "_endTime",
          "type": "uint256"
        },
        {
          "internalType": "uint64",
          "name": "_interestRate",
          "type": "uint64"
        },
        {
          "internalType": "uint256",
          "name": "_maxSupply",
          "type": "uint256"
        },
        {
          "internalType": "uint256",
          "name": "_martgageRate",
          "type": "uint256"
        },
        {
          "internalType": "address",
          "name": "_lendToken",
          "type": "address"
        },
        {
          "internalType": "address",
          "name": "_borrowToken",
          "type": "address"
        },
        {
          "internalType": "address",
          "name": "_spToken",
          "type": "address"
        },
        {
          "internalType": "address",
          "name": "_jpToken",
          "type": "address"
        },
        {
          "internalType": "uint256",
          "name": "_autoLiquidateThreshold",
          "type": "uint256"
        }
      ],
      "name": "createPoolInfo",
      "outputs": [],
      "stateMutability": "nonpayable",
      "type": "function"
    },
    {
      "inputs": [
        {
          "internalType": "uint256",
          "name": "_pid",
          "type": "uint256"
        },
        {
          "internalType": "uint256",
          "name": "_stakeAmount",
          "type": "uint256"
        },
        {
          "internalType": "uint256",
          "name": "_deadLine",
          "type": "uint256"
        }
      ],
      "name": "depositBorrow",
      "outputs": [],
      "stateMutability": "payable",
      "type": "function"
    },
    {
      "inputs": [
        {
          "internalType": "uint256",
          "name": "_pid",
          "type": "uint256"
        },
        {
          "internalType": "uint256",
          "name": "_stakeAmount",
          "type": "uint256"
        }
      ],
      "name": "depositLend",
      "outputs": [],
      "stateMutability": "payable",
      "type": "function"
    },
    {
      "inputs": [
        {
          "internalType": "uint256",
          "name": "_pid",
          "type": "uint256"
        }
      ],
      "name": "emergencyBorrowWithdrawal",
      "outputs": [],
      "stateMutability": "nonpayable",
      "type": "function"
    },
    {
      "inputs": [
        {
          "internalType": "uint256",
          "name": "_pid",
          "type": "uint256"
        }
      ],
      "name": "emergencyLendWithdrawal",
      "outputs": [],
      "stateMutability": "nonpayable",
      "type": "function"
    },
    {
      "inputs": [],
      "name": "feeAddress",
      "outputs": [
        {
          "internalType": "address payable",
          "name": "",
          "type": "address"
        }
      ],
      "stateMutability": "view",
      "type": "function"
    },
    {
      "inputs": [
        {
          "internalType": "uint256",
          "name": "_pid",
          "type": "uint256"
        }
      ],
      "name": "finish",
      "outputs": [],
      "stateMutability": "nonpayable",
      "type": "function"
    },
    {
      "inputs": [
        {
          "internalType": "uint256",
          "name": "_pid",
          "type": "uint256"
        }
      ],
      "name": "getPoolState",
      "outputs": [
        {
          "internalType": "uint256",
          "name": "",
          "type": "uint256"
        }
      ],
      "stateMutability": "view",
      "type": "function"
    },
    {
      "inputs": [
        {
          "internalType": "uint256",
          "name": "_pid",
          "type": "uint256"
        }
      ],
      "name": "getUnderlyingPriceView",
      "outputs": [
        {
          "internalType": "uint256[2]",
          "name": "",
          "type": "uint256[2]"
        }
      ],
      "stateMutability": "view",
      "type": "function"
    },
    {
      "inputs": [],
      "name": "globalPaused",
      "outputs": [
        {
          "internalType": "bool",
          "name": "",
          "type": "bool"
        }
      ],
      "stateMutability": "view",
      "type": "function"
    },
    {
      "inputs": [],
      "name": "lendFee",
      "outputs": [
        {
          "internalType": "uint256",
          "name": "",
          "type": "uint256"
        }
      ],
      "stateMutability": "view",
      "type": "function"
    },
    {
      "inputs": [
        {
          "internalType": "uint256",
          "name": "_pid",
          "type": "uint256"
        }
      ],
      "name": "liquidate",
      "outputs": [],
      "stateMutability": "nonpayable",
      "type": "function"
    },
    {
      "inputs": [],
      "name": "minAmount",
      "outputs": [
        {
          "internalType": "uint256",
          "name": "",
          "type": "uint256"
        }
      ],
      "stateMutability": "view",
      "type": "function"
    },
    {
      "inputs": [],
      "name": "oracle",
      "outputs": [
        {
          "internalType": "contract IBscPledgeOracle",
          "name": "",
          "type": "address"
        }
      ],
      "stateMutability": "view",
      "type": "function"
    },
    {
      "inputs": [],
      "name": "owner",
      "outputs": [
        {
          "internalType": "address",
          "name": "",
          "type": "address"
        }
      ],
      "stateMutability": "view",
      "type": "function"
    },
    {
      "inputs": [
        {
          "internalType": "uint256",
          "name": "",
          "type": "uint256"
        }
      ],
      "name": "poolBaseInfo",
      "outputs": [
        {
          "internalType": "uint256",
          "name": "settleTime",
          "type": "uint256"
        },
        {
          "internalType": "uint256",
          "name": "endTime",
          "type": "uint256"
        },
        {
          "internalType": "uint256",
          "name": "interestRate",
          "type": "uint256"
        },
        {
          "internalType": "uint256",
          "name": "maxSupply",
          "type": "uint256"
        },
        {
          "internalType": "uint256",
          "name": "lendSupply",
          "type": "uint256"
        },
        {
          "internalType": "uint256",
          "name": "borrowSupply",
          "type": "uint256"
        },
        {
          "internalType": "uint256",
          "name": "martgageRate",
          "type": "uint256"
        },
        {
          "internalType": "address",
          "name": "lendToken",
          "type": "address"
        },
        {
          "internalType": "address",
          "name": "borrowToken",
          "type": "address"
        },
        {
          "internalType": "enum MockPledgePool.PoolState",
          "name": "state",
          "type": "uint8"
        },
        {
          "internalType": "contract IDebtToken",
          "name": "spCoin",
          "type": "address"
        },
        {
          "internalType": "contract IDebtToken",
          "name": "jpCoin",
          "type": "address"
        },
        {
          "internalType": "uint256",
          "name": "autoLiquidateThreshold",
          "type": "uint256"
        }
      ],
      "stateMutability": "view",
      "type": "function"
    },
    {
      "inputs": [
        {
          "internalType": "uint256",
          "name": "",
          "type": "uint256"
        }
      ],
      "name": "poolDataInfo",
      "outputs": [
        {
          "internalType": "uint256",
          "name": "settleAmountLend",
          "type": "uint256"
        },
        {
          "internalType": "uint256",
          "name": "settleAmountBorrow",
          "type": "uint256"
        },
        {
          "internalType": "uint256",
          "name": "finishAmountLend",
          "type": "uint256"
        },
        {
          "internalType": "uint256",
          "name": "finishAmountBorrow",
          "type": "uint256"
        },
        {
          "internalType": "uint256",
          "name": "liquidationAmounLend",
          "type": "uint256"
        },
        {
          "internalType": "uint256",
          "name": "liquidationAmounBorrow",
          "type": "uint256"
        }
      ],
      "stateMutability": "view",
      "type": "function"
    },
    {
      "inputs": [],
      "name": "poolLength",
      "outputs": [
        {
          "internalType": "uint256",
          "name": "",
          "type": "uint256"
        }
      ],
      "stateMutability": "view",
      "type": "function"
    },
    {
      "inputs": [
        {
          "internalType": "uint256",
          "name": "_pid",
          "type": "uint256"
        }
      ],
      "name": "refundBorrow",
      "outputs": [],
      "stateMutability": "nonpayable",
      "type": "function"
    },
    {
      "inputs": [
        {
          "internalType": "uint256",
          "name": "_pid",
          "type": "uint256"
        }
      ],
      "name": "refundLend",
      "outputs": [],
      "stateMutability": "nonpayable",
      "type": "function"
    },
    {
      "inputs": [],
      "name": "renounceOwnership",
      "outputs": [],
      "stateMutability": "nonpayable",
      "type": "function"
    },
    {
      "inputs": [
        {
          "internalType": "uint256",
          "name": "_lendFee",
          "type": "uint256"
        },
        {
          "internalType": "uint256",
          "name": "_borrowFee",
          "type": "uint256"
        }
      ],
      "name": "setFee",
      "outputs": [],
      "stateMutability": "nonpayable",
      "type": "function"
    },
    {
      "inputs": [
        {
          "internalType": "address payable",
          "name": "_feeAddress",
          "type": "address"
        }
      ],
      "name": "setFeeAddress",
      "outputs": [],
      "stateMutability": "nonpayable",
      "type": "function"
    },
    {
      "inputs": [
        {
          "internalType": "uint256",
          "name": "_minAmount",
          "type": "uint256"
        }
      ],
      "name": "setMinAmount",
      "outputs": [],
      "stateMutability": "nonpayable",
      "type": "function"
    },
    {
      "inputs": [],
      "name": "setPause",
      "outputs": [],
      "stateMutability": "nonpayable",
      "type": "function"
    },
    {
      "inputs": [
        {
          "internalType": "uint256",
          "name": "_pid",
          "type": "uint256"
        },
        {
          "internalType": "uint256",
          "name": "_state",
          "type": "uint256"
        }
      ],
      "name": "setPoolState",
      "outputs": [],
      "stateMutability": "nonpayable",
      "type": "function"
    },
    {
      "inputs": [
        {
          "internalType": "address",
          "name": "_swapRouter",
          "type": "address"
        }
      ],
      "name": "setSwapRouterAddress",
      "outputs": [],
      "stateMutability": "nonpayable",
      "type": "function"
    },
    {
      "inputs": [
        {
          "internalType": "uint256",
          "name": "_pid",
          "type": "uint256"
        }
      ],
      "name": "settle",
      "outputs": [],
      "stateMutability": "nonpayable",
      "type": "function"
    },
    {
      "inputs": [],
      "name": "swapRouter",
      "outputs": [
        {
          "internalType": "address",
          "name": "",
          "type": "address"
        }
      ],
      "stateMutability": "view",
      "type": "function"
    },
    {
      "inputs": [
        {
          "internalType": "address",
          "name": "newOwner",
          "type": "address"
        }
      ],
      "name": "transferOwnership",
      "outputs": [],
      "stateMutability": "nonpayable",
      "type": "function"
    },
    {
      "inputs": [
        {
          "internalType": "uint256",
          "name": "_pid",
          "type": "uint256"
        },
        {
          "internalType": "uint64",
          "name": "_interestRate",
          "type": "uint64"
        },
        {
          "internalType": "uint256",
          "name": "_maxSupply",
          "type": "uint256"
        },
        {
          "internalType": "uint256",
          "name": "_autoLiquidateThreshold",
          "type": "uint256"
        }
      ],
      "name": "updatePoolBaseInfo",
      "outputs": [],
      "stateMutability": "nonpayable",
      "type": "function"
    },
    {
      "inputs": [
        {
          "internalType": "address",
          "name": "",
          "type": "address"
        },
        {
          "internalType": "uint256",
          "name": "",
          "type": "uint256"
        }
      ],
      "name": "userBorrowInfo",
      "outputs": [
        {
          "internalType": "uint256",
          "name": "stakeAmount",
          "type": "uint256"
        },
        {
          "internalType": "uint256",
          "name": "refundAmount",
          "type": "uint256"
        },
        {
          "internalType": "bool",
          "name": "hasNoRefund",
          "type": "bool"
        },
        {
          "internalType": "bool",
          "name": "hasNoClaim",
          "type": "bool"
        }
      ],
      "stateMutability": "view",
      "type": "function"
    },
    {
      "inputs": [
        {
          "internalType": "address",
          "name": "",
          "type": "address"
        },
        {
          "internalType": "uint256",
          "name": "",
          "type": "uint256"
        }
      ],
      "name": "userLendInfo",
      "outputs": [
        {
          "internalType": "uint256",
          "name": "stakeAmount",
          "type": "uint256"
        },
        {
          "internalType": "uint256",
          "name": "refundAmount",
          "type": "uint256"
        },
        {
          "internalType": "bool",
          "name": "hasNoRefund",
          "type": "bool"
        },
        {
          "internalType": "bool",
          "name": "hasNoClaim",
          "type": "bool"
        }
      ],
      "stateMutability": "view",
      "type": "function"
    },
    {
      "inputs": [
        {
          "internalType": "uint256",
          "name": "_pid",
          "type": "uint256"
        },
        {
          "internalType": "uint256",
          "name": "_jpAmount",
          "type": "uint256"
        },
        {
          "internalType": "uint256",
          "name": "_deadLine",
          "type": "uint256"
        }
      ],
      "name": "withdrawBorrow",
      "outputs": [],
      "stateMutability": "nonpayable",
      "type": "function"
    },
    {
      "inputs": [
        {
          "internalType": "uint256",
          "name": "_pid",
          "type": "uint256"
        },
        {
          "internalType": "uint256",
          "name": "_spAmount",
          "type": "uint256"
        }
      ],
      "name": "withdrawLend",
      "outputs": [],
      "stateMutability": "nonpayable",
      "type": "function"
    }
  ],
  "bytecode": "0x608060405268056bc75e2d631000006002556003805460ff191690553480156200002857600080fd5b5060405162005e3538038062005e35833981810160405260608110156200004e57600080fd5b5080516020820151604090920151600160009081559192916200007062000203565b600180546001600160a01b0319166001600160a01b038316908117909155604051919250906000907f8be0079c531659141344cd1fd0a4f28419497f9722a3daafe3b4186f6b6457e0908290a3506001600160a01b0383166200010c576040805162461bcd60e51b815260206004820152600f60248201526e4973207a65726f206164647265737360881b604482015290519081900360640190fd5b6001600160a01b0382166200015a576040805162461bcd60e51b815260206004820152600f60248201526e4973207a65726f206164647265737360881b604482015290519081900360640190fd5b6001600160a01b038116620001a8576040805162461bcd60e51b815260206004820152600f60248201526e4973207a65726f206164647265737360881b604482015290519081900360640190fd5b600580546001600160a01b039485166001600160a01b0319918216179091556003805493851661010002610100600160a81b031990941693909317909255600480549190931691161790556000600681905560075562000207565b3390565b615c1e80620002176000396000f3fe6080604052600436106101d65760003560e01c80630177b68c146101db5780630359309714610238578063081e3eda1461026a57806308e7305f1461029157806314c090cc146102cf57806338f2aa76146102f95780633ab4a445146103295780633c9fadc31461035357806341275358146103b4578063415f1240146103e55780634aea0aec1461040f5780635249961b1461042457806352f7c98814610457578063593f4cb7146104875780635a5a971e146104b057806361a552dc146105735780636abd7f29146105885780636c42fed2146105b2578063715018a6146105dc57806373effaf1146105f15780637dc0d1d0146106365780638705fcd41461064b578063897b06371461067e5780638da5cb5b146106a85780638df82800146106bd57806390590da0146106e75780639b2cb5d81461070a578063a62ff1641461071f578063b159751714610749578063bb176a6414610773578063bf38b8f6146107ac578063c31c9c07146107d6578063c9333756146107eb578063c9bf047c14610850578063d353a1cb14610886578063d431b1ac146108b0578063e271fa0c146108c5578063e626648a146108ef578063ebded01714610904578063eec8d50614610981578063f2fde38b146109ab575b600080fd5b3480156101e757600080fd5b50610205600480360360208110156101fe57600080fd5b50356109de565b604080519687526020870195909552858501939093526060850191909152608084015260a0830152519081900360c00190f35b34801561024457600080fd5b506102686004803603604081101561025b57600080fd5b5080359060200135610a21565b005b34801561027657600080fd5b5061027f610bd0565b60408051918252519081900360200190f35b34801561029d57600080fd5b506102bb600480360360208110156102b457600080fd5b5035610bd6565b604080519115158252519081900360200190f35b3480156102db57600080fd5b506102bb600480360360208110156102f257600080fd5b5035610caf565b34801561030557600080fd5b506102686004803603604081101561031c57600080fd5b5080359060200135610cd9565b34801561033557600080fd5b506102686004803603602081101561034c57600080fd5b503561111e565b34801561035f57600080fd5b5061038c6004803603604081101561037657600080fd5b506001600160a01b03813516906020013561158c565b6040805194855260208501939093529015158383015215156060830152519081900360800190f35b3480156103c057600080fd5b506103c96115c4565b604080516001600160a01b039092168252519081900360200190f35b3480156103f157600080fd5b506102686004803603602081101561040857600080fd5b50356115d3565b34801561041b57600080fd5b5061027f611878565b34801561043057600080fd5b506102686004803603602081101561044757600080fd5b50356001600160a01b031661187e565b34801561046357600080fd5b506102686004803603604081101561047a57600080fd5b5080359060200135611955565b6102686004803603606081101561049d57600080fd5b50803590602081013590604001356119c2565b3480156104bc57600080fd5b506104da600480360360208110156104d357600080fd5b5035611cd1565b604051808e81526020018d81526020018c81526020018b81526020018a8152602001898152602001888152602001876001600160a01b03168152602001866001600160a01b0316815260200185600481111561053257fe5b8152602001846001600160a01b03168152602001836001600160a01b031681526020018281526020019d505050505050505050505050505060405180910390f35b34801561057f57600080fd5b506102bb611d5d565b34801561059457600080fd5b506102bb600480360360208110156105ab57600080fd5b5035611d66565b3480156105be57600080fd5b50610268600480360360208110156105d557600080fd5b5035611d90565b3480156105e857600080fd5b50610268612194565b3480156105fd57600080fd5b506102686004803603608081101561061457600080fd5b508035906001600160401b03602082013516906040810135906060013561222e565b34801561064257600080fd5b506103c9612341565b34801561065757600080fd5b506102686004803603602081101561066e57600080fd5b50356001600160a01b0316612350565b34801561068a57600080fd5b50610268600480360360208110156106a157600080fd5b5035612421565b3480156106b457600080fd5b506103c9612488565b3480156106c957600080fd5b50610268600480360360208110156106e057600080fd5b5035612497565b610268600480360360408110156106fd57600080fd5b5080359060200135612732565b34801561071657600080fd5b5061027f612a4c565b34801561072b57600080fd5b506102686004803603602081101561074257600080fd5b5035612a52565b34801561075557600080fd5b5061027f6004803603602081101561076c57600080fd5b5035612e90565b34801561077f57600080fd5b5061038c6004803603604081101561079657600080fd5b506001600160a01b038135169060200135612ed4565b3480156107b857600080fd5b50610268600480360360208110156107cf57600080fd5b5035612f0c565b3480156107e257600080fd5b506103c96131da565b3480156107f757600080fd5b506108156004803603602081101561080e57600080fd5b50356131ee565b6040518082600260200280838360005b8381101561083d578181015183820152602001610825565b5050505090500191505060405180910390f35b34801561085c57600080fd5b506102686004803603606081101561087357600080fd5b5080359060208101359060400135613425565b34801561089257600080fd5b50610268600480360360208110156108a957600080fd5b50356138b8565b3480156108bc57600080fd5b50610268613bab565b3480156108d157600080fd5b50610268600480360360208110156108e857600080fd5b5035613c21565b3480156108fb57600080fd5b5061027f613ef4565b34801561091057600080fd5b50610268600480360361014081101561092857600080fd5b508035906020810135906001600160401b03604082013516906060810135906080810135906001600160a01b0360a082013581169160c081013582169160e0820135811691610100810135909116906101200135613efa565b34801561098d57600080fd5b50610268600480360360208110156109a457600080fd5b503561431a565b3480156109b757600080fd5b50610268600480360360208110156109ce57600080fd5b50356001600160a01b0316614746565b600981815481106109eb57fe5b60009182526020909120600690910201805460018201546002830154600384015460048501546005909501549395509193909286565b610a29614837565b6001600160a01b0316610a3a612488565b6001600160a01b031614610a83576040805162461bcd60e51b81526020600482018190526024820152600080516020615af8833981519152604482015290519081900360640190fd5b600060088381548110610a9257fe5b90600052602060002090600c020190508160001480610ab15750816001145b80610abc5750816002145b80610ac75750816003145b80610ad25750816004145b610b1f576040805162461bcd60e51b815260206004820152601960248201527839b2ba2837b7b629ba30ba329d1039ba30ba329032b93937b960391b604482015290519081900360640190fd5b81610b46576008810180546000919060ff60a01b1916600160a01b835b0217905550610bcb565b8160011415610b6b576008810180546001919060ff60a01b1916600160a01b83610b3c565b8160021415610b90576008810180546002919060ff60a01b1916600160a01b83610b3c565b8160031415610bb5576008810180546003919060ff60a01b1916600160a01b83610b3c565b60088101805460ff60a01b1916600160a21b1790555b505050565b60085490565b60008060088381548110610be657fe5b90600052602060002090600c02019050600060098481548110610c0557fe5b90600052602060002090600602019050610c1d615871565b610c26856131ee565b90506000610c70670de0b6b3a7640000610c5f610c6585855b6020020151610c5f670de0b6b3a76400008860015b60200201519061483b565b9061489d565b60018701549061483b565b90506000610ca26305f5e100610c5f610c9a88600b01546305f5e1006148dc90919063ffffffff16565b87549061483b565b9091109695505050505050565b600060088281548110610cbe57fe5b90600052602060002090600c02016000015442119050919050565b60026000541415610d1f576040805162461bcd60e51b815260206004820152601f6024820152600080516020615890833981519152604482015290519081900360640190fd5b600260005560035460ff1615610d6a576040805162461bcd60e51b815260206004820152601860248201526000805160206159dd833981519152604482015290519081900360640190fd5b81600260088281548110610d7a57fe5b90600052602060002090600c020160080160149054906101000a900460ff166004811115610da457fe5b1480610de65750600360088281548110610dba57fe5b90600052602060002090600c020160080160149054906101000a900460ff166004811115610de457fe5b145b610e33576040805162461bcd60e51b815260206004820152601960248201527839ba30ba329d103334b734b9b4103634b8bab4b230ba34b7b760391b604482015290519081900360640190fd5b600060088481548110610e4257fe5b90600052602060002090600c02019050600060098581548110610e6157fe5b9060005260206000209060060201905060008411610eb05760405162461bcd60e51b81526004018080602001828103825260258152602001806158d46025913960400191505060405180910390fd5b600982015460408051632770a7eb60e21b81523360048201526024810187905290516001600160a01b0390921691639dc29fac9160448082019260009290919082900301818387803b158015610f0557600080fd5b505af1158015610f19573d6000803e3d6000fd5b50508254915060009050610f3982610c5f88670de0b6b3a764000061483b565b905060026008850154600160a01b900460ff166004811115610f5757fe5b14156110325783600101544211610fb5576040805162461bcd60e51b815260206004820181905260248201527f77697468647261774c656e643a206c657373207468616e20656e642074696d65604482015290519081900360640190fd5b6000610fda670de0b6b3a7640000610c5f84876002015461483b90919063ffffffff16565b6007860154909150610ff79033906001600160a01b031683614934565b600785015460408051838152602081018a905281516001600160a01b03909316923392600080516020615b7d833981519152928290030190a3505b60036008850154600160a01b900460ff16600481111561104e57fe5b141561111057835442116110935760405162461bcd60e51b81526004018080602001828103825260228152602001806159bb6022913960400191505060405180910390fd5b60006110b8670de0b6b3a7640000610c5f84876004015461483b90919063ffffffff16565b60078601549091506110d59033906001600160a01b031683614934565b600785015460408051838152602081018a905281516001600160a01b03909316923392600080516020615b7d833981519152928290030190a3505b505060016000555050505050565b60026000541415611164576040805162461bcd60e51b815260206004820152601f6024820152600080516020615890833981519152604482015290519081900360640190fd5b600260005560035460ff16156111af576040805162461bcd60e51b815260206004820152601860248201526000805160206159dd833981519152604482015290519081900360640190fd5b80600881815481106111bd57fe5b90600052602060002090600c0201600001544211611210576040805162461bcd60e51b81526020600482015260156024820152600080516020615949833981519152604482015290519081900360640190fd5b8160016008828154811061122057fe5b90600052602060002090600c020160080160149054906101000a900460ff16600481111561124a57fe5b148061128c575060026008828154811061126057fe5b90600052602060002090600c020160080160149054906101000a900460ff16600481111561128a57fe5b145b806112cd57506003600882815481106112a157fe5b90600052602060002090600c020160080160149054906101000a900460ff1660048111156112cb57fe5b145b61130c576040805162461bcd60e51b815260206004820152601b6024820152600080516020615a6f833981519152604482015290519081900360640190fd5b60006008848154811061131b57fe5b90600052602060002090600c0201905060006009858154811061133a57fe5b60009182526020808320338452600a825260408085208a865290925292208054600690920290920192506113b5576040805162461bcd60e51b815260206004820152601f60248201527f636c61696d426f72726f773a206e6f7420636c61696d206a705f746f6b656e00604482015290519081900360640190fd5b6002810154610100900460ff161561140f576040805162461bcd60e51b8152602060048201526018602482015277636c61696d426f72726f773a20616761696e20636c61696d60401b604482015290519081900360640190fd5b60006114346305f5e100610c5f8660060154866000015461483b90919063ffffffff16565b9050600061145f8560050154610c5f670de0b6b3a7640000866000015461483b90919063ffffffff16565b90506000611479670de0b6b3a7640000610c5f858561483b565b600a870154604080516340c10f1960e01b81523360048201526024810184905290519293506001600160a01b03909116916340c10f199160448082019260009290919082900301818387803b1580156114d157600080fd5b505af11580156114e5573d6000803e3d6000fd5b50508654600092506115069150670de0b6b3a764000090610c5f908661483b565b60078801549091506115239033906001600160a01b031683614934565b60028501805461ff00191661010017905560088701546040805184815290516001600160a01b039092169133917f3ddafe3ebb4d0c818317027aabfa82dc9983942ceeb80523167e2de047b17fbd919081900360200190a3505060016000555050505050505050565b600a60209081526000928352604080842090915290825290208054600182015460029092015490919060ff8082169161010090041684565b6004546001600160a01b031681565b6115db614837565b6001600160a01b03166115ec612488565b6001600160a01b031614611635576040805162461bcd60e51b81526020600482018190526024820152600080516020615af8833981519152604482015290519081900360640190fd5b60006009828154811061164457fe5b9060005260206000209060060201905060006008838154811061166357fe5b90600052602060002090600c02019050806000015442116116cb576040805162461bcd60e51b815260206004820181905260248201527f6e6f772074696d65206973206c657373207468616e206d617463682074696d65604482015290519081900360640190fd5b60016008820154600160a01b900460ff1660048111156116e757fe5b146117235760405162461bcd60e51b8152600401808060200182810382526027815260200180615a226027913960400191505060405180910390fd5b6008810154600782015460028301546001600160a01b039283169290911690600090611765906305f5e10090610c5f9061175d90836148dc565b88549061483b565b905060006117946305f5e100610c5f61178d6305f5e1006006546148dc90919063ffffffff16565b859061483b565b90506000806117ba600360019054906101000a90046001600160a01b03168787866149e5565b91509150838111156118095760006117d28286614a32565b60045460078a01549192506117f4916001600160a01b03918216911683614934565b6117fe8282614a32565b60048a015550611811565b600488018190555b60018801546000906118239084614a32565b60075460088a015491925060009161184591906001600160a01b031684614a74565b60058b0181905560088a01805491925060039160ff60a01b1916600160a01b835b02179055505050505050505050505050565b60065481565b611886614837565b6001600160a01b0316611897612488565b6001600160a01b0316146118e0576040805162461bcd60e51b81526020600482018190526024820152600080516020615af8833981519152604482015290519081900360640190fd5b6001600160a01b03811661192d576040805162461bcd60e51b815260206004820152600f60248201526e4973207a65726f206164647265737360881b604482015290519081900360640190fd5b600380546001600160a01b0390921661010002610100600160a81b0319909216919091179055565b61195d614837565b6001600160a01b031661196e612488565b6001600160a01b0316146119b7576040805162461bcd60e51b81526020600482018190526024820152600080516020615af8833981519152604482015290519081900360640190fd5b600691909155600755565b60026000541415611a08576040805162461bcd60e51b815260206004820152601f6024820152600080516020615890833981519152604482015290519081900360640190fd5b600260005560035460ff1615611a53576040805162461bcd60e51b815260206004820152601860248201526000805160206159dd833981519152604482015290519081900360640190fd5b8260088181548110611a6157fe5b90600052602060002090600c0201600001544210611abc576040805162461bcd60e51b81526020600482015260136024820152724c657373207468616e20746869732074696d6560681b604482015290519081900360640190fd5b83600060088281548110611acc57fe5b90600052602060002090600c020160080160149054906101000a900460ff166004811115611af657fe5b14611b325760405162461bcd60e51b8152600401808060200182810382526028815260200180615aaf6028913960400191505060405180910390fd5b8242811015611b79576040805162461bcd60e51b815260206004820152600e60248201526d1cdd185ad94e881156141254915160921b604482015290519081900360640190fd5b600060088781548110611b8857fe5b60009182526020808320338452600a825260408085208c8652909252908320600c92909202016008810154909350909190611bcc906001600160a01b031689614ac0565b905060008111611c0d5760405162461bcd60e51b81526004018080602001828103825260258152602001806159fd6025913960400191505060405180910390fd5b60028201805461ffff1916905560088301546001600160a01b0316611c53578154611c3890346148dc565b82556005830154611c4990346148dc565b6005840155611c76565b8154611c5f90896148dc565b82556005830154611c7090896148dc565b60058401555b6008830154604080518a81526020810184905281516001600160a01b039093169233927f1d7b72e666a0b6217efe7cfa1b604ea5c7b39219563ce48b30c9da77045247a5928290030190a35050600160005550505050505050565b60088181548110611cde57fe5b60009182526020909120600c9091020180546001820154600283015460038401546004850154600586015460068701546007880154600889015460098a0154600a8b0154600b909b0154999b509799969895979496939592946001600160a01b039283169483831694600160a01b90930460ff1693918216929116908d565b60035460ff1681565b600060088281548110611d7557fe5b90600052602060002090600c02016001015442119050919050565b60026000541415611dd6576040805162461bcd60e51b815260206004820152601f6024820152600080516020615890833981519152604482015290519081900360640190fd5b600260005560035460ff1615611e21576040805162461bcd60e51b815260206004820152601860248201526000805160206159dd833981519152604482015290519081900360640190fd5b8060088181548110611e2f57fe5b90600052602060002090600c0201600001544211611e82576040805162461bcd60e51b81526020600482015260156024820152600080516020615949833981519152604482015290519081900360640190fd5b81600160088281548110611e9257fe5b90600052602060002090600c020160080160149054906101000a900460ff166004811115611ebc57fe5b1480611efe5750600260088281548110611ed257fe5b90600052602060002090600c020160080160149054906101000a900460ff166004811115611efc57fe5b145b80611f3f5750600360088281548110611f1357fe5b90600052602060002090600c020160080160149054906101000a900460ff166004811115611f3d57fe5b145b611f7e576040805162461bcd60e51b815260206004820152601b6024820152600080516020615a6f833981519152604482015290519081900360640190fd5b600060088481548110611f8d57fe5b90600052602060002090600c02019050600060098581548110611fac57fe5b60009182526020808320338452600b825260408085208a86529092529220805460069092029092019250612027576040805162461bcd60e51b815260206004820152601d60248201527f636c61696d4c656e643a206e6f7420636c61696d2073705f746f6b656e000000604482015290519081900360640190fd5b6002810154610100900460ff161561207f576040805162461bcd60e51b8152602060048201526016602482015275636c61696d4c656e643a20616761696e20636c61696d60501b604482015290519081900360640190fd5b6004830154815460009161209f91610c5f90670de0b6b3a764000061483b565b835490915060006120bc670de0b6b3a7640000610c5f848661483b565b6009870154604080516340c10f1960e01b81523360048201526024810184905290519293506001600160a01b03909116916340c10f199160448082019260009290919082900301818387803b15801561211457600080fd5b505af1158015612128573d6000803e3d6000fd5b50505060028501805461ff0019166101001790555060088601546040805183815290516001600160a01b039092169133917f6f4dd2687b3c3bfa99d39742b01d6e0ad9604c48559791d5df4ff5df44b41dfd919081900360200190a35050600160005550505050505050565b61219c614837565b6001600160a01b03166121ad612488565b6001600160a01b0316146121f6576040805162461bcd60e51b81526020600482018190526024820152600080516020615af8833981519152604482015290519081900360640190fd5b6001546040516000916001600160a01b031690600080516020615b39833981519152908390a3600180546001600160a01b0319169055565b612236614837565b6001600160a01b0316612247612488565b6001600160a01b031614612290576040805162461bcd60e51b81526020600482018190526024820152600080516020615af8833981519152604482015290519081900360640190fd5b836008818154811061229e57fe5b90600052602060002090600c02016000015442106122f9576040805162461bcd60e51b81526020600482015260136024820152724c657373207468616e20746869732074696d6560681b604482015290519081900360640190fd5b60006008868154811061230857fe5b600091825260209091206001600160401b039096166002600c9092029096019081019590955550506003830191909155600b9091015550565b6005546001600160a01b031681565b612358614837565b6001600160a01b0316612369612488565b6001600160a01b0316146123b2576040805162461bcd60e51b81526020600482018190526024820152600080516020615af8833981519152604482015290519081900360640190fd5b6001600160a01b0381166123ff576040805162461bcd60e51b815260206004820152600f60248201526e4973207a65726f206164647265737360881b604482015290519081900360640190fd5b600480546001600160a01b0319166001600160a01b0392909216919091179055565b612429614837565b6001600160a01b031661243a612488565b6001600160a01b031614612483576040805162461bcd60e51b81526020600482018190526024820152600080516020615af8833981519152604482015290519081900360640190fd5b600255565b6001546001600160a01b031690565b61249f614837565b6001600160a01b03166124b0612488565b6001600160a01b0316146124f9576040805162461bcd60e51b81526020600482018190526024820152600080516020615af8833981519152604482015290519081900360640190fd5b60006008828154811061250857fe5b90600052602060002090600c0201905060006009838154811061252757fe5b906000526020600020906006020190506008838154811061254457fe5b90600052602060002090600c02016000015442116125a8576040805162461bcd60e51b815260206004820152601c60248201527b736574746c653a206c657373207468616e20736574746c6554696d6560201b604482015290519081900360640190fd5b60006008830154600160a01b900460ff1660048111156125c457fe5b14612616576040805162461bcd60e51b815260206004820181905260248201527f736574746c653a20706f6f6c207374617465206d757374206265206d61746368604482015290519081900360640190fd5b6000826004015411801561262e575060008260050154115b156127065761263b615871565b612644846131ee565b9050600061266c670de0b6b3a7640000610c5f6126618585610c3f565b60058801549061483b565b9050600061268f8560060154610c5f6305f5e1008561483b90919063ffffffff16565b905080856004015411156126af57808455600585015460018501556126e9565b6004850154845582516126e3906126d090610c5f6305f5e100876001610c54565b60068701546004880154610c5f9161483b565b60018501555b50505060088201805460ff60a01b1916600160a01b179055610bcb565b60088201805460ff60a01b1916600160a21b179055600482015481556005909101546001919091015550565b60026000541415612778576040805162461bcd60e51b815260206004820152601f6024820152600080516020615890833981519152604482015290519081900360640190fd5b600260005560035460ff16156127c3576040805162461bcd60e51b815260206004820152601860248201526000805160206159dd833981519152604482015290519081900360640190fd5b81600881815481106127d157fe5b90600052602060002090600c020160000154421061282c576040805162461bcd60e51b81526020600482015260136024820152724c657373207468616e20746869732074696d6560681b604482015290519081900360640190fd5b8260006008828154811061283c57fe5b90600052602060002090600c020160080160149054906101000a900460ff16600481111561286657fe5b146128a25760405162461bcd60e51b8152600401808060200182810382526028815260200180615aaf6028913960400191505060405180910390fd5b6000600885815481106128b157fe5b60009182526020808320338452600b825260408085208a865290925292206004600c9092029092019081015460038201549193506128ef9190614a32565b85111561292d5760405162461bcd60e51b815260040180806020018281038252602b815260200180615969602b913960400191505060405180910390fd5b6007820154600090612948906001600160a01b031687614ac0565b9050600254811161298a5760405162461bcd60e51b8152600401808060200182810382526021815260200180615b186021913960400191505060405180910390fd5b60028201805461ffff1916905560078301546001600160a01b03166129d05781546129b590346148dc565b825560048301546129c690346148dc565b60048401556129f3565b81546129dc90876148dc565b825560048301546129ed90876148dc565b60048401555b6007830154604080518881526020810184905281516001600160a01b039093169233927f129e8c18c2f7baf99c7eb257934c21f038c72412803512dcf0a942a4562a82ea928290030190a3505060016000555050505050565b60025481565b60026000541415612a98576040805162461bcd60e51b815260206004820152601f6024820152600080516020615890833981519152604482015290519081900360640190fd5b600260005560035460ff1615612ae3576040805162461bcd60e51b815260206004820152601860248201526000805160206159dd833981519152604482015290519081900360640190fd5b8060088181548110612af157fe5b90600052602060002090600c0201600001544211612b44576040805162461bcd60e51b81526020600482015260156024820152600080516020615949833981519152604482015290519081900360640190fd5b81600160088281548110612b5457fe5b90600052602060002090600c020160080160149054906101000a900460ff166004811115612b7e57fe5b1480612bc05750600260088281548110612b9457fe5b90600052602060002090600c020160080160149054906101000a900460ff166004811115612bbe57fe5b145b80612c015750600360088281548110612bd557fe5b90600052602060002090600c020160080160149054906101000a900460ff166004811115612bff57fe5b145b612c40576040805162461bcd60e51b815260206004820152601b6024820152600080516020615a6f833981519152604482015290519081900360640190fd5b600060088481548110612c4f57fe5b90600052602060002090600c02019050600060098581548110612c6e57fe5b60009182526020808320338452600a825260408085208a86529092529083206006929092020160018101546005860154919450919291612cae9190614a32565b11612cfb576040805162461bcd60e51b81526020600482015260186024820152771c99599d5b99109bdc9c9bddce881b9bdd081c99599d5b9960421b604482015290519081900360640190fd5b8054612d4a576040805162461bcd60e51b81526020600482015260196024820152781c99599d5b99109bdc9c9bddce881b9bdd081c1b195919d959603a1b604482015290519081900360640190fd5b600281015460ff1615612da1576040805162461bcd60e51b815260206004820152601a6024820152791c99599d5b99109bdc9c9bddce881859d85a5b881c99599d5b9960321b604482015290519081900360640190fd5b60058301548154600091612dc191610c5f90670de0b6b3a764000061483b565b90506000612df6670de0b6b3a7640000610c5f84612df088600101548a60050154614a3290919063ffffffff16565b9061483b565b6008860154909150612e139033906001600160a01b031683614934565b6001830154612e2290826148dc565b60018085019190915560028401805460ff1916909117905560088501546040805183815290516001600160a01b039092169133917f732816f48de550f238bd0d4f5b79819c7b24a49d6132928978e3cd36568dd5db919081900360200190a350506001600055505050505050565b60008060088381548110612ea057fe5b90600052602060002090600c020190508060080160149054906101000a900460ff166004811115612ecd57fe5b9392505050565b600b60209081526000928352604080842090915290825290208054600182015460029092015490919060ff8082169161010090041684565b60026000541415612f52576040805162461bcd60e51b815260206004820152601f6024820152600080516020615890833981519152604482015290519081900360640190fd5b600260005560035460ff1615612f9d576040805162461bcd60e51b815260206004820152601860248201526000805160206159dd833981519152604482015290519081900360640190fd5b80600460088281548110612fad57fe5b90600052602060002090600c020160080160149054906101000a900460ff166004811115612fd757fe5b14613027576040805162461bcd60e51b815260206004820152601b60248201527a73746174653a207374617465206d75737420626520756e646f6e6560281b604482015290519081900360640190fd5b60006008838154811061303657fe5b90600052602060002090600c02019050600081600401541161309e576040805162461bcd60e51b815260206004820152601c60248201527b195b595c99d95b98d3195b990e881b9bdd081dda5d1a191c985dd85b60221b604482015290519081900360640190fd5b336000908152600b6020908152604080832086845290915290208054613105576040805162461bcd60e51b81526020600482015260176024820152761c99599d5b9913195b990e881b9bdd081c1b195919d959604a1b604482015290519081900360640190fd5b600281015460ff161561315a576040805162461bcd60e51b81526020600482015260186024820152771c99599d5b9913195b990e881859d85a5b881c99599d5b9960421b604482015290519081900360640190fd5b600782015481546131789133916001600160a01b0390911690614934565b60028101805460ff191660011790556007820154815460408051918252516001600160a01b039092169133917f71d14c5f08cb34cbfb59c06ea5151aafbf742d0b6ed00fdb83addd9afb5c0fd0919081900360200190a3505060016000555050565b60035461010090046001600160a01b031681565b6131f6615871565b60006008838154811061320557fe5b600091825260209182902060408051600280825260608083018452600c9095029093019550929383019080368337505050600783015481519192506001600160a01b031690829060009061325557fe5b6020908102919091010152600882015481516001600160a01b03909116908290600190811061328057fe5b6020908102919091018101919091526005546040516304e59d2760e11b8152600481018381528451602483015284516060946001600160a01b03909416936309cb3a4e938793928392604490920191858101910280838360005b838110156132f25781810151838201526020016132da565b505050509050019250505060006040518083038186803b15801561331557600080fd5b505afa158015613329573d6000803e3d6000fd5b505050506040513d6000823e601f3d908101601f19168201604052602081101561335257600080fd5b8101908080516040519392919084600160201b82111561337157600080fd5b90830190602082018581111561338657600080fd5b82518660208202830111600160201b821117156133a257600080fd5b82525081516020918201928201910280838360005b838110156133cf5781810151838201526020016133b7565b5050505090500160405250505090506040518060400160405280826000815181106133f657fe5b602002602001015181526020018260018151811061341057fe5b60200260200101518152509350505050919050565b6002600054141561346b576040805162461bcd60e51b815260206004820152601f6024820152600080516020615890833981519152604482015290519081900360640190fd5b600260005560035460ff16156134b6576040805162461bcd60e51b815260206004820152601860248201526000805160206159dd833981519152604482015290519081900360640190fd5b80428110156134fd576040805162461bcd60e51b815260206004820152600e60248201526d1cdd185ad94e881156141254915160921b604482015290519081900360640190fd5b8360026008828154811061350d57fe5b90600052602060002090600c020160080160149054906101000a900460ff16600481111561353757fe5b1480613579575060036008828154811061354d57fe5b90600052602060002090600c020160080160149054906101000a900460ff16600481111561357757fe5b145b6135c6576040805162461bcd60e51b815260206004820152601960248201527839ba30ba329d103334b734b9b4103634b8bab4b230ba34b7b760391b604482015290519081900360640190fd5b6000600886815481106135d557fe5b90600052602060002090600c020190506000600987815481106135f457fe5b90600052602060002090600602019050600086116136435760405162461bcd60e51b81526004018080602001828103825260278152602001806159946027913960400191505060405180910390fd5b600a82015460408051632770a7eb60e21b81523360048201526024810189905290516001600160a01b0390921691639dc29fac9160448082019260009290919082900301818387803b15801561369857600080fd5b505af11580156136ac573d6000803e3d6000fd5b50505060068301548254600092506136cd916305f5e10091610c5f9161483b565b905060006136e782610c5f8a670de0b6b3a764000061483b565b905060026008850154600160a01b900460ff16600481111561370557fe5b14156137ca578360010154421161374d5760405162461bcd60e51b8152600401808060200182810382526022815260200180615bc76022913960400191505060405180910390fd5b6000613772670de0b6b3a7640000610c5f86600301548561483b90919063ffffffff16565b600886015490915061378f9033906001600160a01b031683614934565b6008850154604080518b81526020810184905281516001600160a01b03909316923392600080516020615a8f833981519152928290030190a3505b60036008850154600160a01b900460ff1660048111156137e657fe5b14156138a8578354421161382b5760405162461bcd60e51b81526004018080602001828103825260248152602001806158b06024913960400191505060405180910390fd5b6000613850670de0b6b3a7640000610c5f86600501548561483b90919063ffffffff16565b600886015490915061386d9033906001600160a01b031683614934565b6008850154604080518b81526020810184905281516001600160a01b03909316923392600080516020615a8f833981519152928290030190a3505b5050600160005550505050505050565b6138c0614837565b6001600160a01b03166138d1612488565b6001600160a01b03161461391a576040805162461bcd60e51b81526020600482018190526024820152600080516020615af8833981519152604482015290519081900360640190fd5b60006008828154811061392957fe5b90600052602060002090600c0201905060006009838154811061394857fe5b906000526020600020906006020190506008838154811061396557fe5b90600052602060002090600c02016001015442116139c7576040805162461bcd60e51b815260206004820152601a60248201527966696e6973683a206c657373207468616e20656e642074696d6560301b604482015290519081900360640190fd5b60016008830154600160a01b900460ff1660048111156139e357fe5b14613a1f5760405162461bcd60e51b8152600401808060200182810382526024815260200180615b596024913960400191505060405180910390fd5b6008820154600783015460028401546001600160a01b039283169290911690600090613a59906305f5e10090610c5f90610c9a90836148dc565b90506000613a816305f5e100610c5f61178d6305f5e1006006546148dc90919063ffffffff16565b9050600080613aa7600360019054906101000a90046001600160a01b03168787866149e5565b9150915083811015613aff576040805162461bcd60e51b815260206004820152601c60248201527b0ccd2dcd2e6d07440a6d8d2e0e0c2ceca40d2e640e8dede40d0d2ced60231b604482015290519081900360640190fd5b83811115613b4a576000613b138286614a32565b60045460078b0154919250613b35916001600160a01b03918216911683614934565b613b3f8282614a32565b600289015550613b52565b600287018190555b6001870154600090613b649084614a32565b60065460088b0154919250600091613b8691906001600160a01b031684614a74565b60038a0181905560088b01805491925060029160ff60a01b1916600160a01b83611866565b613bb3614837565b6001600160a01b0316613bc4612488565b6001600160a01b031614613c0d576040805162461bcd60e51b81526020600482018190526024820152600080516020615af8833981519152604482015290519081900360640190fd5b6003805460ff19811660ff90911615179055565b60026000541415613c67576040805162461bcd60e51b815260206004820152601f6024820152600080516020615890833981519152604482015290519081900360640190fd5b600260005560035460ff1615613cb2576040805162461bcd60e51b815260206004820152601860248201526000805160206159dd833981519152604482015290519081900360640190fd5b80600460088281548110613cc257fe5b90600052602060002090600c020160080160149054906101000a900460ff166004811115613cec57fe5b14613d3c576040805162461bcd60e51b815260206004820152601b60248201527a73746174653a207374617465206d75737420626520756e646f6e6560281b604482015290519081900360640190fd5b600060088381548110613d4b57fe5b90600052602060002090600c020190506000816005015411613db4576040805162461bcd60e51b815260206004820152601f60248201527f656d657267656e6379426f72726f773a206e6f74207769746864726177616c00604482015290519081900360640190fd5b336000908152600a6020908152604080832086845290915290208054613e1d576040805162461bcd60e51b81526020600482015260196024820152781c99599d5b99109bdc9c9bddce881b9bdd081c1b195919d959603a1b604482015290519081900360640190fd5b600281015460ff1615613e74576040805162461bcd60e51b815260206004820152601a6024820152791c99599d5b99109bdc9c9bddce881859d85a5b881c99599d5b9960321b604482015290519081900360640190fd5b60088201548154613e929133916001600160a01b0390911690614934565b60028101805460ff191660011790556008820154815460408051918252516001600160a01b039092169133917f5a06c7de92f1dc59e8cba872927d016c80ce5f0fb2295c898dfb7a2f08e43fb1919081900360200190a3505060016000555050565b60075481565b613f02614837565b6001600160a01b0316613f13612488565b6001600160a01b031614613f5c576040805162461bcd60e51b81526020600482018190526024820152600080516020615af8833981519152604482015290519081900360640190fd5b898911613f9a5760405162461bcd60e51b815260040180806020018281038252602a8152602001806158f9602a913960400191505060405180910390fd5b6001600160a01b038216613ff2576040805162461bcd60e51b815260206004820152601a602482015279637265617465506f6f6c3a6973207a65726f206164647265737360301b604482015290519081900360640190fd5b6001600160a01b03831661404a576040805162461bcd60e51b815260206004820152601a602482015279637265617465506f6f6c3a6973207a65726f206164647265737360301b604482015290519081900360640190fd5b6008604051806101a001604052808c81526020018b81526020018a6001600160401b031681526020018981526020016000815260200160008152602001888152602001876001600160a01b03168152602001866001600160a01b03168152602001600060048111156140b857fe5b81526001600160a01b0380871660208084019190915286821660408085019190915260609384018790528554600181810188556000978852968390208651600c909202019081559185015195820195909555938301516002850155908201516003840155608082015160048085019190915560a0830151600585015560c0830151600685015560e08301516007850180549184166001600160a01b031992831617905561010084015160088601805491909416911617808355610120840151939493929160ff60a01b1990911690600160a01b90849081111561419757fe5b0217905550610140820151600980830180546001600160a01b039384166001600160a01b031991821617909155610160850151600a850180549190941691161790915561018090920151600b909101556040805160c081018252600080825260208201818152928201818152606083018281526080840183815260a08501848152875460018101895597909452935160069096027f6e1540171b6c0c960b71a7020d9f60077f6af931a8bbf590da0223dacf75c7af81019690965593517f6e1540171b6c0c960b71a7020d9f60077f6af931a8bbf590da0223dacf75c7b0860155517f6e1540171b6c0c960b71a7020d9f60077f6af931a8bbf590da0223dacf75c7b185015591517f6e1540171b6c0c960b71a7020d9f60077f6af931a8bbf590da0223dacf75c7b2840155517f6e1540171b6c0c960b71a7020d9f60077f6af931a8bbf590da0223dacf75c7b3830155517f6e1540171b6c0c960b71a7020d9f60077f6af931a8bbf590da0223dacf75c7b49091015550505050505050505050565b60026000541415614360576040805162461bcd60e51b815260206004820152601f6024820152600080516020615890833981519152604482015290519081900360640190fd5b600260005560035460ff16156143ab576040805162461bcd60e51b815260206004820152601860248201526000805160206159dd833981519152604482015290519081900360640190fd5b80600881815481106143b957fe5b90600052602060002090600c020160000154421161440c576040805162461bcd60e51b81526020600482015260156024820152600080516020615949833981519152604482015290519081900360640190fd5b8160016008828154811061441c57fe5b90600052602060002090600c020160080160149054906101000a900460ff16600481111561444657fe5b1480614488575060026008828154811061445c57fe5b90600052602060002090600c020160080160149054906101000a900460ff16600481111561448657fe5b145b806144c9575060036008828154811061449d57fe5b90600052602060002090600c020160080160149054906101000a900460ff1660048111156144c757fe5b145b614508576040805162461bcd60e51b815260206004820152601b6024820152600080516020615a6f833981519152604482015290519081900360640190fd5b60006008848154811061451757fe5b90600052602060002090600c0201905060006009858154811061453657fe5b60009182526020808320338452600b825260408085208a865290925292208054600690920290920192506145ab576040805162461bcd60e51b81526020600482015260176024820152761c99599d5b9913195b990e881b9bdd081c1b195919d959604a1b604482015290519081900360640190fd5b815460048401546000916145bf9190614a32565b1161460a576040805162461bcd60e51b81526020600482015260166024820152751c99599d5b9913195b990e881b9bdd081c99599d5b9960521b604482015290519081900360640190fd5b600281015460ff1615614660576040805162461bcd60e51b81526020600482015260196024820152781c99599d5b9913195b990e881c995c19585d081c99599d5b99603a1b604482015290519081900360640190fd5b6004830154815460009161468091610c5f90670de0b6b3a764000061483b565b905060006146af670de0b6b3a7640000610c5f84612df088600001548a60040154614a3290919063ffffffff16565b60078601549091506146cc9033906001600160a01b031683614934565b60028301805460ff191660019081179091558301546146eb90826148dc565b600184015560078501546040805183815290516001600160a01b039092169133917fc3e20279d41b3ed21d277920877e5e5c6665bf6aca607046a3fe0fd2bd6bda7d919081900360200190a350506001600055505050505050565b61474e614837565b6001600160a01b031661475f612488565b6001600160a01b0316146147a8576040805162461bcd60e51b81526020600482018190526024820152600080516020615af8833981519152604482015290519081900360640190fd5b6001600160a01b0381166147ed5760405162461bcd60e51b81526004018080602001828103825260268152602001806159236026913960400191505060405180910390fd5b6001546040516001600160a01b03808416921690600080516020615b3983398151915290600090a3600180546001600160a01b0319166001600160a01b0392909216919091179055565b3390565b60008261484a57506000614897565b8282028284828161485757fe5b04146148945760405162461bcd60e51b8152600401808060200182810382526021815260200180615ad76021913960400191505060405180910390fd5b90505b92915050565b600061489483836040518060400160405280601a815260200179536166654d6174683a206469766973696f6e206279207a65726f60301b815250614afc565b600082820183811015614894576040805162461bcd60e51b815260206004820152601b60248201527a536166654d6174683a206164646974696f6e206f766572666c6f7760281b604482015290519081900360640190fd5b6001600160a01b03821661497e576040516001600160a01b0384169082156108fc029083906000818181858888f19350505050158015614978573d6000803e3d6000fd5b50614995565b816149936001600160a01b0382168584614b9e565b505b816001600160a01b0316836001600160a01b03167fd12200efa34901b99367694174c3b0d32c99585fdf37c7c26892136ddd0836d9836040518082815260200191505060405180910390a3505050565b60008060008084116149f8576000614a15565b600354614a159061010090046001600160a01b0316878787614bf0565b905080614a2488888885614d8d565b925092505094509492505050565b600061489483836040518060400160405280601e81526020017f536166654d6174683a207375627472616374696f6e206f766572666c6f770000815250615264565b6000806305f5e100614a86848761483b565b81614a8d57fe5b0490508015614aad57600454614aad906001600160a01b03168583614934565b614ab78382614a32565b95945050505050565b60006001600160a01b038316614ad857349150614af6565b8115614af65782614af46001600160a01b0382163330866152be565b505b50919050565b60008183614b885760405162461bcd60e51b81526004018080602001828103825283818151815260200191508051906020019080838360005b83811015614b4d578181015183820152602001614b35565b50505050905090810190601f168015614b7a5780820380516001836020036101000a031916815260200191505b509250505060405180910390fd5b506000838581614b9457fe5b0495945050505050565b604080516001600160a01b038416602482015260448082018490528251808303909101815260649091019091526020810180516001600160e01b031663a9059cbb60e01b179052610bcb90849061531e565b6003546000908590606090614c149061010090046001600160a01b031687876153cf565b90506060826001600160a01b0316631f00ca7486846040518363ffffffff1660e01b81526004018083815260200180602001828103825283818151815260200191508051906020019060200280838360005b83811015614c7e578181015183820152602001614c66565b50505050905001935050505060006040518083038186803b158015614ca257600080fd5b505afa158015614cb6573d6000803e3d6000fd5b505050506040513d6000823e601f3d908101601f191682016040526020811015614cdf57600080fd5b8101908080516040519392919084600160201b821115614cfe57600080fd5b908301906020820185811115614d1357600080fd5b82518660208202830111600160201b82111715614d2f57600080fd5b82525081516020918201928201910280838360005b83811015614d5c578181015183820152602001614d44565b50505050905001604052505050905080600081518110614d7857fe5b60200260200101519350505050949350505050565b60006001600160a01b03841615614dab57614dab8486600019615539565b6001600160a01b03831615614dc757614dc78386600019615539565b846060614dd58287876153cf565b905060606001600160a01b038716614f5f57826001600160a01b0316637ff36ab5866000853042601e016040518663ffffffff1660e01b81526004018085815260200180602001846001600160a01b03168152602001838152602001828103825285818151815260200191508051906020019060200280838360005b83811015614e69578181015183820152602001614e51565b50505050905001955050505050506000604051808303818588803b158015614e9057600080fd5b505af1158015614ea4573d6000803e3d6000fd5b50505050506040513d6000823e601f3d908101601f191682016040526020811015614ece57600080fd5b8101908080516040519392919084600160201b821115614eed57600080fd5b908301906020820185811115614f0257600080fd5b82518660208202830111600160201b82111715614f1e57600080fd5b82525081516020918201928201910280838360005b83811015614f4b578181015183820152602001614f33565b5050505090500160405250505090506151d6565b6001600160a01b03861661505b57826001600160a01b03166318cbafe5866000853042601e016040518663ffffffff1660e01b81526004018086815260200185815260200180602001846001600160a01b03168152602001838152602001828103825285818151815260200191508051906020019060200280838360005b83811015614ff5578181015183820152602001614fdd565b505050509050019650505050505050600060405180830381600087803b15801561501e57600080fd5b505af1158015615032573d6000803e3d6000fd5b505050506040513d6000823e601f3d908101601f191682016040526020811015614ece57600080fd5b826001600160a01b03166338ed1739866000853042601e016040518663ffffffff1660e01b81526004018086815260200185815260200180602001846001600160a01b03168152602001838152602001828103825285818151815260200191508051906020019060200280838360005b838110156150e35781810151838201526020016150cb565b505050509050019650505050505050600060405180830381600087803b15801561510c57600080fd5b505af1158015615120573d6000803e3d6000fd5b505050506040513d6000823e601f3d908101601f19168201604052602081101561514957600080fd5b8101908080516040519392919084600160201b82111561516857600080fd5b90830190602082018581111561517d57600080fd5b82518660208202830111600160201b8211171561519957600080fd5b82525081516020918201928201910280838360005b838110156151c65781810151838201526020016151ae565b5050505090500160405250505090505b856001600160a01b0316876001600160a01b03167ffa2dda1cc1b86e41239702756b13effbc1a092b5c57e3ad320fbe4f3b13fe2358360008151811061521857fe5b60200260200101518460018651038151811061523057fe5b6020026020010151604051808381526020018281526020019250505060405180910390a380600182510381518110614d7857fe5b600081848411156152b65760405162461bcd60e51b8152602060048201818152835160248401528351909283926044909101919085019080838360008315614b4d578181015183820152602001614b35565b505050900390565b604080516001600160a01b0380861660248301528416604482015260648082018490528251808303909101815260849091019091526020810180516001600160e01b03166323b872dd60e01b17905261531890859061531e565b50505050565b6060615373826040518060400160405280602081526020017f5361666545524332303a206c6f772d6c6576656c2063616c6c206661696c6564815250856001600160a01b03166156929092919063ffffffff16565b805190915015610bcb5780806020019051602081101561539257600080fd5b5051610bcb5760405162461bcd60e51b815260040180806020018281038252602a815260200180615b9d602a913960400191505060405180910390fd5b6040805160028082526060808301845292869291906020830190803683370190505091506001600160a01b03841615615408578361546e565b806001600160a01b031663ad5c46486040518163ffffffff1660e01b815260040160206040518083038186803b15801561544157600080fd5b505afa158015615455573d6000803e3d6000fd5b505050506040513d602081101561546b57600080fd5b50515b8260008151811061547b57fe5b6001600160a01b03928316602091820292909201015283161561549e5782615504565b806001600160a01b031663ad5c46486040518163ffffffff1660e01b815260040160206040518083038186803b1580156154d757600080fd5b505afa1580156154eb573d6000803e3d6000fd5b505050506040513d602081101561550157600080fd5b50515b8260018151811061551157fe5b60200260200101906001600160a01b031690816001600160a01b031681525050509392505050565b604080516001600160a01b038481166024830152604480830185905283518084039091018152606490920183526020820180516001600160e01b031663095ea7b360e01b178152925182516000946060949389169392918291908083835b602083106155b65780518252601f199092019160209182019101615597565b6001836020036101000a0380198251168184511680821785525050505050509050019150506000604051808303816000865af19150503d8060008114615618576040519150601f19603f3d011682016040523d82523d6000602084013e61561d565b606091505b509150915081801561564b57508051158061564b575080806020019051602081101561564857600080fd5b50515b61568b576040805162461bcd60e51b815260206004820152600c60248201526b2173616665417070726f766560a01b604482015290519081900360640190fd5b5050505050565b60606156a184846000856156a9565b949350505050565b6060824710156156ea5760405162461bcd60e51b8152600401808060200182810382526026815260200180615a496026913960400191505060405180910390fd5b6156f385615805565b615744576040805162461bcd60e51b815260206004820152601d60248201527f416464726573733a2063616c6c20746f206e6f6e2d636f6e7472616374000000604482015290519081900360640190fd5b60006060866001600160a01b031685876040518082805190602001908083835b602083106157835780518252601f199092019160209182019101615764565b6001836020036101000a03801982511681845116808217855250505050505090500191505060006040518083038185875af1925050503d80600081146157e5576040519150601f19603f3d011682016040523d82523d6000602084013e6157ea565b606091505b50915091506157fa82828661580b565b979650505050505050565b3b151590565b6060831561581a575081612ecd565b82511561582a5782518084602001fd5b60405162461bcd60e51b8152602060048201818152845160248401528451859391928392604401919085019080838360008315614b4d578181015183820152602001614b35565b6040518060400160405280600290602082028036833750919291505056fe5265656e7472616e637947756172643a207265656e7472616e742063616c6c007769746864726177426f72726f773a206c657373207468616e206d617463682074696d6577697468647261774c656e643a20776974686472617720616d6f756e74206973207a65726f637265617465506f6f6c3a656e642074696d65206772617465207468616e20736574746c652074696d654f776e61626c653a206e6577206f776e657220697320746865207a65726f2061646472657373477265617465207468616e20746869732074696d6500000000000000000000006465706f7369744c656e643a20746865207175616e74697479206578636565647320746865206c696d69747769746864726177426f72726f773a20776974686472617720616d6f756e74206973207a65726f77697468647261774c656e643a206c657373207468616e206d617463682074696d655374616b6520686173206265656e2073757370656e64656400000000000000006465706f736974426f72726f773a206465706f73697420616d6f756e74206973207a65726f6c69717569646174653a20706f6f6c207374617465206d75737420626520657865637574696f6e416464726573733a20696e73756666696369656e742062616c616e636520666f722063616c6c73746174653a206e6f74206d6174636820616e6420756e646f6e6500000000000f5e74952c2f9259a748f3aa9a6c4534a6f46a5966e5baabdb6bd337f05234a873746174653a20506f6f6c20737461747573206973206e6f7420657175616c20746f206d61746368536166654d6174683a206d756c7469706c69636174696f6e206f766572666c6f774f776e61626c653a2063616c6c6572206973206e6f7420746865206f776e65726465706f7369744c656e643a206c657373207468616e206d696e20616d6f756e748be0079c531659141344cd1fd0a4f28419497f9722a3daafe3b4186f6b6457e066696e6973683a20706f6f6c207374617465206d75737420626520657865637574696f6e690f32ccf3e832d5ff975d781039bc2affebee9c973939c9b710091b87954c9d5361666545524332303a204552433230206f7065726174696f6e20646964206e6f7420737563636565647769746864726177426f72726f773a206c657373207468616e20656e642074696d65a2646970667358221220e89a321c4910d9e2b77846743e784ee50b7c2eba37e83d6aba6408665c523ca464736f6c634300060c0033",
  "linkReferences": {},
  "deployedLinkReferences": {}
}