{
  "_format": "hh-sol-artifact-1",
  "contractName": "MockOracle",
  "sourceName": "contracts/mock/MockOracle.sol",
  "abi": [
    {
      "anonymous": false,
      "inputs": [
        {
          "indexed": true,
          "internalType": "address",
          "name": "previousOwner",
          "type": "address"
        },
        {
          "indexed": true,
          "internalType": "address",
          "name": "newOwner",
          "type": "address"
        }
      ],
      "name": "OwnershipTransferred",
      "type": "event"
    },
    {
      "inputs": [
        {
          "internalType": "address",
          "name": "asset",
          "type": "address"
        }
      ],
      "name": "getPrice",
      "outputs": [
        {
          "internalType": "uint256",
          "name": "",
          "type": "uint256"
        }
      ],
      "stateMutability": "view",
      "type": "function"
    },
    {
      "inputs": [
        {
          "internalType": "uint256[]",
          "name": "assets",
          "type": "uint256[]"
        }
      ],
      "name": "getPrices",
      "outputs": [
        {
          "internalType": "uint256[]",
          "name": "",
          "type": "uint256[]"
        }
      ],
      "stateMutability": "view",
      "type": "function"
    },
    {
      "inputs": [
        {
          "internalType": "uint256",
          "name": "underlying",
          "type": "uint256"
        }
      ],
      "name": "getUnderlyingPrice",
      "outputs": [
        {
          "internalType": "uint256",
          "name": "",
          "type": "uint256"
        }
      ],
      "stateMutability": "view",
      "type": "function"
    },
    {
      "inputs": [],
      "name": "owner",
      "outputs": [
        {
          "internalType": "address",
          "name": "",
          "type": "address"
        }
      ],
      "stateMutability": "view",
      "type": "function"
    },
    {
      "inputs": [],
      "name": "renounceOwnership",
      "outputs": [],
      "stateMutability": "nonpayable",
      "type": "function"
    },
    {
      "inputs": [
        {
          "internalType": "address",
          "name": "asset",
          "type": "address"
        },
        {
          "internalType": "uint256",
          "name": "price",
          "type": "uint256"
        }
      ],
      "name": "setPrice",
      "outputs": [],
      "stateMutability": "nonpayable",
      "type": "function"
    },
    {
      "inputs": [
        {
          "internalType": "address",
          "name": "newOwner",
          "type": "address"
        }
      ],
      "name": "transferOwnership",
      "outputs": [],
      "stateMutability": "nonpayable",
      "type": "function"
    }
  ],
  "bytecode": "0x6080604052600160035534801561001557600080fd5b50600061002061006f565b600080546001600160a01b0319166001600160a01b0383169081178255604051929350917f8be0079c531659141344cd1fd0a4f28419497f9722a3daafe3b4186f6b6457e0908290a350610073565b3390565b6105a0806100826000396000f3fe608060405234801561001057600080fd5b506004361061006c5760003560e01c8062e4768b1461007157806309cb3a4e1461009f57806341976e0914610190578063715018a6146101c85780638da5cb5b146101d0578063da663257146101f4578063f2fde38b14610211575b600080fd5b61009d6004803603604081101561008757600080fd5b506001600160a01b038135169060200135610237565b005b610140600480360360208110156100b557600080fd5b810190602081018135600160201b8111156100cf57600080fd5b8201836020820111156100e157600080fd5b803590602001918460208302840111600160201b8311171561010257600080fd5b9190808060200260200160405190810160405280939291908181526020018383602002808284376000920191909152509295506102b5945050505050565b60408051602080825283518183015283519192839290830191858101910280838360005b8381101561017c578181015183820152602001610164565b505050509050019250505060405180910390f35b6101b6600480360360208110156101a657600080fd5b50356001600160a01b031661034c565b60408051918252519081900360200190f35b61009d610367565b6101d8610401565b604080516001600160a01b039092168252519081900360200190f35b6101b66004803603602081101561020a57600080fd5b503561034c565b61009d6004803603602081101561022757600080fd5b50356001600160a01b0316610410565b61023f610500565b6001600160a01b0316610250610401565b6001600160a01b031614610299576040805162461bcd60e51b8152602060048201819052602482015260008051602061052b833981519152604482015290519081900360640190fd5b6001600160a01b03909116600090815260026020526040902055565b805160609081816001600160401b03811180156102d157600080fd5b506040519080825280602002602001820160405280156102fb578160200160208202803683370190505b50905060005b828110156103445761032585828151811061031857fe5b602002602001015161034c565b82828151811061033157fe5b6020908102919091010152600101610301565b509392505050565b6001600160a01b031660009081526002602052604090205490565b61036f610500565b6001600160a01b0316610380610401565b6001600160a01b0316146103c9576040805162461bcd60e51b8152602060048201819052602482015260008051602061052b833981519152604482015290519081900360640190fd5b600080546040516001600160a01b039091169060008051602061054b833981519152908390a3600080546001600160a01b0319169055565b6000546001600160a01b031690565b610418610500565b6001600160a01b0316610429610401565b6001600160a01b031614610472576040805162461bcd60e51b8152602060048201819052602482015260008051602061052b833981519152604482015290519081900360640190fd5b6001600160a01b0381166104b75760405162461bcd60e51b81526004018080602001828103825260268152602001806105056026913960400191505060405180910390fd5b600080546040516001600160a01b038085169392169160008051602061054b83398151915291a3600080546001600160a01b0319166001600160a01b0392909216919091179055565b339056fe4f776e61626c653a206e6577206f776e657220697320746865207a65726f20616464726573734f776e61626c653a2063616c6c6572206973206e6f7420746865206f776e65728be0079c531659141344cd1fd0a4f28419497f9722a3daafe3b4186f6b6457e0a264697066735822122059e6597a96a84576bc0674b66c3dae3589e7e69e43e603f61c4772ecbccb8b3964736f6c634300060c0033",
  "linkReferences": {},
  "deployedLinkReferences": {}
}