{
  "_format": "hh-sol-artifact-1",
  "contractName": "multiSignatureClient",
  "sourceName": "contracts/multiSignature/multiSignatureClient.sol",
  "abi": [
    {
      "inputs": [
        {
          "internalType": "address",
          "name": "multiSignature",
          "type": "address"
        }
      ],
      "stateMutability": "nonpayable",
      "type": "constructor"
    },
    {
      "inputs": [],
      "name": "getMultiSignatureAddress",
      "outputs": [
        {
          "internalType": "address",
          "name": "",
          "type": "address"
        }
      ],
      "stateMutability": "view",
      "type": "function"
    }
  ],
  "bytecode": "0x608060405234801561001057600080fd5b506040516101bf3803806101bf8339818101604052602081101561003357600080fd5b50516001600160a01b03811661007a5760405162461bcd60e51b815260040180806020018281038252604381526020018061017c6043913960600191505060405180910390fd5b6100ad7f8dddb57468cf5338ee155397ad1400a7a564308824f517d20a8a7c516523bb476001600160a01b0383166100b3565b506100b7565b9055565b60b7806100c56000396000f3fe6080604052348015600f57600080fd5b506004361060285760003560e01c8063638c7e1714602d575b600080fd5b6033604f565b604080516001600160a01b039092168252519081900360200190f35b600060787f8dddb57468cf5338ee155397ad1400a7a564308824f517d20a8a7c516523bb47607d565b905090565b549056fea26469706673582212206e1094d4220072953d06fbb0585b872bf41d3575af777d4da177d10dff3e77c664736f6c634300060c00336d756c74695369676e6174757265436c69656e74203a204d756c7469706c65207369676e617475726520636f6e74726163742061646472657373206973207a65726f21",
  "linkReferences": {},
  "deployedLinkReferences": {}
}